:100000000C9455020C947E020C947E020C947E0299
:100010000C947E020C947E020C942D030C947E02B0
:100020000C9480020C947E020C947E020C94551168
:100030000C9479110C947E020C947E020C947E0236
:100040000C947E020C947E020C947E020C947E0230
:100050000C947E020D0A000D0A232048206D696E63
:100060002C6D61782C6176673D00232054206D69EA
:100070006E2C6D61782C6176673D0023206E6F20B9
:1000800076616C69642073616D706C65730D0A0034
:100090000D0A002320636F756E743D000D0A002069
:1000A000534F554E443D00204353565345433D0066
:1000B0002048485953543D000D0A232054485953B1
:1000C000543D002048484947483D0020484C4F5780
:1000D0003D002054484947483D002320544C4F5789
:1000E0003D0044494147204F46460044494147208E
:1000F0004F4E000D0A00204C4544533D0020524510
:100100005345543D0023204B45593D004449414748
:10011000005041474520005345542000435356208A
:100120004F464600435356204F4E00434C454152E4
:100130004552520052455345545354415453004480
:10014000454641554C5453004C4F41440053415691
:10015000450041434B00535441545300434F4E46D6
:1001600049470053544154555300232052544320CF
:1001700059592D4D4D2D44442048483A4D4D3A5340
:100180005320573D312E2E372028323030302E2E3E
:1001900032303939290D0A0023205041474520309B
:1001A0002E2E383B2044494147204F4E7C4F464637
:1001B0003B20434C4541524552520D0A00232043F7
:1001C0005356204F4E7C4F46463B205345542054B7
:1001D0004C4F577C54484947487C484C4F577C48C3
:1001E000484947487C54485953547C4848595354CB
:1001F0007C4353565345437C534F554E44206E0D1C
:100200000A00232053544154555320434F4E46492E
:10021000472053544154532041434B2053415645AA
:10022000204C4F41442044454641554C54532052A4
:100230004553455453544154530D0A0048454C50BE
:1002400000232045525220636F6D6D616E642F76DE
:10025000616C75652F6D6F64756C650D0A002320E8
:100260004F4B0D0A002320455252206C696E6520C9
:100270006469736361726465640D0A000D0A00327B
:100280003000757074696D655F732C74656D705F97
:10029000632C68756D69646974795F7063742C741C
:1002A0005F7472656E642C685F7472656E642C6135
:1002B0006C61726D2C61636B2C6572726F72732C42
:1002C0006164635F7261772C6C75782C7274630D56
:1002D0000A00232041546D6567613136206D6F6ED1
:1002E00069746F72204320384D487A3B2048454C52
:1002F0005020666F7220636F6D6D616E64730D0ABE
:1003000000534554204C454420453A25303258008E
:10031000444941473A2575204B45593A2558004CE8
:1003200069676874206572726F7200256C75206C45
:100330007578004C69676874204248313735300061
:100340005254432064697361626C65640052544383
:100350002044533332333100253032753A25303260
:10036000753A2530327520572575003230253032E8
:10037000752D253032752D253032750041444320CE
:100380006572726F7200257520256C756D56204060
:100390003556005652312041444330202F204156DB
:1003A000434300256C75732052455345543A25301C
:1003B000325800555020256C7564202530326C75FC
:1003C0003A2530326C7500543A256320483A25634B
:1003D00020282B757029005472656E642073746137
:1003E0006C65005472656E642077696E646F772067
:1003F00025752F380041564725752E2575204E2529
:100400006C750025632025752E25752D25752E25E7
:1004100075005761697420666F7220444854313109
:100420000053746174733A206E6F206461746100CC
:10043000413A253032582041434B3A255820453A1D
:1004400025303258004448543131206E6F206461A9
:100450007461005425752E257543204825752E2579
:100460007525250055502F444E205345543E2041BC
:10047000434B20580025733D257500534F554E447E
:100480000043535653454300484859535400544879
:1004900059535400484849474800484C4F57005466
:1004A0004849474800544C4F570011241FBECFE520
:1004B000D4E0DEBFCDBF84B78093490214BE0FB62F
:1004C000F894A89581B5886181BD11BC0FBE10E07C
:1004D000A0E6B0E0E0EBF4E302C005900D92A83C8A
:1004E000B107D9F722E0A8ECB0E001C01D92A93411
:1004F000B207E1F70E949B0D0C943E1A0C94000089
:100500001F921FB61F9211242F938F939F93AF9327
:10051000BF938091D5009091D600A091D700B09163
:10052000D8008F5B9F4FAF4FBF4F8093D500909304
:10053000D600A093D700B093D8008091D3009091BB
:10054000D400885E9D4F9093D4008093D300809117
:10055000D3009091D400883E9340E8F08091D3007E
:100560009091D400885E93409093D4008093D30000
:100570008091D5009091D600A091D700B091D8007D
:100580000196A11DB11D8093D5009093D600A09334
:10059000D700B093D800BF91AF919F918F912F91C9
:1005A0001F901FBE1F901895CF92DF92EF92FF927F
:1005B0004FB7F894C090D500D090D600E090D70007
:1005C000F090D8002091D3003091D4008CB59DB527
:1005D00008B602FE09C08CB59DB551E4C50ED11C0C
:1005E000E11CF11C285E3D4F4FBFA0E0B0E0BC0114
:1005F000CD01620F731F811D911D28EE33E040E095
:1006000050E00E94AF16CA01B9016C0D7D1D8E1D10
:100610009F1DFF90EF90DF90CF900895F89484B7DE
:10062000806884BF84BF87B3807F87BB88B38F60B7
:1006300088BB1FBC82E08EBD1DBC1CBC20E137E224
:100640003BBD2ABD94E198BF99BF85BD14BC789489
:10065000089586B380958F7008951F920F920FB6FC
:100660000F9211242F933F934F935F936F937F9338
:100670008F939F93AF93BF93CF93DF93EF93FF93AA
:100680008AB59BB5805F984D9BBD8ABD0E942903AA
:100690004091CD00EEECF0E060E070E0A1E0B0E071
:1006A0009D01062E01C0220F0A94EAF79191582F5E
:1006B0005223511541F0933018F49F5FEF019A9344
:1006C000933091F407C0911559F19150EF019A932D
:1006D000933021F5942F9223911106C0422B9091D3
:1006E000D200922B9093D2006F5F7F4F64307105E0
:1006F000B9F64093CD00FF91EF91DF91CF91BF917B
:10070000AF919F918F917F916F915F914F913F91A9
:100710002F910F900FBE0F901F9018959111E4CF5D
:1007200020954223E1CF9FB7F8948091D200109298
:10073000D2009FBF08950895CF92DF92EF92FF926B
:10074000CF93DF93EC0180E487B986E886B9369AC7
:100750000E94D4026B5F7F4F8F4F9F4F6B017C01D4
:1007600036990CC084B195B19983888381E0DF917B
:10077000CF91FF90EF90DF90CF9008950E94D40228
:10078000A70196010E94DC0A811551F380E0EFCFAA
:10079000CF92DF92EF92FF926B017C0141110EC06C
:1007A0009FB7F89481B3837E81BB82B3837E82BB83
:1007B0009FBFFF90EF90DF90CF90089581B38C6141
:1007C00081BB2091C9003091CA004091CB0050916B
:1007D000CC00C701B6010E94DC0A811551F38CE2FE
:1007E000C80E81E0D81EE11CF11CC092C900D09255
:1007F000CA00E092CB00F092CC008091C80090E05B
:1008000001966AE070E00E949B168093C8004FB783
:10081000F89422B33091C800377081E090E001C0B5
:10082000880F3A95EAF780958C71237E822B82BBE4
:100830004FBFBFCFCF93C82F87FF03C08DE20E9469
:10084000C411C7FDC1956C2F70E080E090E0CF919E
:100850000C940B128CE20C94C411CF936AE00E94AA
:100860007B16C92F805D0E94C41180E38C0FCF914D
:100870000C94C41182E892E00C94FC116091510137
:100880007091520180915301909154010E940B127A
:100890000E942A0480916A01811531F080915901EA
:1008A00090915A010E946A120E942A0480916A0162
:1008B000811531F080915B0190915C010E946A1278
:1008C0000E942A0480916A01811559F080914E019D
:1008D000883039F460E089E191E00E940B090E94C0
:1008E0001A040E942A0480916A01811559F08091AE
:1008F0004E01883039F461E089E191E00E940B09F2
:100900000E941A040E942A0460914F0170E080E066
:1009100090E00E940B120E942A046091500170E046
:1009200080E090E00E940B120E942A046091660110
:1009300070E080E090E00E940B120E942A048091F7
:100940006D01811541F060915D0170915E0180E063
:1009500090E00E940B120E942A0480916C01811584
:1009600051F060915501709156018091570190911D
:1009700058010E940B120E942A0480916B0181157C
:1009800059F18FE792E00E94FC1180915F010E9473
:100990002D048DE20E94C411809160010E942D04FB
:1009A0008DE20E94C411809161010E942D0484E5B2
:1009B0000E94C411809162010E942D048AE30E946A
:1009C000C411809163010E942D048AE30E94C41126
:1009D000809164010E942D048CE792E00C94FC113C
:1009E0001F93CF93DF9300D00F92CDB7DEB70E9455
:1009F0008512811519F081E080930A0111E0CE0182
:100A000003960E94AC11811107C00F900F900F90B8
:100A1000DF91CF911F9108950E948512811110934B
:100A20000A018B818D3019F08A3009F01DC2809146
:100A30000A01811549F085E692E00E94FC111092AE
:100A4000090110920A01DBCFE0910901E115B9F328
:100A5000F0E0E752FF4F10826CE372E089ED90E026
:100A60000E94E616892B89F482E092E00E94FC1134
:100A70008DEB91E00E94FC1188E991E00E94FC114D
:100A80008AE691E00E94FC110AC063E671E089EDFC
:100A900090E00E94E616892B29F40E943E048EE520
:100AA00092E0CBCF6CE571E089ED90E00E94E61614
:100AB000892B09F065C08AED90E00E94FC116091DD
:100AC0000B0170910C01072E000C880B990B0E94F2
:100AD0000B1282ED90E00E94FC1160910D0170916B
:100AE0000E01072E000C880B990B0E940B128BEC49
:100AF00090E00E94FC1160910F017091100180E064
:100B000090E00E940B1283EC90E00E94FC11609137
:100B100011017091120180E090E00E940B1288EBAD
:100B200090E00E94FC11609113017091140180E02B
:100B300090E00E940B1280EB90E00E94FC1160910B
:100B400015017091160180E090E00E940B1287EA77
:100B500090E00E94FC116091170170E080E090E04D
:100B60000E940B128FE990E00E94FC116091180125
:100B700070E080E090E00E940B128CE990E082CF60
:100B800066E571E089ED90E00E94E616892B09F098
:100B900076C083E990E00E94FC1160911901709188
:100BA0001A0180911B0190911C010E940B1280E997
:100BB00090E00E94FC118091190190911A01A0917E
:100BC0001B01B0911C01892B8A2B8B2B19F48BE70D
:100BD00090E058CF8AE690E00E94FC1180912501B8
:100BE000909126010E946A120E942A048091270196
:100BF000909128010E946A120E942A0460911D01AE
:100C000070911E0180911F01909120012091190186
:100C100030911A0140911B0150911C010E94AF16A6
:100C2000C9010E946A1287E590E00E94FC11809140
:100C3000290190912A010E946A120E942A0480913F
:100C40002B0190912C010E946A120E942A0460914B
:100C50002101709122018091230190912401209122
:100C6000190130911A0140911B0150911C010E9401
:100C7000AF16C9010E946A1284E590E003CF62E5D5
:100C800071E089ED90E00E94E616892B19F40E942C
:100C90006E0D05CF6DE471E089ED90E00E94E616DF
:100CA000892B31F40E94770D811509F477C0F7CEB6
:100CB00068E471E089ED90E00E94E616892B19F452
:100CC0000E94850DF1CF6FE371E089ED90E00E9405
:100CD000E616892B39F48BE091E00E9459070E94B7
:100CE0002D13DDCE64E371E089ED90E00E94E616FD
:100CF000892B29F489E191E00E948608D0CE6BE22D
:100D000071E089ED90E00E94E616892B41F40E9483
:100D10007F12809166018F7A80936601C0CE64E273
:100D200071E089ED90E00E94E616892B31F481E0B4
:100D300080936E010E943A04B2CE6CE171E089EDBD
:100D400090E00E94E616892B19F410926E01A7CE4E
:100D500044E050E067E171E089ED90E00E94F61612
:100D6000892BF9F460E270E08DED90E00E9411179C
:100D70000097A1F0FC011192CF01BE016F5F7F4F80
:100D80000E94E60A811551F049815A816DED70E0AB
:100D90008BE091E00E94A8078111A1CF81E492E04D
:100DA0004CCE45E050E061E171E089ED90E00E94B9
:100DB000F616892B89F4BE016F5F7F4F8EED90E0B0
:100DC0000E94E60A811551F389819A818930910543
:100DD00028F78093690183CF6CE071E089ED90E0A2
:100DE0000E94E616892B29F585E091E00E94FC110E
:100DF0000E942903682F70E080E090E00E940B12AF
:100E00008DEF90E00E94FC116091490270E080E05B
:100E100090E00E940B1286EF90E00E94FC1160911E
:100E20006F0170E080E090E00E940B1283EF90E091
:100E300029CE6BEE70E089ED90E00E94E616892BDA
:100E400039F481E080936F0188E08093690127CEB7
:100E500062EE70E089ED90E00E94E616892B09F0C1
:100E60009DCF10926F011BCE883011F08F3769F43F
:100E700080910901811509F4C2CD90910A01911167
:100E8000BECD815080930901BACD90EE980F9F3569
:100E900068F4E0910901EF3248F491E09E0F9093DD
:100EA0000901F0E0E752FF4F8083A9CD10930A01BA
:100EB000A6CDDC018EE0E1E6F0E001900D928A958E
:100EC000E1F708950F931F93CF93DF93FC014081C7
:100ED000518157FD36C022813381253F61E03607BD
:100EE00084F5421753076CF586819781893E63E04C
:100EF000960738F5A481B581A817B90710F5C08504
:100F0000D185BE016150710964367105D0F46285E6
:100F100073858B0101501109083C110590F4241BC5
:100F2000350BC217D30768F48A1B9B0B6817790728
:100F300040F4848581508C3320F481E09585923093
:100F400008F080E08170DF91CF911F910F9108959B
:100F50002F923F924F925F926F927F928F929F92C9
:100F6000AF92BF92CF92DF92EF92FF920F931F93B7
:100F7000CF93DF93CDB7DEB762970FB6F894DEBF9D
:100F80000FBECDBF8C016F87788B7A01FC01428048
:100F900053806480758086809780A084B184F285B8
:100FA000F98BFC01F385FA8BFC01C484D5846FE6D0
:100FB00070E08F8598890E941C17892B09F4A2C0C4
:100FC000F8012080318064E770E08F8598890E9465
:100FD0001C17892B09F498C06AE770E08F859889FF
:100FE0000E941C17892BA9F43701F7FC3CC061E96A
:100FF00070E08F8598890E941C17892B09F05AC0D0
:1010000081E0E81AF1089CE3E916F10408F452C003
:101010002AC06FE770E08F8598890E941C17892B82
:1010200011F44701E2CF65E870E08F8598890E944E
:101030001C17892B11F45701D8CF6BE870E08F850E
:1010400098890E941C17892B19F4E98AFA8ACDCF56
:1010500061E970E08F8598890E941C17892BE9F45B
:10106000CE2CF7FECDCF80E062960FB6F894DEBFAF
:101070000FBECDBFDF91CF911F910F91FF90EF90E9
:10108000DF90CF90BF90AF909F908F907F906F90A8
:101090005F904F903F902F90089568E970E08F85A2
:1010A00098890E941C17892BF1F6DE2CF2E0EF16CE
:1010B000F104C8F629823A824B825C826D827E827C
:1010C0008F829886A986BA86E989EB87FA89FC8798
:1010D000CD86DE86CE0101960E946207811519F247
:1010E000F801208231824282538264827582868234
:1010F0009782A086B186998992879A899387C486B8
:10110000D586B2CF170171CF27016FCF26E3FC013F
:1011100011922A95E9F70895FC019B01CA01653FE8
:10112000714008F067C0893E63E0960708F062C02E
:1011300040815181628173814115510561057105BD
:1011400009F059C03787268735872487938B828B90
:10115000918B808BA089B1898A179B0710F4918BA2
:10116000808BA289B389A817B90710F4938B828B5F
:101170004034A2E45A07AFE06A07710500F54F5FFB
:101180005F4F6F4F7F4F40835183628373834481EE
:10119000558166817781420F531F611D711D448304
:1011A0005583668377834085518562857385480FB3
:1011B000591F611D711D4087518762877387A4A9DC
:1011C0004A2F50E0BF016A0F711D6A0F711DDB01CC
:1011D00055963C932E93549795969C938E93949703
:1011E000CA0101968770992784AB85A9883010F4CD
:1011F0008F5F85AB0895A485B5852A173B0710F44A
:1012000035872487A685B785A217B30708F0A2CF34
:10121000378726879FCFCF93DC01D5968C91D597C2
:101220008830E0F1D496CC91D49770E020E030E0A3
:1012300040E050E08C2F870F8770E82FF0E06115B9
:1012400079F07296EE0FFF1FEA0FFB1F80819181EC
:10125000E1E0E70F743030F4480F591F7E2FEACFDA
:101260003A96F0CF280F391F7E2FE83019F780E526
:1012700090E0611102C084E190E0241B350B281737
:10128000390774F444275527481B590B81E042174E
:1012900053070CF480E08195CF91089580E0FCCF56
:1012A00081E0FACFEF92FF920F931F93CF93DC016F
:1012B000FB01BA01A901E084F18480819181CC9184
:1012C000C0FF08C08E0D9F1D21E06817790734F01C
:1012D00020E004C021E086179707D4F30281138130
:1012E000C1FF08C00E191F0991E00617170734F057
:1012F00090E004C091E060177107D4F3990F922B2E
:101300006285738524813581C2FF08C0260F371F8F
:1013100081E04217530734F080E004C081E02417D5
:101320003507D4F3880F880F892B26813781C3FFB7
:1013300008C0261B370B91E02417350734F090E0E6
:1013400004C091E042175307D4F391959870892B0C
:101350008C9311969C911197892311968C93CF9120
:101360001F910F91FF90EF900895FC018081818380
:1013700008959C018FEF9FEF615008F40895F901E3
:101380002191922728E0AC01880F991F57FF04C0D4
:1013900031E2832730E193272A95A9F79F01ECCF0B
:1013A000621B730B840B950B21E0161617061806AB
:1013B00019060CF020E0822F0895CF93DF93EC0103
:1013C000FB01019667E1DC011D926A95E9F765EA88
:1013D000688361E069832A833B834C835D8320813A
:1013E00031813F832E83228133813987288724816D
:1013F00035813B872A87268137813D872C87208549
:1014000031853F872E8722853385398B288B24852C
:101410002A8B25852B8B65E10E94B9099F8B8E8BCA
:10142000DF91CF9108952F923F924F925F926F92EA
:101430007F928F929F92AF92BF92CF92DF92EF9264
:10144000FF920F931F93CF93DF93CDB7DEB76297D1
:101450000FB6F894DEBF0FBECDBF8C017B014F8766
:10146000588BFC018081853AD1F080E062960FB6FE
:10147000F894DEBF0FBECDBFDF91CF911F910F91CA
:10148000FF90EF90DF90CF90BF90AF909F908F90A4
:101490007F906F905F904F903F902F900895818143
:1014A000813019F7C688D78865E1C80101960E9486
:1014B000B9098C159D05C9F6F8012680378040844E
:1014C00051846284738484849584A684B784C0889C
:1014D000D188F289F98BF801F389FA8B29823A8253
:1014E0004B825C826D827E828F829886BA86A986C4
:1014F000DC86CB8689898D87FE87CE0101960E9486
:101500006207811509F4B1CFF801438150E060E032
:1015100070E0762F652F542F44279281492B9481B8
:10152000692B9581792BF701208231824282538287
:101530006482758286829782B186A086D386C286AF
:10154000998994879A899587EF85F8894083518393
:10155000628373838BCFCF93DF93FC01DB01EA01BE
:101560004081818162812381942F980F960F920F81
:10157000348193131FC08A30E8F42A30D8F45AE03B
:1015800030E0569F200D311D1124253F91E0390791
:1015900088F490E0549F800D911D1124893E43E012
:1015A000940740F42D933C939983888381E0DF91E5
:1015B000CF91089580E0FBCFDC01CB01821B930B20
:1015C000A40BB50BB038880B819508958F929F922C
:1015D000AF92BF92CF92DF92EF92FF921F93CF9381
:1015E000DF93EC01FB01888110E08D3211F421962C
:1015F00011E08881811509F442C0812C912C54019D
:10160000C12ED12CE12CF12C4FEFC40E4FE7D41E8C
:10161000E11CF11C4991411116C066277727681912
:101620007909111101C0B4017183608381E0DF91F8
:10163000CF911F91FF90EF90DF90CF90BF90AF9030
:101640009F908F90089520ED240F2A30C0F49401CC
:10165000AAE0B0E00E94D716242F440F330B20538A
:1016600031094901092C000CAA08BB08860E971EF7
:10167000A81EB91EC814D904EA04FB0458F680E079
:10168000D6CFCF93DF93C82FD4B58827C999839538
:101690008C1304C081E0DF91CF9108950E94A811BE
:1016A00084B58D1B843688F380E0F5CFD198D99A24
:1016B0000895D998D19A08959F92AF92BF92CF92F0
:1016C000DF92EF92FF920F931F93CF93DF9300D09F
:1016D00000D00F92CDB7DEB7D82E092FB62EC72E69
:1016E000CE0101967C0185E0F70111928A95E9F718
:1016F000AFB6F894D198D99AFAE1FA95F1F700C00B
:1017000080E00E94410B811116C010E00E94A811D8
:10171000AFBE812F0F900F900F900F900F90DF9121
:10172000CF911F910F91FF90EF90DF90CF90BF90DE
:10173000AF909F90089581E00E94410B811529F39D
:1017400080E00E94410B811501F310E081E00E94CE
:10175000410B8115D1F294B480E00E94410B8115B8
:10176000A1F2E12FE695E695E695EE0DFF2DF11D30
:101770002081220F208384B589198E3210F02160D8
:1017800020831F5F183211F74B2D5C2D6D2D702FAC
:10179000C7010E94AB0A182FB9CF88EE93E006B6B6
:1017A00007FC08C02AE12A95F1F700C00197B9F7B4
:1017B00080E0089581E0089583B984E886BF0E949F
:1017C000CD0B811531F091B1987F81E0983209F00D
:1017D00080E008950F931F93CF938C01C62F84EC64
:1017E000611101C084E886BF0E94CD0B811579F09C
:1017F00021B1287F30E040E550E0C11102C048E54A
:1018000050E02417350739F493B1F8019083CF9154
:101810001F910F91089580E0FACF16BE85B38C7F9B
:1018200085BB84B38C7F84BB89E0A09A9DE09A95A8
:10183000F1F70000A0989DE09A95F1F700008A95D5
:10184000A1F7A19A8DE08A95F1F70000A0989DE09C
:101850009A95F1F70000A1988DE08A95F1F70000C4
:1018600084E086BF089584E986BF88EE93E006B6DB
:1018700004FE0AC02AE12A95F1F700C00197B9F7E2
:101880000E940D0C80E0089581E00895CF93C82F49
:1018900084EA86BF0E94CD0B811102C080E01CC08B
:1018A00081B1887F883021F081B1887F8031B1F7A4
:1018B000C3B984E886BF0E94CD0B811579F321B1AD
:1018C000287F30E040E450E0C0FD02C048E150E035
:1018D00081E02417350711F7CF91089584B38C7FE9
:1018E00084BB85B38C7F85BB11B880E280B984E06E
:1018F00086BF08950F931F93CF93DF93062FD72FA3
:10190000142F880F0E94460CC82F802F9D2FD12F97
:10191000D00FC11511F0D8130FC00E94330C8115E0
:1019200011F0C11103C00E940D0CC0E08C2FDF919B
:10193000CF911F910F910895FC0181918F010E9419
:10194000DC0BC82FC801E5CFEF92FF920F931F93D6
:10195000CF93DF938B01D42F880F81600E94460CB8
:10196000C82FC11511F0D11111C00E94330C81157F
:1019700011F0C11103C00E940D0CC0E08C2FDF914B
:10198000CF911F910F91FF90EF900895D150780162
:101990008FEFE81AF80A61E0D11101C060E0C801D8
:1019A0000E94EA0BC82F8701DCCF95B39F70807F20
:1019B000982B95BB82E08A95F1F700C0979A82E058
:1019C0008A95F1F700C0979882E08A95F1F700C0F8
:1019D0000895CF93C82F611581F0969A95988C2F12
:1019E0000E94D50C8C2F8295807F0E94D50C85E8B3
:1019F0008A95F1F70000CF9108959698EFCF84B3C0
:101A0000806F84BB81B3806E81BB82B38F7182BBD8
:101A10002FEF89EF90E0215080409040E1F700C027
:101A2000000080E30E94D50C8FE097E20197F1F768
:101A300000C0000080E30E94D50C8BE291E001978A
:101A4000F1F700C0000080E30E94D50C8BE291E02A
:101A50000197F1F700C0000080E20E94D50C8BE2F4
:101A600091E00197F1F700C0000060E088E20E9479
:101A7000E90C60E08CE00E94E90C60E086E00E94E6
:101A8000E90C60E081E00E94E90C8FE99FE001979A
:101A9000F1F700C0000008950F931F93CF93DF93D9
:101AA000EB018115B1F080EC60E00E94E90C10E1DF
:101AB00000E0011111C08881811569F0219661E073
:101AC0000E94E90C1A95A9F7DF91CF911F910F9110
:101AD000089580E8E9CF01E080E2F1CF8FE491E062
:101AE0000E94B509809166018093670108958BE09B
:101AF00091E00E94981090916601811521F09F7DE0
:101B00009093660108959062FBCFCF938BE091E0B4
:101B10000E942610C82F90916601811541F09F7D8B
:101B2000909366010E942D138C2FCF91089590629F
:101B300090936601F9CFCDB7DEB76E970FB6F894E4
:101B4000DEBF0FBECDBF0E940E030E949B110E94FC
:101B5000FF0C0E94560B0E946E0C8BE091E00E94DD
:101B600059078BE091E00E942610811105C08091F9
:101B700066018062809366018091490283FF05C0FF
:101B80008091660180648093660189E191E00E9402
:101B9000860881E080936E0110926F010E94D4024A
:101BA0002B013C01A30192012053384F4F4F5F4F4F
:101BB0002D833E834F8358870E94CC0F8D8F0E94C8
:101BC000D4024B015C013D8D311509F4A3C1D5014F
:101BD000C40188539F4FAF4FBF4F89839A83AB8314
:101BE000BC8388E19EE00FB6F894A89581BD0FBE36
:101BF00091BD82ED92E00E94FC110E943A048D8119
:101C00009E81AF81B8858D8B9E8BAF8BB88F498AB3
:101C10005A8A6B8A7C8A4D865E866F86788A498668
:101C20005A866B867C86198E1A8E1B8E1C8E1E8E93
:101C3000812C912C54010E94D4026B017C018C0CEC
:101C40009D1CAE1CBF1C84189508A608B70880917F
:101C5000510190915201A0915301B0915401AC01F6
:101C6000BD014F5F5F4F6F4F7F4F28EE821623E01D
:101C70009206A104B10408F05DC1809351019093D4
:101C80005201A0935301B09354010E94F004C70184
:101C9000B6010E9493030E9430133E8D311121C082
:101CA0002D813E814F815885C701B6010E94DC0A13
:101CB0008E8F811509F44DC00E94590BD701C601C2
:101CC0004496A11DB11D898F9A8FAB8FBC8FA70140
:101CD00096012053384F4F4F5F4F2D833E834F83E4
:101CE0005887298D3A8D4B8D5C8DC701B6010E94B6
:101CF000DC0A811509F438C16BE571E089E591E0F2
:101D00000E945C0B80936A01811509F41CC110923A
:101D10006801809166018E7F8093660140915B012E
:101D200050915C016091590170915A0189E191E0F3
:101D30000E948C0820915B0130915C014091590117
:101D400050915A016BE071E08FE491E00E945209DA
:101D50001E8E2D853E854F855889C701B6010E948C
:101D6000DC0A8115C9F08DE591E00E949C03982F53
:101D700080936D0180916601911509F4F8C0877F09
:101D8000A70196012C503E4F4F4F5F4F2D873E8746
:101D90004F87588B8093660129893A894B895C89E2
:101DA000C701B6010E94DC0A811551F0D701C601B6
:101DB00088519C4FAF4FBF4F898B9A8BAB8BBC8B9D
:101DC00029813A814B815C81C701B6010E94DC0AFE
:101DD000811509F19D8D9111CCC00E94CC0F8D8F82
:101DE000811509F4D2C088EC90E0A0E0B0E09C013D
:101DF000AD012C0D3D1D4E1D5F1D29833A834B8384
:101E00005C838091660190916C01911509F4C0C0CA
:101E10008B7F809366010E947C12811529F080914E
:101E2000660180618093660140916601209167019F
:101E300024232093670180911801811509F4AAC019
:101E40008091500190E08095909560914F0170E0F5
:101E50008623972330E02095309550E024233523C6
:101E60002F743327822B932B009781F0C701B60183
:101E700028EE33E040E050E00E94AF1621E0683CDD
:101E800071058105910508F020E0822F81700E9484
:101E90009B0340916F01C701B6010E94C8032985C9
:101EA0003A854B855C85C701B6010E94DC0A811525
:101EB00061F0D701C60186509F4FAF4FBF4F898752
:101EC0009A87AB87BC870E9492132D893E894F89E0
:101ED000588DC701B6010E94DC0A8115B9F07090D7
:101EE000170180916E0181110E943E04272D30E080
:101EF000A8EEB3E00E94D7169B01AC012C0D3D1D4E
:101F00004E1D5F1D2D8B3E8B4F8B588FA895260144
:101F1000370191CEA501940128573C4E4F4F5F4F9A
:101F200029833A834B835C8380916601846080932C
:101F3000660157CE98EE891A93E0990AA108B10874
:101F4000DB01CA018CCE809168018F3F31F4809112
:101F50006601816080936601FBCE8F5F809368018C
:101F6000833008F4F5CEF3CF31E03E8FF2CE8860B7
:101F700007CF85E591E00E94F60F8D8F80936C016D
:101F8000811519F080ED97E030CF88E893E12DCFEF
:101F900084603FCF80E07ACFCF93DF930F92CDB7AD
:101FA000DEB781E0898341E0BE016F5F7F4F83E24E
:101FB0000E947A0C811105C080E00F90DF91CF91D3
:101FC000089587E0898341E0BE016F5F7F4F83E220
:101FD0000E947A0C811581F380E1898341E0BE0182
:101FE0006F5F7F4F83E20E947A0CE7CFEF92FF9200
:101FF0001F93CF93DF9300D0CDB7DEB77C0142E0D3
:10200000BE016F5F7F4F83E20E94A40C182F8115E1
:10201000A1F029813A81322723273227A5E0B0E0B9
:102020000E94D71626E030E040E050E00E94AF1654
:10203000F7012083318342835383812F0F900F90C8
:10204000DF91CF911F91FF90EF900895BF92CF92B3
:10205000DF92EF92FF920F931F93CF93DF93CDB751
:10206000DEB7AA970FB6F894DEBF0FBECDBFE82E3D
:10207000B92E80E0C82E80E0D82EF12C00E048E197
:1020800050E0B601CE0101960E94E619AE01495D0D
:102090005F4FBE01675E7F4FCE0101960E94130A1B
:1020A000182F8115D1F0011132C08EE0FE01799612
:1020B000AE2DBB2D01900D928A95E1F78FA198A5C9
:1020C000A9A5BAA58093700190937101A0937201A4
:1020D000B0937301F0926000012F81E08F0D98E1C1
:1020E000C90ED11CFF24F394823049F6802FAA96A2
:1020F0000FB6F894DEBF0FBECDBFDF91CF911F9119
:102100000F91FF90EF90DF90CF90BF9008952091B6
:1021100070013091710140917201509173016FA172
:1021200078A589A59AA50E94D0098111BECFD4CFE8
:10213000DF92EF92FF920F931F93CF93DF93CDB770
:10214000DEB7C254D1090FB6F894DEBF0FBECDBFC3
:102150008C010E946207811110C080E0CE5BDF4FCE
:102160000FB6F894DEBF0FBECDBFDF91CF911F91A8
:102170000F91FF90EF90DF900895D090600081E084
:10218000D8268091700190917101A0917201B09157
:1021900073019C01AD012F5F3F4F4F4F5F4FB8015F
:1021A000CE0149960E94DD0988E1D89E8001112464
:1021B0000050104060E0C8010E94F619EE24E3943C
:1021C000F12CFE017996EE0DFF1D6081C8018E0D88
:1021D0009F1D0E94F6198FEFE81AF80A88E1E816A9
:1021E000F10479F7698DC8010E94F61948E150E0C1
:1021F000B801CE0101960E94E61948E150E0BE0107
:10220000675E7F4FCE0101960E940417892B09F06B
:10221000A4CFAE01415C5F4FBE016F5C7F4FCE012A
:1022200001960E94130A811509F497CF23960CADED
:102230001DAD2EAD3FAD23974091700150917101BE
:1022400060917201709173014F5F5F4F6F4F7F4FCD
:10225000401751076207730709F07FCFD0926000E3
:1022600040937001509371016093720170937301F8
:1022700075CF8BB19CB18C71811531F081E0809369
:102280003402809335020895809139028F5F8F73F5
:1022900020913802281791F3E0913902F0E0EC50D8
:1022A000FE4F90838093390208951F920F920FB6CC
:1022B0000F9211242F933F934F935F936F937F93CC
:1022C0008F939F93AF93BF93EF93FF930E94391126
:1022D000FF91EF91BF91AF919F918F917F916F91FE
:1022E0005F914F913F912F910F900FBE0F901F90D4
:1022F00018958F938FB78F939F93EF93FF93909140
:10230000370280913602981308C05598FF91EF91DB
:102310009F918F918FBF8F911895E0913602F0E0D9
:10232000EC58FE4F80818CB9809136028F5F8F7799
:1023300080933602EBCF889882B3836082BB10BC57
:1023400083E389B91BB886E880BD88E98AB9089516
:102350005F990C9439110895DC01909139028091B4
:102360003802981779F0E0913802F0E0EC50FE4F17
:1023700080818C93809138028F5F8F7380933802B5
:1023800081E0089580E00895CF92DF92EF92FF926E
:10239000CF93DF93D82FC0913702CF5FCF770E94C2
:1023A000D4026B5F7F4F8F4F9F4F6B017C018091F9
:1023B00036028C1771F0E0913702F0E0EC58FE4FD6
:1023C000D0838FB7F894C0933702559A8FBF81E0BE
:1023D0000CC00E94D402A70196010E94DC0A81155C
:1023E00031F381E08093350280E0DF91CF91FF905F
:1023F000EF90DF90CF900895CF93DF93EC01FE0133
:102400008491811529F00E94C41121968111F7CF82
:10241000DF91CF9108954F925F926F927F929F923A
:10242000AF92BF92CF92DF92EF92FF920F931F93E2
:10243000CF93DF93CDB7DEB72A970FB6F894DEBF00
:102440000FBECDBF962EA72EB82E092F10E08AE022
:10245000482E512C612C712C692D7A2D8B2D902FAB
:10246000A30192010E94AF16FE013196E10FF11D0A
:102470001F5F605D6083C92CDA2CEB2CF02E922E4E
:10248000A32EB42E052F8AE0C816D104E104F1046E
:1024900018F7111116C02A960FB6F894DEBF0FBEBA
:1024A000CDBFDF91CF911F910F91FF90EF90DF9003
:1024B000CF90BF90AF909F907F906F905F904F9024
:1024C00008951150FE013196E10FF11D80810E94A7
:1024D000C411DFCFCF936AE070E00E948716C82F47
:1024E00080E090E00E940B128EE20E94C41180E313
:1024F0008C0FCF910C94C4118091350208958FB741
:10250000F894109235028FBF08958FB7F894909188
:102510003402109234028FBF81E0911101C080E03B
:102520000895E0914802E150E83050F5F0E0E05CB9
:10253000F54E0C94D11680913A0290913B02089589
:1025400080913C0290913D02089580913E029091CD
:102550003F02089580914002909141020895809138
:102560004202909143020895809144029091450265
:1025700008958091460290E0089580914702FBCF34
:1025800080E090E00895EF92FF921F93CF93DF9346
:10259000CDB7DEB72E970FB6F894DEBF0FBECDBF16
:1025A000182F8EE0EAE3F2E09E012F5F3F4F7901A2
:1025B000D90101900D928A95E1F70E9491129C0138
:1025C000E09148024AE050E0E53010F041E050E090
:1025D0001403C001159F900D1124820F931F97FDC6
:1025E00017C0E150E830A0F4F0E0E85BF54E0C9441
:1025F000D1169A838983C7010E946207811541F031
:102600008EE0F701AAE3B2E001900D928A95E1F71E
:102610002E960FB6F894DEBF0FBECDBFDF91CF91DF
:102620001F91FF90EF9008959C838B83E4CF9E834E
:102630008D83E1CF98878F83DECF9A878987DBCF21
:102640009C878B87D8CF8D33910514F78D87D3CF97
:1026500082309105ECF68E87CECF10924802089515
:10266000CF93C82F83FF0AC00E946E0D809148024D
:10267000811541F110924802CF910895809148024E
:10268000811501F1C0FF03C081E00E94C312C1FFA8
:1026900003C08FEF0E94C312C2FFEECF80914802A9
:1026A000893061F48EE0EAE3F2E0ABE0B1E0019062
:1026B0000D928A95E1F70E94770DDCCF8F5F8093B2
:1026C0004802DACFC0FF0AC08091690190E001960C
:1026D00069E070E00E949B1680936901C1FF0AC007
:1026E0008091690190E0089669E070E00E949B1675
:1026F00080936901C2FFC0CF80916901883039F4AD
:1027000080916F0191E0892780936F01B5CF8EE0B2
:10271000EBE0F1E0AAE3B2E001900D928A95E1F7D7
:1027200081E0CDCF8F929F92AF92BF92CF92DF92F6
:10273000EF92FF920F931F93CF93DF93CDB7DEB746
:1027400069970FB6F894DEBF0FBECDBFE091480287
:10275000E11509F468C0E930E1F46EE970E080E069
:102760000E944C0D6EEA70E081E069960FB6F89415
:10277000DEBF0FBECDBFDF91CF911F910F91FF90B4
:10278000EF90DF90CF90BF90AF909F908F900C9480
:102790004C0DE1506BE774E0E73038F4F0E0EE0FF9
:1027A000FF1FE754FF4F608171818E010E5E1F4F46
:1027B000C8010E94EF160E9491129F938F931F935E
:1027C0000F9385E794E09F938F931F9281E18F93FE
:1027D000015111091F930F930E942517B80180E042
:1027E0000E944C0D64E674E0C8010E94EF16B80127
:1027F00081E00E944C0D0FB6F894DEBF0FBECDBF36
:1028000069960FB6F894DEBF0FBECDBFDF91CF91B2
:102810001F910F91FF90EF90DF90CF90BF90AF90FE
:102820009F908F900895F09069018E010F5F1F4F68
:1028300098E0F91608F038C2EF2DF0E0E05BF54EB5
:102840000C94D11680916A01811509F446C08091DB
:102850005B0190915C012AE030E0B9010E9487168B
:10286000462FE72FF82FF92E8091590190915A01A8
:10287000B9010E948716FF92FF93EF934F939F93A6
:102880008F937F936F9383E594E09F938F931F9231
:1028900081E18F931F930F930E9425170FB6F89431
:1028A000DEBF0FBECDBFB80180E00E944C0D80910D
:1028B00066011F928F93809150011F928F93809198
:1028C0004F011F928F9380E394E09F938F931F9209
:1028D00081E18F931F930F9352C165E474E0C801A7
:1028E0000E94EF16E0CF92E0F91227C0E091290193
:1028F000F0912A0180912B0190912C0140911901B6
:1029000050911A0160911B0170911C01452B462BBF
:10291000472BE1F461E274E0C8010E94EF16B801B0
:1029200080E00E944C0D62E174E0C8010E94EF1645
:10293000B80181E00E944C0D63CFE0912501F09138
:1029400026018091270190912801D8CF2AE030E01C
:10295000B9010E948716462FE72ED82EC92ECF0127
:10296000B9010E94871622E0F21251C028E4CF92EA
:10297000DF92EF924F939F938F937F936F931F926A
:102980002F9383E094E09F938F931F9281E18F9325
:102990001F930F930E942517B80180E00E944C0DF1
:1029A0000FB6F894DEBF0FBECDBF92E0F91231C072
:1029B0006091210170912201809123019091240165
:1029C000F0901901E0901A01D0901B01C0901C01F9
:1029D0002F2D3E2D4D2D5C2D0E94AF16C9016AE0B2
:1029E00070E00E948716CF92DF92EF92FF929F9342
:1029F0008F937F936F9385EF93E09F938F931F92B5
:102A000081E18F931F930F930E942517BAC024E58D
:102A1000AECF60911D0170911E0180911F019091B8
:102A20002001CECF80914E011F928F9383EE93E0D1
:102A30009F938F931F9281E18F931F930F930E9417
:102A40002517B80180E00E944C0D0FB6F894DEBF48
:102A50000FBECDBF80916A0167ED73E0811509F467
:102A600064CF60E089E191E00E940B09F82E61E0FB
:102A700089E191E00E940B099BE2181624F09DE287
:102A8000811101C09DE38BE21F1424F08DE2F1104F
:102A900001C08DE31F929F931F928F9387EC93E069
:102AA0009F938F931F9281E18F931F930F930E94A7
:102AB000251767C0C0905101D0905201E09053019A
:102AC000F09054012CE3822E912CA12CB12CC70143
:102AD000B601A50194010E94AF16CA01B901A50172
:102AE00094010E94AF169F938F937F936F93C701BA
:102AF000B60120E13EE040E050E00E94AF16CA017E
:102B0000B90128E130E040E050E00E94AF169F9309
:102B10008F937F936F93C701B60120E831E541E0C1
:102B200050E00E94AF165F934F933F932F9383EB38
:102B300093E09F938F931F9231E1F32EFF921F93A7
:102B40000F930E942517B80180E00E944C0D8091E0
:102B500049021F928F93809154018F93809153016A
:102B60008F93809152018F93809151018F9383EACB
:102B700093E09F938F931F92FF921F930F930E9456
:102B800025170FB6F894DEBF0FBECDBFD1CE63E9D7
:102B900073E0C8010E94EF16B80180E00E944C0D5E
:102BA00080916D018115C9F0F0905D01E0905E01AA
:102BB0002F2D3E2DA8E8B3E10E94D7162FEF33E06A
:102BC00040E050E00E94AF165F934F933F932F93E6
:102BD000EF92FF9286E893E078CE6CE773E0A5CEA3
:102BE00080916B018115A9F1809161011F928F93F2
:102BF000809160011F928F9380915F011F928F934C
:102C00008BE693E09F938F931F9291E1F92EFF92B1
:102C10001F930F930E942517B80180E00E944C0D6E
:102C2000809165011F928F93809164011F928F9311
:102C3000809163011F928F93809162011F928F9305
:102C400088E593E09F938F931F92FF921F930F93BA
:102C5000DBCE6DE473E0C8010E94EF16B80180E09E
:102C60000E944C0D60E473E060CE63E373E0C80142
:102C70000E94EF16B80180E00E944C0D80916C011B
:102C8000811579F0809158018F93809157018F932E
:102C9000809156018F93809155018F938BE293E041
:102CA000FFCE6FE173E041CE0E9429031F928F9304
:102CB00080916F011F928F9380E193E09F938F9398
:102CC0001F9281E1F82EFF921F930F930E94251708
:102CD000B80180E00E944C0D809166011F928F9395
:102CE00081E093E09F938F931F92FF921F930F9326
:102CF0000E94251746CF992778E0880F991F9617CD
:102D000008F0961B881F7A95C9F780950895AA1B2D
:102D1000BB1B51E107C0AA1FBB1FA617B70710F0C6
:102D2000A61BB70B881F991F5A95A9F780959095F8
:102D3000BC01CD01089597FB072E16F4009407D02F
:102D400077FD09D00E94871607FC05D03EF49095C8
:102D500081959F4F0895709561957F4F0895A1E2E9
:102D60001A2EAA1BBB1BFD010DC0AA1FBB1FEE1F05
:102D7000FF1FA217B307E407F50720F0A21BB30B50
:102D8000E40BF50B661F771F881F991F1A9469F7CC
:102D900060957095809590959B01AC01BD01CF0128
:102DA0000895EE0FFF1F0590F491E02D0994A29F66
:102DB000B001B39FC001A39F700D811D1124911D0F
:102DC000B29F700D811D1124911D0895FB01DC013E
:102DD0008D91059080190110D9F3990B0895FB018D
:102DE000DC0105900D920020E1F70895FB01DC0164
:102DF0004150504030F08D910590801919F4002019
:102E0000B9F7881B990B0895FB01DC0104C08D9173
:102E10000190801921F441505040C8F7881B990B4C
:102E20000895FC018191861721F08823D9F799270D
:102E300008953197CF010895FB01DC018D91019038
:102E400080190110D9F3990B0895AEE0B0E0EBE2E0
:102E5000F7E10C94151A0D891E898EE08C831A8374
:102E600009838F89988D813020E8920710F080E0E7
:102E700090E801979E838D83AE01455E5F4F698D1B
:102E80007A8DCE0101960E9457174D815E8157FDC4
:102E90000AC02F813885421753070CF49A01020F9C
:102EA000131FF80110822E96E4E00C94311AABE067
:102EB000B0E0EDE5F7E10C940A1A6C017B018A01A0
:102EC000FC0117821682838181FFD9C19AE0592EB5
:102ED000F6012381F70123FD859123FF81917F0175
:102EE000811509F41FC1853239F423FD959123FF23
:102EF00091917F01953229F4B60190E00E94581912
:102F0000E7CF30E0912C612C712CF0E27F1640F578
:102F10009B32D9F058F49032D1F09332F1F09E32D6
:102F200099F576FCFFC0689476F806C09D3291F062
:102F30009033C1F4689470F8F70123FD959123FF55
:102F400091917F019111E1CF29C0689471F8689443
:102F500072F8F2CF689473F8EFCF689474F8ECCFFE
:102F600077FC1CC080ED890F8A30C8F676FE05C05C
:102F7000959C800D1124982EDFCF659C800D112427
:102F8000682E689475F8D8CF9C3619F4689477F851
:102F9000D3CF9C3409F44BC0983671F2892F8F7DC2
:102FA0008554833008F445C0933609F466C09337DE
:102FB00009F469C0933509F475C0943619F099364F
:102FC00009F09FC0F80177FE95C0619171918191E0
:102FD00091918F01272D2F76822E97FF09C0909512
:102FE0008095709561957F4F8F4F9F4F689487F8BC
:102FF0002AE030E0AE014F5F5F4F5A010E9488190E
:103000008A19A82E86FEC4C0882D8E7FA91408F0C8
:10301000BEC084FE11C182FC05C1F82DFE7E8F2E3C
:10302000B92C882D8678811509F4BFC000C131E024
:1030300083CF3115F9F0085F1F4F8FE38983882410
:103040008394912CAE014F5F5F4F5A01E89477F85B
:1030500073FC03C086149104B0F181149104D1F57E
:10306000611409F435CFB60180E290E00E9458194E
:103070006A94F6CF0C5F1F4FE0CFF80180818983FF
:103080000E5F1F4FDCCFF801A190B1908F01692D29
:1030900070E076FC02C06FEF7FEFC5010E944D1912
:1030A0004C01D4CFF801A190B1908F01692D70E04F
:1030B00076FC02C06FEF7FEFC5010E9442194C0100
:1030C000689477F8C5CFB60180E290E00E94581965
:1030D0006A94C0CFF50177FC859177FE81915F01FD
:1030E000B60190E00E94581961106A94F1E08F1ABD
:1030F0009108B3CF61917191072E000C880B990B49
:1031000068CF872CE89484F82AE030E0953739F1CD
:10311000572D597F852E903799F058F49835A9F09E
:103120009F36D9F0F601868197812B96EFE00C94BB
:10313000261A9837B9F774FC05C020E130E00FC0BB
:10314000689484F8689482F8F8CF74FE03C0872DE1
:103150008660882E20E132E002C028E030E0F801ED
:1031600087FE10C061917191819191918F01FE0153
:1031700031965F01AF010E9488198A19A82EE89440
:1031800087F840CF6191719180E090E0EFCF882E79
:10319000BA2C84FE46CFFE01EA0DF11D80818033FA
:1031A00009F043C0282D297E822E83FC0EC080FEAC
:1031B0004FC09A2CB61418F4960C9B18B62C862D7A
:1031C0008B196B1408F480E0B80EB61408F042C0F6
:1031D0006B1884FE41C0B60180E390E00E9458194C
:1031E00082FE09C088E590E081FC02C088E790E09B
:1031F000B6010E945819A914D8F1AA94B12C4FEF26
:10320000A41AB40ACE0101964C01A80EB91EF5010C
:1032100082915F01B60190E00E9458198A149B04C4
:10322000B1F71ECFB92C882EB6CF82FC02C0B39462
:10323000BCCFB394B394B9CFB92C882EF2CEB601DB
:1032400080E290E00E94581973947614C0F3B7CFCF
:103250007B2CFBCF612CBDCF882D8678811559F250
:1032600080E281FC8BE287FC8DE2B60190E0C1CF69
:10327000B60180E390E00E9458199A94BCCF8FEF7A
:103280009FEF53CFFC010590615070400110D8F7BB
:10329000809590958E0F9F1F0895FC01615070409E
:1032A00001900110D8F7809590958E0F9F1F08957B
:1032B0000F931F93CF93DF93182F092FEB018B816F
:1032C00081FD09C01FEF0FEF812F902FDF91CF916C
:1032D0001F910F91089582FF14C02E813F818C8130
:1032E0009D81281739073CF4E881F981CF010196C7
:1032F0009983888310838E819F8101969F838E831B
:10330000E3CFE885F985812F0995892BA1F3DACFE1
:10331000FA01AA27283051F1203181F1E8946F9306
:103320006E7F6E5F7F4F8F4F9F4FAF4FB1E03ED0AC
:10333000B4E03CD0670F781F891F9A1FA11D680F4A
:10334000791F8A1F911DA11D6A0F711D811D911D7D
:10335000A11D20D009F468943F912AE0269F1124F2
:103360003019305D3193DEF6CF010895462F477056
:10337000405D4193B3E00FD0C9F7F6CF462F4F70B1
:10338000405D4A3318F0495D31FD4052419302D00F
:10339000A9F7EACFB4E0A6959795879577956795B5
:1033A000BA95C9F700976105710508959B01AC01B5
:1033B0000A2E06945795479537952795BA95C9F7DC
:1033C000620F731F841F951FA01D0895DC01CB01A0
:1033D000FC01E199FECF06C0FFBBEEBBE09A31963F
:1033E0000DB20D9241505040B8F70895262FE19943
:1033F000FECF9FBB8EBBE09A01970DB2021631F053
:103400002DBB0FB6F894E29AE19A0FBE08952F9261
:103410003F924F925F926F927F928F929F92AF9264
:10342000BF92CF92DF92EF92FF920F931F93CF93B1
:10343000DF93CDB7DEB7CA1BDB0B0FB6F894DEBF48
:103440000FBECDBF09942A88398848885F846E846E
:103450007D848C849B84AA84B984C884DF80EE80B8
:10346000FD800C811B81AA81B981CE0FD11D0FB6C1
:10347000F894DEBF0FBECDBFED010895F894FFCFE5
:103480009B12A012A512AA12AF12B412B912BD1249
:10349000F912141317131A131D13201323132813CF
:1034A00022147314731412155A15C715F015351616
:1034B00001B4005E012C0120030A001E0002015429
:1034C0004C4F5700544849474800484C4F57004814
:1034D00048494748005448595354004848595354A0
:1034E0000043535653454300534F554E44005345F4
:1034F0005420736176652026206578697400414305
:103500004B2063616E63656C00A5049F049A04946C
:08351000048E0488048104000C
:00000001FF
