:100000000C946D020C9496020C9496020C94960239
:100010000C9496020C9496020C9448030C9496024D
:100020000C9498020C9496020C9496020C94151160
:100030000C9439110C9496020C9496020C9496022E
:100040000C9496020C9496020C9496020C949602D0
:100050000C9496024D12521257125C1261126612E3
:100060006B126E12AE12B112B412B712BA12BD12E6
:10007000C012C512BA13001400149614D9143F15F7
:100080007115B8150D0A000D0A232048206D696E00
:100090002C6D61782C6176673D00232054206D69BA
:1000A0006E2C6D61782C6176673D0023206E6F2089
:1000B00076616C69642073616D706C65730D0A0004
:1000C0000D0A002320636F756E743D000D0A002039
:1000D000534F554E443D00204353565345433D0036
:1000E0002048485953543D000D0A23205448595381
:1000F000543D002048484947483D0020484C4F5750
:100100003D002054484947483D002320544C4F5758
:100110003D0044494147204F46460044494147205D
:100120004F4E000D0A00204C4544533D00205245DF
:100130005345543D0023204B45593D004449414718
:10014000005041474520005345542000435356205A
:100150004F464600435356204F4E00434C454152B4
:100160004552520052455345545354415453004450
:10017000454641554C5453004C4F41440053415661
:10018000450041434B00535441545300434F4E46A6
:10019000494700535441545553002320525443209F
:1001A00059592D4D4D2D44442048483A4D4D3A5310
:1001B0005320573D312E2E372028323030302E2E0E
:1001C00032303939290D0A0023205041474520306B
:1001D0002E2E383B2044494147204F4E7C4F464607
:1001E0003B20434C4541524552520D0A00232043C7
:1001F0005356204F4E7C4F46463B20534554205487
:100200004C4F577C54484947487C484C4F577C4892
:10021000484947487C54485953547C48485953549A
:100220007C4353565345437C534F554E44206E0DEB
:100230000A00232053544154555320434F4E4649FE
:10024000472053544154532041434B20534156457A
:10025000204C4F41442044454641554C5453205274
:100260004553455453544154530D0A0048454C508E
:1002700000232045525220636F6D6D616E642F76AE
:10028000616C75652F6D6F64756C650D0A002320B8
:100290004F4B0D0A002320455252206C696E652099
:1002A0006469736361726465640D0A000D0A00324B
:1002B0003000757074696D655F732C74656D705F67
:1002C000632C68756D69646974795F7063742C74EC
:1002D0005F7472656E642C685F7472656E642C6105
:1002E0006C61726D2C61636B2C6572726F72732C12
:1002F0006164635F7261772C6C75782C7274630D26
:100300000A00232041546D6567613136206D6F6EA0
:1003100069746F72204320384D487A3B2048454C21
:100320005020666F7220636F6D6D616E64730D0A8D
:1003300000534554204C454420453A25303258005E
:10034000444941473A2575204B45593A2558004CB8
:1003500069676874206572726F7200256C75206C15
:100360007578004C69676874204248313735300031
:100370005254432064697361626C65640052544353
:100380002044533332333100253032753A25303230
:10039000753A2530327520572575003230253032B8
:1003A000752D253032752D2530327500414443209E
:1003B0006572726F7200257520256C756D56204030
:1003C0003556005652312041444330202F204156AB
:1003D000434300256C75732052455345543A2530EC
:1003E000325800555020256C7564202530326C75CC
:1003F0003A2530326C7500543A256320483A25631B
:1004000020282B757029005472656E642073746106
:100410006C65005472656E642077696E646F772036
:1004200025752F380041564725752E2575204E25F8
:100430006C750025632025752E25752D25752E25B7
:1004400075005761697420666F72204448543131D9
:100450000053746174733A206E6F2064617461009C
:10046000413A253032582041434B3A255820453AED
:1004700025303258004448543131206E6F20646179
:100480007461005425752E257543204825752E2549
:100490007525250055502F444E205345543E20418C
:1004A000434B20580025733D257500534F554E444E
:1004B0000043535653454300484859535400544849
:1004C00059535400484849474800484C4F57005436
:1004D0004849474800544C4F570011241FBECFE5F0
:1004E000D4E0DEBFCDBF84B78093490214BE0FB6FF
:1004F000F894A89581B5886181BD11BC0FBE10E04C
:10050000A0E6B0E0EAEEF3E302C005900D92A83C4D
:10051000B107D9F722E0A8ECB0E001C01D92A934E0
:10052000B207E1F70E94470D0C94F3190C940000F8
:100530001F920F920FB60F9211242F938F939F93B8
:10054000AF93BF938091D5009091D600A091D70032
:10055000B091D8008F5B9F4FAF4FBF4F8093D500B6
:100560009093D600A093D700B093D8008091D30089
:100570009091D400885E9D4F9093D4008093D300D7
:100580008091D3009091D400883E9340E8F0809110
:10059000D3009091D400885E93409093D4008093D0
:1005A000D3008091D5009091D600A091D700B09152
:1005B000D8000196A11DB11D8093D5009093D6005F
:1005C000A093D700B093D800BF91AF919F918F9126
:1005D0002F910F900FBE0F901F901895CF92DF9222
:1005E000EF92FF928FB7F894C090D500D090D600CC
:1005F000E090D700F090D8002091D3003091D40043
:100600006CB57DB508B602FE09C06CB57DB591E448
:10061000C90ED11CE11CF11C285E3D4F8FBFCB01E0
:10062000A0E0B0E0BC01CD01620F731F811D911DE0
:1006300028EE33E040E050E00E945916CA01B901AB
:100640006C0D7D1D8E1D9F1DFF90EF90DF90CF9054
:100650000895F89484B7806884BF84BF87B3807F8F
:1006600087BB88B38F6088BB1FBC82E08EBD1DBC7A
:100670001CBC20E137E23BBD2ABD94E198BF99BF85
:1006800085BD14BC7894089586B380958F700895C5
:100690001F920F920FB60F9211242F933F934F93F7
:1006A0005F936F937F938F939F93AF93BF93EF93DA
:1006B000FF938AB59BB5805F984D9BBD8ABD0E9414
:1006C00044039091CD00EEECF0E040E050E0A1E07A
:1006D000B0E09D01042E01C0220F0A94EAF7682FB2
:1006E000622329F06081633038F46F5F04C0608159
:1006F000662311F0615060836191633051F4692F7A
:10070000622359F4922B3091D200232B2093D200F4
:1007100004C0611102C0209592234F5F5F4F4430A7
:100720005105B9F69093CD00FF91EF91BF91AF9134
:100730009F918F917F916F915F914F913F912F91F9
:100740000F900FBE0F901F9018959FB7F89480914F
:10075000D2001092D2009FBF08950895CF92DF92E9
:10076000EF92FF92CF93DF93EC0180E487B986E8A4
:1007700086B9369A0E94EE026B017C0125E0C20E1A
:10078000D11CE11CF11C369B0AC00E94EE02A7019D
:1007900096010E94900A8823B1F380E005C084B1DD
:1007A00095B19983888381E0DF91CF91FF90EF909D
:1007B000DF90CF900895CF92DF92EF92FF92411198
:1007C00006C081B3837E81BB82B3837E39C06B0157
:1007D0007C0181B38C6181BB2091C9003091CA003A
:1007E0004091CB005091CC00C701B6010E94900A05
:1007F000882339F18CE2C80E81E0D81EE11CF11C7F
:10080000C092C900D092CA00E092CB00F092CC0016
:100810008091C80090E001966AE070E00E94451661
:100820008093C80022B3382F377081E090E001C078
:10083000880F3A95EAF780958C71922F937E892BD9
:1008400082BBFF90EF90DF90CF900895CF93C82F99
:1008500087FF03C08DE20E9485116C2FCC0F770BB0
:1008600077FF03C0719561957109072E000C880B05
:10087000990BCF910C94CD118CE20C948511CF93F0
:100880006AE00E942516C92F805D0E94851180E3D1
:100890008C0FCF910C94851182EB92E00C94BE11D9
:1008A00060912A0270912B0280912C0290912D026E
:1008B0000E94CD110E943C0480914302882331F0B4
:1008C00080913202909133020E9419120E943C04DE
:1008D00080914302882331F0809134029091350257
:1008E0000E9419120E943C0480914302882359F00F
:1008F00080912702883039F460E082EF91E00E9415
:10090000E1080E9426040E943C048091430288234F
:1009100059F080912702883039F461E082EF91E04C
:100920000E94E1080E9426040E943C046091280273
:1009300070E080E090E00E94CD110E943C04609144
:10094000290270E080E090E00E94CD110E943C04FA
:1009500060913F0270E080E090E00E94CD110E9423
:100960003C0480914602882341F0609136027091E8
:10097000370280E090E00E94CD110E943C048091FB
:100980004502882351F060912E0270912F028091D0
:100990003002909131020E94CD110E943C0480915E
:1009A0004402882359F18FEA92E00E94BE1180919F
:1009B00038020E943F048DE20E9485118091390225
:1009C0000E943F048DE20E94851180913A020E94AC
:1009D0003F0484E50E94851180913B020E943F0400
:1009E0008AE30E94851180913C020E943F048AE3C1
:1009F0000E94851180913D020E943F048CEA92E0A2
:100A00000C94BE11FF920F931F93CF93DF9300D0EE
:100A10001F92CDB7DEB70E943412882319F081E00F
:100A200080930A0101E088E0F82ECE0103960E942F
:100A30006D11882309F455C20E943412811100936C
:100A40000A018B818D3019F08A3009F022C2809121
:100A50000A01882319F085E992E014C2E0910901A6
:100A6000EE2309F411C2F0E0E752FF4F10826CE66A
:100A700072E089ED90E00E949B16892B79F482E365
:100A800092E00E94BE118DEE91E00E94BE1188ECB2
:100A900091E00E94BE118AE991E0D5C163E971E05D
:100AA00089ED90E00E949B16892B19F40E94500456
:100AB00015C26CE871E089ED90E00E949B16892BCD
:100AC00009F065C08AE091E00E94BE116091E401E6
:100AD0007091E501072E000C880B990B0E94CD1137
:100AE00082E091E00E94BE116091E6017091E70101
:100AF000072E000C880B990B0E94CD118BEF90E014
:100B00000E94BE116091E8017091E90180E090E0DF
:100B10000E94CD1183EF90E00E94BE116091EA0126
:100B20007091EB0180E090E00E94CD1188EE90E0A2
:100B30000E94BE116091EC017091ED0180E090E0A7
:100B40000E94CD1180EE90E00E94BE116091EE01F6
:100B50007091EF0180E090E00E94CD1187ED90E070
:100B60000E94BE116091F00170E080E090E00E9470
:100B7000CD118FEC90E00E94BE116091F10170E008
:100B800080E090E00E94CD118CEC90E05CC166E8C2
:100B900071E089ED90E00E949B16892B09F076C0E8
:100BA00083EC90E00E94BE116091F2017091F3011C
:100BB0008091F4019091F5010E94CD1180EC90E0BC
:100BC0000E94BE118091F2019091F301A091F40175
:100BD000B091F501892B8A2B8B2B19F48BEA90E0CD
:100BE00032C18AE990E00E94BE118091FE0190918D
:100BF000FF010E9419120E943C0480910002909112
:100C000001020E9419120E943C046091F601709149
:100C1000F7018091F8019091F9012091F201309152
:100C2000F3014091F4015091F5010E945916C90158
:100C30000E94191287E890E00E94BE118091020282
:100C4000909103020E9419120E943C0480910402B8
:100C5000909105020E9419120E943C046091FA01D1
:100C60007091FB018091FC019091FD012091F201B6
:100C70003091F3014091F4015091F5010E94591611
:100C8000C9010E94191284E890E0DDC062E871E0B9
:100C900089ED90E00E949B16892B19F40E941A0D91
:100CA0001DC16DE771E089ED90E00E949B16892BD4
:100CB00019F40E94230DE2C068E771E089ED90E02D
:100CC0000E949B16892B19F40E94310DD7C06FE644
:100CD00071E089ED90E00E949B16892B39F484EE37
:100CE00091E00E947A070E94E212F8C064E671E087
:100CF00089ED90E00E949B16892B29F482EF91E008
:100D00000E946508EBC06BE571E089ED90E00E9400
:100D10009B16892B41F40E942E1280913F028F7AFC
:100D200080933F02DBC064E571E089ED90E00E94B2
:100D30009B16892B29F4009347020E944C04CEC0D5
:100D40006CE471E089ED90E00E949B16892B19F408
:100D500010924702C3C044E050E067E471E089EDBF
:100D600090E00E94AB16892B09F560E270E08DEDF2
:100D700090E00E94C616009709F482C0FC0111920F
:100D8000CF01BE016F5F7F4F0E94A10A882309F443
:100D900077C049815A816DED70E084EE91E00E9448
:100DA000CC07182F882309F46BC01BC045E050E026
:100DB00061E471E089ED90E00E94AB16892BB9F4F3
:100DC000BE016F5F7F4F8EED90E00E94A10A182F49
:100DD000882359F089819A818930910528F480937C
:100DE00042020E94E21201C010E0812F47C06CE372
:100DF00071E089ED90E00E949B16892B39F585E31F
:100E000091E00E94BE110E944403682F70E080E0D0
:100E100090E00E94CD118DE291E00E94BE116091A0
:100E2000490270E080E090E00E94CD1186E291E0FE
:100E30000E94BE116091480270E080E090E00E9444
:100E4000CD1183E291E00E94BE1148C06BE171E0D8
:100E500089ED90E00E949B16892B29F400934802AB
:100E6000F09242023BC062E171E089ED90E00E94A5
:100E70009B16892B29F41092480230C081112EC094
:100E800081E792E00E94BE111092090110920A01BE
:100E9000CCCD883011F08F3769F480910901882317
:100EA00009F4C3CD90910A019111BFCD8150809377
:100EB0000901BBCD90EE980F9F3568F4E0910901D0
:100EC000EF3248F491E09E0F90930901F0E0E75271
:100ED000FF4F8083AACD00930A01A7CD8EE892E050
:100EE000D1CF0F900F900F90DF91CF911F910F9165
:100EF000FF900895DC019EE0E1E6F0E001900D92A4
:100F00009A95E1F708950F931F93CF93DF93FC0118
:100F10004081518157FD39C022813381253F61E0F5
:100F200036079CF54217530784F586819781893EE1
:100F300063E0960750F5A481B581A817B90728F595
:100F4000C085D185BE016150710964367105E8F430
:100F5000628573858B0101501109083C1105A8F4C5
:100F6000241B350BC217D30780F48A1B9B0B681711
:100F7000790758F4848581508C3338F491E0858565
:100F8000823008F090E0892F01C080E08170DF910D
:100F9000CF911F910F910895CF92DF92EF92FF9220
:100FA0000F931F93CF93DF93CDB7DEB72E970FB676
:100FB000F894DEBF0FBECDBF6C017B018A018EE0CD
:100FC000F601DE01119601900D928A95E1F76FE628
:100FD00070E0C7010E94D116892B19F41A83098386
:100FE00049C064E770E0C7010E94D116892B19F44B
:100FF0001C830B833FC06AE770E0C7010E94D116D3
:10100000892B19F41E830D8335C06FE770E0C7018B
:101010000E94D116892B19F418870F832BC065E81D
:1010200070E0C7010E94D116892B19F41A8709872D
:1010300021C06BE870E0C7010E94D116892B19F41A
:101040001C870B8717C061E970E0C7010E94D116A9
:10105000892B11F40D870EC068E970E0C7010E946A
:10106000D116892B11F080E021C002301105D8F78C
:101070000E8702C017FDF7CF61E970E0C7010E943B
:10108000D116892B29F4015011090C33110558F799
:10109000CE0101960E948307882329F39EE0FE017A
:1010A0003196D60101900D929A95E1F72E960FB6E2
:1010B000F894DEBF0FBECDBFDF91CF911F910F918E
:1010C000FF90EF90DF90CF90089526E3FC011192FE
:1010D0002A95E9F70895FC01653F21E0720708F0C1
:1010E0006FC0493E83E0580708F06AC08081918153
:1010F000A281B3810097A105B10541F47787668786
:1011000075876487538B428B518B408B2485358543
:101110006217730710F4758764872685378526174D
:10112000370710F47787668720893189421753077C
:1011300010F4518B408B228933892417350710F422
:10114000538B428B803422E492072FE0A207B10533
:10115000F8F40196A11DB11D80839183A283B3830E
:1011600084819581A681B781860F971FA11DB11D2E
:1011700084839583A683B78380859185A285B38573
:10118000840F951FA11DB11D80879187A287B3870A
:1011900084A990E0DC01AA0FBB1FAE0FBF1F5596BC
:1011A0007C936E93549795965C934E939497019687
:1011B0008770992784AB85A9883010F48F5F85AB41
:1011C0000895CF93FC0125A92830B8F1C4A970E097
:1011D00040E050E0A0E0B0E02C2F270F277030E077
:1011E000F901662311F0729601C03A96EE0FFF1FC7
:1011F000E80FF91F20813181743018F4A20FB31F5A
:1012000002C0420F531F7F5F783031F7611103C076
:1012100084E190E002C080E590E04A1B5B0B481738
:1012200059076CF422273327281B390B81E0241738
:1012300035070CF480E0819503C080E001C081E0B7
:10124000CF9108950F931F93CF93DF93DC01FB01A0
:10125000B90100851185C081D1818C9180FF07C0C3
:10126000C00FD11F31E04C175D0734F004C031E0EE
:10127000C417D5070CF430E0932FC281D38181FFCE
:1012800006C0C01BD10BC417D50724F005C04C17EE
:101290005D0714F0932F9260C285D3852481358138
:1012A00082FF06C02C0F3D1F6217730724F004C095
:1012B000261737070CF094604681578183FF06C0DC
:1012C0004C1B5D0B4617570724F004C064177507C5
:1012D0000CF098609C9311968C911197982311961D
:1012E0009C93DF91CF911F910F910895FC01208174
:1012F00021830895FC018FEF9FEF615090F02191C1
:10130000922728E0AC01440F551F97FF06C0CA0181
:1013100031E2832730E1932701C0CA01215091F7C0
:10132000ECCF0895DC01CB01821B930BA40BB50B12
:1013300021E0181619061A061B060CF020E0822F71
:101340000895CF93DF93EC01FB0188E1DE011D924C
:101350008A95E9F785EA888381E089832A833B833C
:101360004C835D83908181819E838F839281838171
:1013700098878987948185819A878B8796818781D1
:101380009C878D87908581859E878F8792858385B1
:10139000988B898B84858A8B85858B8B65E1CE01C3
:1013A00001960E947A098E8B9F8BDF91CF910895D1
:1013B0008F929F92AF92BF92CF92DF92EF92FF9265
:1013C0000F931F93CF93DF93CDB7DEB72E970FB652
:1013D000F894DEBF0FBECDBFFC012081253A11F08D
:1013E00080E05CC0FC0121812130D1F77A016B01E2
:1013F0008C0165E101960E947A09F80126893789F6
:101400008217930769F7868197819A8389838085FC
:1014100091859C838B83828593859E838D83848530
:10142000958598878F83868597859A878987808910
:1014300091899C878B8782898D8783898E87CE014E
:1014400001960E948307882359F2F801329620E022
:1014500030E0812C912C5401419150E060E070E02B
:10146000022E04C0440F551F661F771F0A94D2F73F
:10147000842A952AA62AB72A285F3F4F20323105B1
:1014800059F79EE0FE013196D60101900D929A9592
:10149000E1F7F70180829182A282B3822E960FB685
:1014A000F894DEBF0FBECDBFDF91CF911F910F919A
:1014B000FF90EF90DF90CF90BF90AF909F908F9074
:1014C0000895FC01A0819181828123813A2F390FF7
:1014D000380F320FE4813E1321C09A30F8F42A30DD
:1014E000E8F430E0EAE08E9F200D311D1124253F05
:1014F000F1E03F0798F4892F90E0EAE0AE9F800D7D
:10150000911D1124893EF3E09F0740F4FB013183D4
:101510002083FA019183808381E0089580E008951B
:10152000DC01CB01821B930BA40BB50B809590952E
:10153000A095B0958827B7FD83959927AA27BB2743
:1015400008958F929F92AF92BF92CF92DF92EF92C7
:10155000FF920F931F93CF93DF93FC01EB018081E8
:101560008D3219F4319611E001C010E0808188239A
:10157000D1F1112331F0C12C90E8D92EE12CF12CBE
:1015800006C0CC24CA948FE7D82EE12CF12C20E0A1
:1015900030E0A90101910023E9F080ED800F8A304D
:1015A00010F5AAE0B0E00E949016202F000F330B38
:1015B000205331094901330FAA08BB08A501940142
:1015C000260F371F481F591FC216D306E406F5061B
:1015D00008F709C0112319F0319521953109398394
:1015E000288381E001C080E0DF91CF911F910F91AE
:1015F000FF90EF90DF90CF90BF90AF909F908F9033
:101600000895CF93DF93C82FD4B589B386958170A1
:101610008C1741F00E94691184B58D1B8436A8F3A4
:1016200080E001C081E0DF91CF910895D198D99AEF
:101630000895D998D19A08959F92AF92BF92CF9270
:10164000DF92EF92FF920F931F93CF93DF9300D01F
:1016500000D01F92CDB7DEB77C016B018E010F5F0A
:101660001F4F85E0F80111928A95E9F7AFB6F8941B
:10167000D198D99AFAE1FA95F1F700C080E00E947A
:10168000010B811102C010E030C081E00E94010B0B
:101690008823C9F380E00E94010B8823A1F3B12CB9
:1016A00081E00E94010B882371F394B480E00E94D2
:1016B000010B882341F38B2D869586958695F8013D
:1016C000E80FF11D8081880F808394B599199E32AF
:1016D00010F081608083B39488E2B812E1CFA60154
:1016E000B701C8010E94610A182F0E946911AFBE9C
:1016F000812F0F900F900F900F900F90DF91CF914F
:101700001F910F91FF90EF90DF90CF90BF90AF901F
:101710009F90089588EE93E006B607FC08C02AE182
:101720002A95F1F700C00197B9F780E0089581E0AC
:10173000089583B984E886BF0E948A0B882329F024
:1017400091B1987F81E0983209F080E0817008952E
:1017500016BE85B38C7F85BB84B38C7F84BB89E048
:10176000A09A9DE09A95F1F70000A0989DE09A95C7
:10177000F1F700008150A1F7A19A8DE08A95F1F769
:101780000000A0989DE09A95F1F70000A1988DE0E7
:101790008A95F1F7000084E086BF089584E986BF4A
:1017A00088EE93E006B604FE0AC02AE12A95F1F716
:1017B00000C00197B9F70E94A80B80E0089581E06E
:1017C0000895CF93C82F84EA86BF0E948A0B88238E
:1017D000E9F081B1887F883021F081B1887F803144
:1017E000A9F4C3B984E886BF0E948A0B882371F0EC
:1017F00021B1287F30E0C0FD03C048E150E002C0C5
:1018000040E450E081E02417350709F080E0CF91F3
:10181000089584B38C7F84BB85B38C7F85BB11B85E
:1018200080E280B984E086BF0895EF92FF920F9323
:101830001F93CF93DF937B01D42F880F0E94E10B7E
:10184000C82F8701CC2351F0DD2341F0F8018191AD
:101850008F010E94990BC82FD150F4CF0E94CE0B5C
:10186000882311F0C11103C00E94A80BC0E08C2F87
:10187000DF91CF911F910F91FF90EF900895EF921C
:10188000FF920F931F93CF93DF937B01D42F880F89
:1018900081600E94E10BC82F8701CC2309F1DD2371
:1018A000F9F0D15011F484E801C084EC86BF0E94A5
:1018B0008A0B882389F081B1887F90E0D11103C021
:1018C00028E530E002C020E530E08217930721F4DC
:1018D00083B1F801808301C0C0E00F5F1F4FDDCFEF
:1018E0000E94CE0B882311F0C11103C00E94A80BE7
:1018F000C0E08C2FDF91CF911F910F91FF90EF905F
:10190000089595B39F70807F892B85BB82E08A956F
:10191000F1F700C0979A82E08A95F1F700C0979896
:1019200082E08A95F1F700C00895CF93C82F66230F
:1019300011F0969A01C0969895988C2F0E94810C70
:101940008C2F8295807F0E94810C85E88A95F1F723
:101950000000CF91089584B3806F84BB81B3806E03
:1019600081BB82B38F7182BB2FEF89EF90E0215052
:1019700080409040E1F700C0000080E30E94810CAD
:101980008FE097E20197F1F700C0000080E30E942A
:10199000810C8BE291E00197F1F700C0000080E339
:1019A0000E94810C8BE291E00197F1F700C00000EA
:1019B00080E20E94810C8BE291E00197F1F700C078
:1019C000000060E088E20E94950C60E08CE00E94DC
:1019D000950C60E086E00E94950C60E081E00E943A
:1019E000950C8FE99FE00197F1F700C00000089582
:1019F0000F931F93CF93DF93EB01811102C080E817
:101A000001C080EC60E00E94950C10E100E0011143
:101A100004C0888181110CC001E080E261E00E9475
:101A2000950C1150A1F7DF91CF911F910F9108955F
:101A30002196F4CF88E292E00E94760980913F02DD
:101A400080934002089584EE91E00E9445109091A9
:101A50003F02882311F09F7D01C0906290933F0266
:101A60000895CF9384EE91E00E94DA0FC82F809101
:101A70003F02CC2331F08F7D80933F020E94E2121F
:101A800003C0806280933F028C2FCF910895CF9343
:101A9000DF93CDB7DEB76E970FB6F894DEBF0FBEFB
:101AA000CDBF0E9429030E9460110E94AB0C0E94CE
:101AB000160B0E94090C84EE91E00E947A0784EED6
:101AC00091E00E94DA0F811105C080913F0280628F
:101AD00080933F028091490283FF05C080913F02BD
:101AE000806480933F0282EF91E00E94650881E06C
:101AF00080934702109248020E94EE022B013C01A3
:101B00009B01AC012053384F4F4F5F4F2D833E83D5
:101B10004F8358870E94800F8D8F0E94EE023D8D6B
:101B2000311107C038E8C32E33E1D32EE12CF12C5C
:101B300005C028ECC22ED12CE12CF12CA701960176
:101B4000260F371F481F591F29833A834B835C8315
:101B50003D8D311105C080913F02846080933F022A
:101B60009EE088E10FB6F894A89581BD0FBE91BDA7
:101B700082E093E00E94BE110E944C044D8A5E8A6E
:101B80006F8A788E8D819E81AF81B885898B9A8B83
:101B9000AB8BBC8B4D865E866F86788A49865A866B
:101BA0006B867C86198E1A8E1B8E1C8E1E8E812C47
:101BB000912C54010E94EE026B017C01860E971E4F
:101BC000A81EB91E84189508A608B70880912A0295
:101BD00090912B02A0912C02B0912D02AC01BD017D
:101BE0004F5F5F4F6F4F7F4F28EE821623E09206C4
:101BF000A104B10448F098EE891A93E0990AA1086B
:101C0000B108DB01CA01EACF80932A0290932B022C
:101C1000A0932C02B0932D020E940205C701B601C9
:101C20000E94A5030E94E5123E8D311120C02D8136
:101C30003E814F815885C701B6010E94900A8823D2
:101C400009F44DC00E94190BD701C6014496A11D8D
:101C5000B11D898F9A8FAB8FBC8FA701960120533E
:101C6000384F4F4F5F4F2D833E834F835887298DC9
:101C70003A8D4B8D5C8DC701B6010E94900A882376
:101C800009F43BC164E372E082E392E00E941C0B22
:101C900080934302882309F41EC11092410280916F
:101CA0003F028E7F80933F02409134025091350273
:101CB000609132027091330282EF91E00E946B08D2
:101CC000209134023091350240913202509133021A
:101CD00064EE71E088E292E00E9422091E8E2D855A
:101CE0003E854F855889C701B6010E94900A882316
:101CF000C9F0D701C6018C509E4FAF4FBF4F8D87A3
:101D00009E87AF87B88B86E392E00E94AE038093F4
:101D1000460290913F02882311F0977F01C098609E
:101D200090933F022D893E894F89588DC701B60196
:101D30000E94900A882351F0A701960128513C4F38
:101D40004F4F5F4F2D8B3E8B4F8B588F29813A81A0
:101D50004B815C81C701B6010E94900A8823A1F1E2
:101D60003D8D31110AC00E94800F8D8F882371F044
:101D700088EC90E0A0E0B0E012C08EE292E00E9419
:101D8000AA0F8D8F80934502811105C088E893E1E9
:101D9000A0E0B0E004C080ED97E0A0E0B0E09C01DE
:101DA000AD012C0D3D1D4E1D5F1D29833A834B83D4
:101DB0005C839091450280913F02992311F08B7FC3
:101DC00001C0846080933F020E942B12882329F077
:101DD00080913F02806180933F0220913F02809179
:101DE0004002922F9823909340024091290250E0A4
:101DF000409550956091280270E046235723452B6B
:101E000071F42F7430E0892F90E0809590958223B3
:101E1000932321E0892B09F420E0822F01C081E087
:101E20009091F101992399F080FF11C0C701B6018B
:101E300028EE33E040E050E00E94591621E0683C73
:101E400071058105910508F020E0822F01C080E036
:101E500081700E94AD0340914802C701B6010E9403
:101E6000DB0329853A854B855C85C701B6010E9455
:101E7000900A882361F0D701C60186509F4FAF4F6B
:101E8000BF4F89879A87AB87BC870E944E132989E9
:101E90003A894B895C89C701B6010E94900A882360
:101EA000B1F02091F00130E0A8EEB3E00E9481167D
:101EB0009B01AC012C0D3D1D4E1D5F1D298B3A8BE6
:101EC0004B8B5C8B8091470281110E945004A89536
:101ED000260137016FCE809141028F3F19F08F5F4D
:101EE0008093410280914102833008F4F7CE8091C3
:101EF0003F02816080933F02F1CE31E03E8FEFCE12
:101F0000CF93DF931F92CDB7DEB781E0898341E0A5
:101F1000BE016F5F7F4F83E20E94150C811102C0EA
:101F200080E014C087E0898341E0BE016F5F7F4F8E
:101F300083E20E94150C882399F380E1898341E0B4
:101F4000BE016F5F7F4F83E20E94150C0F90DF91FF
:101F5000CF910895EF92FF921F93CF93DF9300D01C
:101F6000CDB7DEB77C0142E0BE016F5F7F4F83E2F9
:101F70000E943F0C182F8823A1F029813A81322733
:101F800023273227A5E0B0E00E94811626E030E04A
:101F900040E050E00E945916F701208331834283CC
:101FA0005383812F0F900F90DF91CF911F91FF905E
:101FB000EF900895CF92DF92EF92FF920F931F93CD
:101FC000CF93DF93CDB7DEB7AA970FB6F894DEBFF5
:101FD0000FBECDBF6C0180E0E82E80E0F82E10E04F
:101FE00000E048E150E0B701CE0101960E949B1944
:101FF000AE01495D5F4FBE01675E7F4FCE01019626
:102000000E94D809882351F1011118C08EE0FE0109
:102010007996D60101900D928A95E1F78FA198A546
:10202000A9A5BAA580930B0190930C01A0930D0173
:10203000B0930E011093600001E010C020910B01DD
:1020400030910C0140910D0150910E016FA178A5C6
:1020500089A59AA50E9492098111D8CF1F5F88E1B6
:10206000E80EF11C123009F0BCCF802FAA960FB6F3
:10207000F894DEBF0FBECDBFDF91CF911F910F91BE
:10208000FF90EF90DF90CF9008958F929F92AF9244
:10209000BF92CF92DF92EF92FF921F93CF93DF9385
:1020A000CDB7DEB7C254D1090FB6F894DEBF0FBE6C
:1020B000CDBF7C010E948307811102C080E087C0F0
:1020C0001091600081E0182780910B0190910C0124
:1020D000A0910D01B0910E019C01AD012F5F3F4F0A
:1020E0004F4F5F4FB701CE0149960E94A10928E1E9
:1020F000129FC0011124FC01E050F0407F0160E01C
:10210000CF010E94AB194E01FAE18F0E911C28E11C
:10211000129F50011124C12CD12C3FEFA31AB30AF6
:10212000F40161914F01C5018C0D9D1D80509040BF
:102130000E94AB19FFEFCF1ADF0A27E1C216D104C4
:1021400079F7698DC7010E94AB1948E150E0B701EA
:10215000CE0101960E949B1948E150E0BE01675EE6
:102160007F4FCE0101960E94B916892B09F0A6CFA8
:10217000AE01415C5F4FBE016F5C7F4FCE010196A7
:102180000E94D809882309F499CF40910B015091FE
:102190000C0160910D0170910E014F5F5F4F6F4F09
:1021A0007F4F2396CCACDDACEEACFFAC23974C1547
:1021B0005D056E057F0509F081CF109360004093A7
:1021C0000B0150930C0160930D0170930E01CE5BD7
:1021D000DF4F0FB6F894DEBF0FBECDBFDF91CF91BA
:1021E0001F91FF90EF90DF90CF90BF90AF909F90A6
:1021F0008F9008958BB19CB18C7141F48091D40182
:102200008F5F8F732091D301821306C081E080938A
:10221000CF018093D0010895E091D401F0E0E1571F
:10222000FE4F90838093D40108951F920F920FB6B2
:102230000F9211242F933F934F935F936F937F934C
:102240008F939F93AF93BF93EF93FF930E94FA10E6
:10225000FF91EF91BF91AF919F918F917F916F917E
:102260005F914F913F912F910F900FBE0F901F9054
:1022700018951F920F920FB60F9211248F939F9370
:10228000EF93FF939091D2018091D101981302C0F6
:1022900055980DC0E091D101F0E0E15FFE4F8081E3
:1022A0008CB98091D1018F5F8F778093D101FF919D
:1022B000EF919F918F910F900FBE0F901F901895E7
:1022C00010BC83E389B91BB886E880BD88E98AB968
:1022D00008955F990C94FA1008953091D4012091DB
:1022E000D301321781F0E091D301F0E0E157FE4FC6
:1022F0002081FC0120838091D3018F5F8F738093B5
:10230000D30181E0089580E00895CF92DF92EF92AB
:10231000FF92CF93DF93D82FC091D201CF5FCF77B9
:102320000E94EE026B017C0125E0C20ED11CE11C73
:10233000F11C8091D101C8130DC00E94EE02A701CB
:1023400096010E94900A8823A1F381E08093D00136
:1023500080E00DC0E091D201F0E0E15FFE4FD0835C
:102360008FB7F894C093D201559A8FBF81E0DF9167
:10237000CF91FF90EF90DF90CF900895CF93DF93B0
:10238000EC01FE018491882329F00E948511219699
:102390008111F7CFDF91CF9108958F929F92AF92E5
:1023A000BF92EF92FF921F93CF93DF93CDB7DEB72B
:1023B0002A970FB6F894DEBF0FBECDBF20E04AE0EB
:1023C000842E912CA12CB12C11E0120FEE24E39459
:1023D000F12CEC0EFD1EE20EF11CA50194010E94F1
:1023E0005916605DF7016083B901CA01212F61159B
:1023F00071058105910541F7112359F01150E1E074
:10240000F0E0EC0FFD1FE10FF11D80810E948511AE
:10241000F3CF2A960FB6F894DEBF0FBECDBFDF9183
:10242000CF911F91FF90EF90BF90AF909F908F90B2
:102430000895CF936AE070E00E943116C82F80E0C3
:1024400090E00E94CD118EE20E94851180E38C0FF6
:10245000CF910C9485118091D00108958FB7F89495
:102460001092D0018FBF08958FB7F8949091CF014B
:102470001092CF018FBF81E0911101C080E00895DB
:10248000E091E3018E2F90E0FC013197E830F105F7
:1024900048F5E65DFF4F0C947B168091D501909135
:1024A000D60108958091D7019091D8010895809127
:1024B000D9019091DA0108958091DB019091DC01BE
:1024C00008958091DD019091DE0108958091DF01F2
:1024D0009091E00108958091E10102C08091E201B4
:1024E00090E0089580E090E008951F93CF93DF93EC
:1024F000CDB7DEB72E970FB6F894DEBF0FBECDBFB7
:10250000182F8EE0E5EDF1E0DE01119601900D92BD
:102510008A95E1F70E944012212F110F330BE091B1
:10252000E301E53018F041E050E002C04AE050E03D
:10253000429FB001439F700D529F700D1124860F72
:10254000971F97FD35C04E2F50E0FA013197E830C4
:10255000F10570F5EE5CFF4F0C947B169A8389832E
:1025600018C09C838B8315C09E838D8312C098876F
:102570008F830FC09A8789870CC09C878B8709C07F
:102580008D339105ACF48D8704C08230910584F4BD
:102590008E87CE0101960E948307882349F08EE042
:1025A000FE013196A5EDB1E001900D928A95E1F71B
:1025B0002E960FB6F894DEBF0FBECDBFDF91CF9140
:1025C0001F9108951092E3010895CF93DF93C82FD0
:1025D00083FF06C00E941A0D8091E301811125C07E
:1025E0009091E3018C2F8170DC2FD270C4709923FD
:1025F00009F1882319F081E00E947512DD2319F09A
:102600008FEF0E947512CC2309F445C08091E3013D
:10261000893071F48EE0E5EDF1E0A4EEB1E00190D7
:102620000D928A95E1F70E94230D1092E30133C0C9
:102630008F5F2FC0882351F08091420290E0019675
:1026400069E070E00E94451680934202DD2351F05C
:102650008091420290E0089669E070E00E94451681
:1026600080934202CC23B9F080914202883039F441
:102670009091480281E08927809348020CC08EE047
:10268000E4EEF1E0A5EDB1E001900D928A95E1F75D
:1026900081E08093E301DF91CF9108958F929F9223
:1026A000AF92BF92CF92DF92EF92FF920F931F9360
:1026B000CF93DF93CDB7DEB769970FB6F894DEBF3F
:1026C0000FBECDBFE091E301EE2309F443C0E93032
:1026D00041F46EE970E080E00E94F80C6EEA70E070
:1026E0009EC2E150E73040F4F0E0EE0FFF1FE754E8
:1026F000FF4F6081718102C06BEA74E08E010E5E53
:102700001F4FC8010E94A4160E9440129F938F93EE
:102710001F930F9385EA94E09F938F931F9281E11B
:102720008F93015111091F930F930E94DA16B8017C
:1027300080E00E94F80C64E974E0C8010E94A416CD
:10274000B80181E00E94F80C0FB6F894DEBF0FBE0E
:10275000CDBF68C2F09042028F2D90E08E010F5FD6
:102760001F4F8830910508F02EC2FC01E65CFF4F38
:102770000C947B1680914302882351F1809134029E
:1027800090913502E0913202F09133022AE030E07C
:10279000B9010E9431169F938F937F936F93CF015E
:1027A000B9010E9431169F938F937F936F9383E8B3
:1027B00094E09F938F931F9281E18F931F930F93C8
:1027C0000E94DA160FB6F894DEBF0FBECDBF05C06B
:1027D00065E774E0C8010E94A416B80180E00E9479
:1027E000F80C80913F021F928F93809129021F92D3
:1027F0008F93809128021F928F9380E694E064C1AA
:1028000092E0F91209C0E0910202F0910302809176
:1028100004029091050208C0E091FE01F091FF01D1
:1028200080910002909101024091F2015091F301D8
:102830006091F4017091F501452B462B472B61F413
:1028400061E574E0C8010E94A416B80180E00E940E
:10285000F80C62E474E0B3C12AE030E0B9010E94F0
:102860003116462FE72ED82EC92ECF01B9010E946E
:10287000311622E0F21611F024E501C028E4CF92CF
:10288000DF92EF924F939F938F937F936F931F925B
:102890002F9383E394E09F938F931F9281E18F9313
:1028A0001F930F930E94DA16B80180E00E94F80C83
:1028B0000FB6F894DEBF0FBECDBF92E0F91209C08B
:1028C0006091FA017091FB018091FC019091FD01F2
:1028D00008C06091F6017091F7018091F801909124
:1028E000F901F090F201E090F301D090F401C09072
:1028F000F5012F2D3E2D4D2D5C2D0E945916CF92A6
:10290000DF92EF92FF92C9016AE070E00E943116F7
:102910009F938F937F936F9385E294E09F938F9320
:102920001F9281E18F931F930F9313C18091270210
:102930001F928F9383E194E09F938F931F9281E185
:102940008F931F930F930E94DA16B80180E00E94C4
:10295000F80C0FB6F894DEBF0FBECDBF80914302D6
:10296000811103C067E074E02AC160E082EF91E06A
:102970000E94E108F82E61E082EF91E00E94E108F8
:10298000181624F0811104C09DE303C09BE201C02E
:102990009DE21F1424F0F11004C08DE303C08BE20C
:1029A00001C08DE21F929F931F928F9387EF93E058
:1029B000FAC0C0902A02D0902B02E0902C02F09036
:1029C0002D022CE3822E912CA12CB12CC701B60133
:1029D000A50194010E945916CA01B901A5019401EB
:1029E0000E9459169F938F937F936F93C701B601EF
:1029F00020E13EE040E050E00E945916CA01B901D2
:102A000028E130E040E050E00E9459169F938F93F8
:102A10007F936F93C701B60120E831E541E050E0B4
:102A20000E9459165F934F933F932F9383EE93E049
:102A30009F938F931F9231E1F32EFF921F930F9379
:102A40000E94DA16B80180E00E94F80C80914902D9
:102A50001F928F9380912D028F9380912C028F93E0
:102A600080912B028F9380912A028F9383ED93E0C4
:102A70009F938F931F92FF921F930F932CC063EC31
:102A800073E0C8010E94A416B80180E00E94F80C0F
:102A900080914602882311F1F0903602E0903702CF
:102AA0002F2D3E2DA8E8B3E10E9481162FEF33E0D1
:102AB00040E050E00E9459165F934F933F932F934D
:102AC000EF92FF9286EB93E09F938F931F9281E1A9
:102AD0008F931F930F930E94DA169BC06CEA73E0EA
:102AE0006EC0809144028823B9F180913A021F920E
:102AF0008F93809139021F928F93809138021F9299
:102B00008F938BE993E09F938F931F9291E1F92E1E
:102B1000FF921F930F930E94DA16B80180E00E9483
:102B2000F80C80913E021F928F9380913D021F927C
:102B30008F9380913C021F928F9380913B021F9252
:102B40008F9388E893E09F938F931F92FF921F9338
:102B50000F930E94DA165DC06DE773E0C8010E9412
:102B6000A416B80180E00E94F80C60E773E027C06B
:102B700063E673E0C8010E94A416B80180E00E94D9
:102B8000F80C809145028823C1F0809131028F9327
:102B9000809130028F9380912F028F9380912E022B
:102BA0008F938BE593E09F938F931F9281E18F9397
:102BB0001F930F930E94DA162CC06FE473E0C801D4
:102BC0000E94A4162BC00E9444031F928F938091F1
:102BD00048021F928F9380E493E09F938F931F92FC
:102BE00081E1F82EFF921F930F930E94DA16B8012D
:102BF00080E00E94F80C80913F021F928F9381E346
:102C000093E09F938F931F92FF921F930F930E94C5
:102C1000DA160FB6F894DEBF0FBECDBFB80181E063
:102C20000E94F80C69960FB6F894DEBF0FBECDBFB8
:102C3000DF91CF911F910F91FF90EF90DF90CF9098
:102C4000BF90AF909F908F900895991B79E004C03A
:102C5000991F961708F0961B881F7A95C9F78095DB
:102C60000895AA1BBB1B51E107C0AA1FBB1FA617D3
:102C7000B70710F0A61BB70B881F991F5A95A9F725
:102C800080959095BC01CD01089597FB072E16F411
:102C9000009407D077FD09D00E94311607FC05D0BB
:102CA0003EF4909581959F4F0895709561957F4F63
:102CB0000895A1E21A2EAA1BBB1BFD010DC0AA1F7D
:102CC000BB1FEE1FFF1FA217B307E407F50720F095
:102CD000A21BB30BE40BF50B661F771F881F991F10
:102CE0001A9469F760957095809590959B01AC0159
:102CF000BD01CF010895EE0FFF1F0590F491E02D67
:102D00000994A29FB001B39FC001A39F700D811DC4
:102D10001124911DB29F700D811D1124911D0895E4
:102D20000E948116A59F900DB49F900DA49F800DC9
:102D3000911D11240895FB01DC018D9105908019EE
:102D40000110D9F3990B0895FB01DC0105900D9258
:102D50000020E1F70895FB01DC014150504030F0C4
:102D60008D910590801919F40020B9F7881B990BF3
:102D70000895FB01DC0104C08D910190801921F4BC
:102D800041505040C8F7881B990B0895FC01819170
:102D9000861721F08823D9F7992708953197CF0115
:102DA0000895FB01DC018D91019080190110D9F388
:102DB000990B0895AEE0B0E0E0EEF6E10C94CA198C
:102DC0000D891E898F89988D2EE02C831A830983A3
:102DD00097FF02C080E090E801979E838D83AE014B
:102DE000455E5F4F698D7A8DCE0101960E940A176C
:102DF0004D815E8157FD0AC02F81388542175307E8
:102E00000CF49A01F801E20FF31F10822E96E4E011
:102E10000C94E619ABE0B0E0E0E1F7E10C94BC19EA
:102E20006C017B018A01FC0117821682838181FF7C
:102E3000CCC1CE0101963C01F6019381F70193FDCF
:102E4000859193FF81917F01882309F4BAC185326E
:102E500039F493FD859193FF81917F01853229F4A7
:102E6000B60190E00E940119E7CF912C212C312C62
:102E7000FFE1F315D8F08B3279F038F4803279F035
:102E80008332A1F4232D20611DC08D3261F0803387
:102E900069F4232D216016C0832D8260382EE32D26
:102EA000E4603E2E2AC0F32DF8601DC037FC2DC013
:102EB00020ED280F2A3040F08E32B9F436FC81C163
:102EC000232D2064322E19C036FE06C08AE0989E5B
:102ED000200D1124922E11C0EAE02E9E200D112407
:102EE000222EF32DF0623F2E08C08C3621F4832D64
:102EF0008068382E02C0883641F4F70193FD859131
:102F000093FF81917F018111B3CF982F9F7D9554BD
:102F1000933028F40C5F1F4F9FE399830DC08336D5
:102F200031F0833771F0833509F059C021C0F801C1
:102F3000808189830E5F1F4F88248394912C5301D5
:102F400013C02801F2E04F0E511CF801A080B1809F
:102F500036FE03C0692D70E002C06FEF7FEFC50140
:102F60000E94F6184C018201F32DFF773F2E16C008
:102F7000280122E0420E511CF801A080B18036FEEB
:102F800003C0692D70E002C06FEF7FEFC5010E94A2
:102F9000EB184C01F32DF0683F2E820133FC1BC06F
:102FA000822D90E088169906B0F4B60180E290E098
:102FB0000E9401192A94F4CFF50137FC859137FE60
:102FC00081915F01B60190E00E94011921102A94BD
:102FD00021E0821A91088114910471F7E8C08436C7
:102FE00011F0893641F5F80137FE07C06081718123
:102FF000828193810C5F1F4F08C060817181072E11
:10300000000C880B990B0E5F1F4FF32DFF763F2EA0
:1030100097FF09C090958095709561957F4F8F4F70
:103020009F4FF0683F2E2AE030E0A3010E943D1937
:10303000882E861845C0853731F4232D2F7EB22E79
:103040002AE030E025C0932D997FB92E8F36C1F04C
:1030500018F4883579F0B5C0803719F0883721F039
:10306000B0C0E92FE061BE2EB4FE0DC0FB2DF460B0
:10307000BF2E09C034FE0AC0292F2660B22E06C01A
:1030800028E030E005C020E130E002C020E132E07D
:10309000F801B7FE07C060817181828193810C5F66
:1030A0001F4F06C06081718180E090E00E5F1F4F6E
:1030B000A3010E943D19882E8618FB2DFF773F2E15
:1030C00036FE0DC0232D2E7FA22E891458F434FE17
:1030D0000BC032FC09C0832D8E7EA82E05C0B82CF3
:1030E000A32C03C0B82C01C0B92CA4FE0FC0FE0154
:1030F000E80DF11D8081803321F49A2D997EA92E4F
:1031000009C0A2FE06C0B394B39404C08A2D867889
:1031100009F0B394A3FC11C0A0FE06C0B21488F459
:10312000280C922C9B180EC0B21460F4B60180E2F9
:1031300090E00E940119B394F7CFB21418F42B1841
:1031400002C0982C212CA4FE10C0B60180E390E0B0
:103150000E940119A2FE17C0A1FC03C088E790E0FD
:1031600002C088E590E0B6010CC08A2D867859F03F
:10317000A1FE02C08BE201C080E2A7FC8DE2B60195
:1031800090E00E940119891438F4B60180E390E0C0
:103190000E9401199A94F7CF8A94F301E80DF11D6A
:1031A0008081B60190E00E9401198110F5CF2220A4
:1031B00009F442CEB60180E290E00E9401192A94FF
:1031C000F6CFF6018681978102C08FEF9FEF2B9695
:1031D000E2E10C94D819FC01059061507040011097
:1031E000D8F7809590958E0F9F1F0895FC01615030
:1031F000704001900110D8F7809590958E0F9F1F19
:1032000008950F931F93CF93DF93FB01238121FD3B
:1032100003C08FEF9FEF2CC022FF16C0468157815D
:10322000248135814217530744F4A081B1819D0167
:103230002F5F3F4F318320838C93268137812F5F0F
:103240003F4F3783268314C08B01EC01FB010084C0
:10325000F185E02D0995892BE1F6D80116968D911F
:103260009C911797019617969C938E931697CE0173
:10327000DF91CF911F910F910895FA01AA2728306D
:1032800051F1203181F1E8946F936E7F6E5F7F4F33
:103290008F4F9F4FAF4FB1E03ED0B4E03CD0670FAF
:1032A000781F891F9A1FA11D680F791F8A1F911D02
:1032B000A11D6A0F711D811D911DA11D20D009F452
:1032C00068943F912AE0269F11243019305D319394
:1032D000DEF6CF010895462F4770405D4193B3E07D
:1032E0000FD0C9F7F6CF462F4F70405D4A3318F024
:1032F000495D31FD4052419302D0A9F7EACFB4E0D5
:10330000A6959795879577956795BA95C9F700978C
:103310006105710508959B01AC010A2E069457952D
:10332000479537952795BA95C9F7620F731F841F84
:10333000951FA01D0895DC01CB01FC01E199FECF92
:1033400006C0FFBBEEBBE09A31960DB20D92415024
:103350005040B8F70895262FE199FECF9FBB8EBB52
:10336000E09A01970DB2021631F02DBB0FB6F8941A
:10337000E29AE19A0FBE08952F923F924F925F9288
:103380006F927F928F929F92AF92BF92CF92DF9275
:10339000EF92FF920F931F93CF93DF93CDB7DEB7DA
:1033A000CA1BDB0B0FB6F894DEBF0FBECDBF09946E
:1033B0002A88398848885F846E847D848C849B84C5
:1033C000AA84B984C884DF80EE80FD800C811B81D3
:1033D000AA81B981CE0FD11D0FB6F894DEBF0FBE02
:0A33E000CDBFED010895F894FFCF72
:1033EA0001B4005E012C0120030A001E00020154F0
:1033FA004C4F5700544849474800484C4F570048DB
:10340A004849474800544859535400484859535466
:10341A000043535653454300534F554E44005345BA
:10342A0054207361766520262065786974004143CB
:10343A004B2063616E63656C00D504CF04CA04C473
:08344A0004BE04B804B1040043
:00000001FF
