:100000000C9472020C949B020C949B020C949B0225
:100010000C949B020C949B020C944F030C949B0237
:100020000C949D020C949B020C949B020C94E7137D
:100030000C940B140C949B020C949B020C949B024A
:100040000C949B020C949B020C949B020C949B02BC
:100050000C949B02231528152D15321537153C15C8
:1000600041154415841587158A158D15901593151E
:1000700096159B159016D616D6166C17AF17151831
:1000800047188E180D0A000D0A232048206D696E4E
:100090002C6D61782C6176673D00232054206D69BA
:1000A0006E2C6D61782C6176673D0023206E6F2089
:1000B00076616C69642073616D706C65730D0A0004
:1000C0000D0A002320636F756E743D000D0A002039
:1000D000534F554E443D00204353565345433D0036
:1000E0002048485953543D000D0A23205448595381
:1000F000543D002048484947483D0020484C4F5750
:100100003D002054484947483D002320544C4F5758
:100110003D00525443200044494147204F46460089
:1001200044494147204F4E000D0A00204C4544539E
:100130003D002052455345543D0023204B45593D39
:100140000044494147005041474520005345542051
:1001500000435356204F464600435356204F4E000F
:10016000434C454152455252005245534554535415
:100170004154530044454641554C5453004C4F4163
:100180004400534156450041434B0053544154539E
:1001900000434F4E464947005354415455530023A2
:1001A000205254432059592D4D4D2D444420484848
:1001B0003A4D4D3A535320573D312E2E3720283299
:1001C0003030302E2E32303939290D0A002320509C
:1001D00041474520302E2E383B2044494147204F8F
:1001E0004E7C4F46463B20434C4541524552520DB2
:1001F0000A002320435356204F4E7C4F46463B2057
:1002000053455420544C4F577C54484947487C48E8
:100210004C4F577C48484947487C54485953547C74
:1002200048485953547C4353565345437C534F5588
:100230004E44206E0D0A0023205354415455532040
:10024000434F4E4649472053544154532041434B5A
:100250002053415645204C4F41442044454641558A
:100260004C545320524553455453544154530D0A52
:100270000048454C5000232045525220636F6D6D5D
:10028000616E642F76616C75652F6D6F64756C653A
:100290000D0A0023204F4B0D0A0023204552522007
:1002A0006C696E65206469736361726465640D0ACC
:1002B000000D0A00323000757074696D655F732C33
:1002C00074656D705F632C68756D69646974795FBE
:1002D0007063742C745F7472656E642C685F7472E2
:1002E000656E642C616C61726D2C61636B2C657240
:1002F000726F72732C6164635F7261772C6C7578B6
:100300002C7274630D0A00232041546D65676131BE
:1003100036206D6F6E69746F72204320384D487AB5
:100320003B2048454C5020666F7220636F6D6D61B5
:100330006E64730D0A00534554204C454420453AE1
:100340002530325800444941473A2575204B4559DC
:100350003A2558004C69676874206572726F7200A4
:10036000256C75206C7578004C696768742042486C
:1003700031373530004D697373696E67202F2073F4
:100380006574205554430052544320445333323350
:100390003100253032753A253032753A25303275C4
:1003A00020572575003230253032752D25303275B5
:1003B0002D2530327500414443206572726F720002
:1003C000257520256C756D562040355600565231E6
:1003D0002041444330202F204156434300256C7573
:1003E000732052455345543A253032580055502019
:1003F000256C7564202530326C753A2530326C7569
:1004000000543A256320483A256320282B7570292B
:10041000005472656E64207374616C65005472657B
:100420006E642077696E646F772025752F380041E0
:10043000564725752E2575204E256C7500256320A1
:1004400025752E25752D25752E2575005761697426
:1004500020666F72204448543131005374617473C4
:100460003A206E6F206461746100413A2530325841
:100470002041434B3A255820453A25303258004414
:1004800048543131206E6F206461746100542575C9
:100490002E257543204825752E2575252500555098
:1004A0002F444E205345543E2041434B20580025B5
:1004B000733D257500534F554E44004353565345E5
:1004C000430048485953540054485953540048482D
:1004D00049474800484C4F57005448494748005442
:1004E0004C4F570011241FBECFE5D4E0DEBFCDBF77
:1004F00084B780935B0214BE0FB6F894A89581B5BB
:10050000886181BD11BC0FBE10E0A0E6B0E0E6E955
:10051000F9E302C005900D92AA3DB107D9F722E098
:10052000AAEDB0E001C01D92AB35B207E1F70E9421
:10053000720F0C94C91C0C9400001F920F920FB6FE
:100540000F9211242F938F939F93AF93BF9380911A
:10055000E7009091E800A091E900B091EA008F5B7C
:100560009F4FAF4FBF4F8093E7009093E800A09359
:10057000E900B093EA008091E5009091E600885E82
:100580009D4F9093E6008093E5008091E500909167
:10059000E600883E9340E8F08091E5009091E60007
:1005A000885E93409093E6008093E5008091E70099
:1005B0009091E800A091E900B091EA000196A11D98
:1005C000B11D8093E7009093E800A093E900B093F9
:1005D000EA00BF91AF919F918F912F910F900FBE25
:1005E0000F901F901895CF92DF92EF92FF928FB7E6
:1005F000F894C090E700D090E800E090E900F09017
:10060000EA002091E5003091E6006CB57DB508B6B2
:1006100002FE09C06CB57DB591E4C90ED11CE11C88
:10062000F11C285E3D4F8FBFCB01A0E0B0E0BC01C4
:10063000CD01620F731F811D911D28EE33E040E054
:1006400050E00E942F19CA01B9016C0D7D1D8E1D4D
:100650009F1DFF90EF90DF90CF900895F89484B79E
:10066000806884BF84BF87B3807F87BB88B38F6077
:1006700088BB1FBC82E08EBD1DBC1CBC20E137E2E4
:100680003BBD2ABD94E198BF99BF85BD14BC8A9A31
:1006900092987894089586B380958F7008951F92EC
:1006A0000F920FB60F9211242F933F934F935F93A6
:1006B0006F937F938F939F93AF93BF93EF93FF932A
:1006C0008AB59BB5805F984D9BBD8ABD0E944B0348
:1006D0009091DF00E0EEF0E040E050E0A1E0B0E01B
:1006E0009D01042E01C0220F0A94EAF7682F6223AD
:1006F00029F06081633038F46F5F04C06081662345
:1007000011F0615060836191633051F4692F62236D
:1007100059F4922B3091E400232B2093E40004C081
:10072000611102C0209592234F5F5F4F4430510505
:10073000B9F69093DF00FF91EF91BF91AF919F9138
:100740008F917F916F915F914F913F912F910F907A
:100750000FBE0F901F9018959FB7F8948091E400FA
:100760001092E4009FBF0895882311F0929A089593
:1007700092980895CF92DF92EF92FF92CF93DF93FA
:10078000EC0180E487B986E886B9369A0E94F302C4
:100790006B017C0125E0C20ED11CE11CF11C369BD3
:1007A0000AC00E94F302A70196010E94680C8823E8
:1007B000B1F380E005C084B195B19983888381E06D
:1007C000DF91CF91FF90EF90DF90CF900895CF927F
:1007D000DF92EF92FF9241110AC09FB7F89481B364
:1007E000877E81BB82B3877E82BB9FBF3EC06B0189
:1007F0007C0181B3886181BB2091DB003091DC00FA
:100800004091DD005091DE00C701B6010E94680CE6
:10081000882359F18CE2C80E81E0D81EE11CF11C3E
:10082000C092DB00D092DC00E092DD00F092DE00AE
:100830008091DA0090E001966AE070E00E941B1956
:100840008093DA004FB7F89422B33091DA00377012
:1008500081E090E001C0880F3A95EAF780958871B1
:10086000922F977E892B82BB4FBFFF90EF90DF9036
:10087000CF900895CF93C82F87FF03C08DE20E94C9
:100880005B146C2FCC0F770B77FF03C071956195CC
:100890007109072E000C880B990BCF910C94A314AF
:1008A0008CE20C945B14CF936AE00E94FB18C92F72
:1008B000805D0E945B1480E38C0FCF910C945B14DD
:1008C00087EB92E00C94941460913C0270913D028D
:1008D00080913E0290913F020E94A3140E94500416
:1008E00080915502882331F0809144029091450215
:1008F0000E94EF140E94500480915502882331F029
:1009000080914602909147020E94EF140E94500489
:1009100080915502882359F080913902883039F44A
:1009200060E084E092E00E94AC090E943A040E94D8
:10093000500480915502882359F080913902883003
:1009400039F461E084E092E00E94AC090E943A042C
:100950000E94500460913A0270E080E090E00E94B2
:10096000A3140E94500460913B0270E080E090E08C
:100970000E94A3140E9450046091510270E080E034
:1009800090E00E94A3140E94500480915802882392
:1009900041F0609148027091490280E090E00E942D
:1009A000A3140E94500480915702882351F0609153
:1009B00040027091410280914202909143020E9454
:1009C000A3140E94500480915602882359F184EBAD
:1009D00092E00E94941480914A020E9453048DE296
:1009E0000E945B1480914B020E9453048DE20E948E
:1009F0005B1480914C020E94530484E50E945B14B6
:100A000080914D020E9453048AE30E945B148091FE
:100A10004E020E9453048AE30E945B1480914F02AD
:100A20000E94530481EB92E00C949414DF92EF92B5
:100A3000FF920F931F93CF93DF93CDB7DEB76497E9
:100A40000FB6F894DEBF0FBECDBF0E940A158823F3
:100A500019F081E080931C0101E08FEEE82E80E028
:100A6000F82E98E0D92ECE0144960E944314882394
:100A700009F4EBC20E940A15811100931C018C89B4
:100A80008D3019F08A3009F0B8C280911C0188239A
:100A900019F08AE992E0AAC2E0911B01EE2309F461
:100AA000A7C2F0E0E551FF4F108261E772E08BEEE4
:100AB00090E00E947119892B79F487E392E00E94FB
:100AC000941482EF91E00E9494148DEC91E00E94C6
:100AD00094148FE991E0D5C168E971E08BEE90E064
:100AE0000E947119892B19F40E946404ABC261E958
:100AF00071E08BEE90E00E947119892B09F065C0BE
:100B00008AE091E00E9494146091F6017091F701DF
:100B1000072E000C880B990B0E94A31482E091E031
:100B20000E9494146091F8017091F901072E000C55
:100B3000880B990B0E94A3148BEF90E00E949414F1
:100B40006091FA017091FB0180E090E00E94A31493
:100B500083EF90E00E9494146091FC017091FD017C
:100B600080E090E00E94A31488EE90E00E9494142C
:100B70006091FE017091FF0180E090E00E94A3145B
:100B800080EE90E00E949414609100027091010246
:100B900080E090E00E94A31487ED90E00E949414FE
:100BA0006091020270E080E090E00E94A3148FEC5C
:100BB00090E00E9494146091030270E080E090E065
:100BC0000E94A3148CEC90E05CC16BE871E08BEEAA
:100BD00090E00E947119892B09F076C083EC90E0B7
:100BE0000E949414609104027091050280910602A3
:100BF000909107020E94A31480EC90E00E9494144C
:100C00008091040290910502A0910602B091070222
:100C1000892B8A2B8B2B19F48BEA90E032C18AE95D
:100C200090E00E94941480911002909111020E9411
:100C3000EF140E94500480911202909113020E94BE
:100C4000EF140E9450046091080270910902809193
:100C50000A0290910B02209104023091050240910A
:100C60000602509107020E942F19C9010E94EF1439
:100C700087E890E00E9494148091140290911502EC
:100C80000E94EF140E945004809116029091170266
:100C90000E94EF140E94500460910C0270910D02AA
:100CA00080910E0290910F02209104023091050272
:100CB00040910602509107020E942F19C9010E941B
:100CC000EF1484E890E0DDC067E871E08BEE90E01F
:100CD0000E947119892B19F40E94450FB3C162E873
:100CE00071E08BEE90E00E947119892B19F40E943B
:100CF0004E0F78C16DE771E08BEE90E00E947119A4
:100D0000892B19F40E945C0F6DC164E771E08BEED2
:100D100090E00E947119892B39F486EF91E00E94CE
:100D200045080E94B8158EC169E671E08BEE90E02F
:100D30000E947119892B29F484E092E00E94300905
:100D400081C160E671E08BEE90E00E947119892B01
:100D500041F40E940415809151028F7A80935102D0
:100D600071C169E571E08BEE90E00E947119892BE9
:100D700029F4009359020E94600464C161E571E0A6
:100D80008BEE90E00E947119892B19F41092590290
:100D900059C144E050E06CE471E08BEE90E00E94B9
:100DA0008119892B09F560E270E08FEE90E00E94D6
:100DB0009C19009709F418C1FC011192CF01BE01E2
:100DC0006F5F7F4F0E94790C882309F40DC1498120
:100DD0005A816FEE70E086EF91E00E949708182F1D
:100DE000882309F401C11BC045E050E066E471E0CE
:100DF0008BEE90E00E948119892BB9F4BE016F5FE0
:100E00007F4F80EF90E00E94790C182F882359F0D3
:100E100089819A818930910528F4809354020E9437
:100E2000B81501C010E0812FDDC061E471E08BEEE8
:100E300090E00E947119892B39F58AE391E00E94B4
:100E400094140E944B03682F70E080E090E00E94B1
:100E5000A31482E391E00E94941460915B0270E01D
:100E600080E090E00E94A3148BE291E00E94941431
:100E700060915A0270E080E090E00E94A31488E242
:100E800091E00E949414DEC060E271E08BEE90E08D
:100E90000E947119892B29F400935A02D0925402AE
:100EA000D1C067E171E08BEE90E00E947119892B4F
:100EB00019F410925A02C6C044E050E062E171E0B9
:100EC0008BEE90E00E948119892B09F08DC0F7010B
:100ED00001900020E9F7E550F14009F085C08091CC
:100EE000F1008D3209F080C08091F4008D3209F05C
:100EF0007BC08091F700803209F076C08091FA00C3
:100F00008A3309F071C08091FD008A3309F06CC00A
:100F100080910001803209F067C08091010187351E
:100F200009F062C0809102018D3309F05DC086E056
:100F3000E1E6F0E0DE01189601900D928A95E1F766
:100F4000BE01685F7F4FDE011E969D01FB0141914E
:100F5000BF0150E0CA0181519F4FFC01808190ED9B
:100F6000980F9A3008F040C040515F4FFA019081CD
:100F700090539A30C8F5880F8056482F440F440F7D
:100F8000840F980F9D932617370701F7809103016F
:100F90009FEC980F973040F59E8599839F859A83A3
:100FA00098899B8399899C839A899D839B899E8339
:100FB00080538F83CE0101960E94F0118823A1F007
:100FC0008AE492E00E94BA118093560290915102F5
:100FD000882321F09D7F9093510204C092609093EA
:100FE000510202C081112EC086E792E00E94941443
:100FF00010921B0110921C0136CD883011F08F37F2
:1010000069F480911B01882309F42DCD90911C0176
:10101000911129CD815080931B0125CD90EE980F21
:101020009F3568F4E0911B01EF3248F491E09E0F88
:1010300090931B01F0E0E551FF4F808314CD0093A6
:101040001C0111CD83E992E0D1CF64960FB6F894DC
:10105000DEBF0FBECDBFDF91CF911F910F91FF90EB
:10106000EF90DF900895982F9F709A3060F48295EA
:101070008F708A3040F42AE0829F900D1124FB018A
:10108000908381E0089580E00895DC019EE0E7E62A
:10109000F0E001900D929A95E1F708950F931F9358
:1010A000CF93DF93FC014081518157FD39C02281EC
:1010B0003381253F61E036079CF54217530784F5DD
:1010C00086819781893E63E0960750F5A481B581BA
:1010D000A817B90728F5C085D185BE0161507109EF
:1010E00064367105E8F4628573858B01015011093E
:1010F000083C1105A8F4241B350BC217D30780F454
:101100008A1B9B0B6817790758F4848581508C33B0
:1011100038F491E08585823008F090E0892F01C095
:1011200080E08170DF91CF911F910F910895CF9250
:10113000DF92EF92FF920F931F93CF93DF93CDB780
:10114000DEB72E970FB6F894DEBF0FBECDBF6C0191
:101150007B018A018EE0F601DE01119601900D926D
:101160008A95E1F765E770E0C7010E94A719892B0E
:1011700019F41A83098349C06AE770E0C7010E9425
:10118000A719892B19F41C830B833FC060E870E01A
:10119000C7010E94A719892B19F41E830D8335C03E
:1011A00065E870E0C7010E94A719892B19F4188718
:1011B0000F832BC06BE870E0C7010E94A719892B31
:1011C00019F41A87098721C061E970E0C7010E94FC
:1011D000A719892B19F41C870B8717C067E970E0E2
:1011E000C7010E94A719892B11F40D870EC06EE963
:1011F00070E0C7010E94A719892B11F080E021C07F
:1012000002301105D8F70E8702C017FDF7CF67E946
:1012100070E0C7010E94A719892B29F40150110918
:101220000C33110558F7CE0101960E944E08882311
:1012300029F39EE0FE013196D60101900D929A9518
:10124000E1F72E960FB6F894DEBF0FBECDBFDF914B
:10125000CF911F910F91FF90EF90DF90CF90089565
:1012600026E3FC0111922A95E9F70895FC01653FF8
:1012700021E0720708F06FC0493E83E0580708F08C
:101280006AC080819181A281B3810097A105B105D7
:1012900041F47787668775876487538B428B518BC0
:1012A000408B248535856217730710F47587648732
:1012B000268537852617370710F4778766872089B4
:1012C00031894217530710F4518B408B228933899F
:1012D0002417350710F4538B428B803422E4920795
:1012E0002FE0A207B105F8F40196A11DB11D80837E
:1012F0009183A283B38384819581A681B781860F70
:10130000971FA11DB11D84839583A683B783808514
:101310009185A285B385840F951FA11DB11D80877E
:101320009187A287B38784A990E0DC01AA0FBB1F35
:10133000AE0FBF1F55967C936E93549795965C9312
:101340004E93949701968770992784AB85A988302E
:1013500010F48F5F85AB0895CF93FC0125A9283049
:10136000B8F1C4A970E040E050E0A0E0B0E02C2F5C
:10137000270F277030E0F901662311F0729601C043
:101380003A96EE0FFF1FE80FF91F2081318174306C
:1013900018F4A20FB31F02C0420F531F7F5F7830B3
:1013A00031F7611103C084E190E002C080E590E074
:1013B0004A1B5B0B481759076CF422273327281B5D
:1013C000390B81E0241735070CF480E0819503C0C8
:1013D00080E001C081E0CF9108950F931F93CF93D8
:1013E000DF93DC01FB01B90100851185C081D1814A
:1013F0008C9180FF07C0C00FD11F31E04C175D07F3
:1014000034F004C031E0C417D5070CF430E0932F5A
:10141000C281D38181FF06C0C01BD10BC417D50781
:1014200024F005C04C175D0714F0932F9260C2851D
:10143000D3852481358182FF06C02C0F3D1F6217A2
:10144000730724F004C0261737070CF09460468118
:10145000578183FF06C04C1B5D0B4617570724F0CE
:1014600004C0641775070CF098609C9311968C91DA
:101470001197982311969C93DF91CF911F910F9113
:101480000895FC01208121830895FC018FEF9FEFD7
:10149000615090F02191922728E0AC01440F551F34
:1014A00097FF06C0CA0131E2832730E1932701C0CC
:1014B000CA01215091F7ECCF0895DC01CB01821BCA
:1014C000930BA40BB50B21E0181619061A061B0680
:1014D0000CF020E0822F0895CF93DF93EC01FB0105
:1014E00088E1DE011D928A95E9F785EA888381E02B
:1014F00089832A833B834C835D83908181819E8392
:101500008F839281838198878987948185819A8747
:101510008B87968187819C878D87908581859E8723
:101520008F8792858385988B898B84858A8B858527
:101530008B8B65E1CE0101960E94450A8E8B9F8BB5
:10154000DF91CF9108958F929F92AF92BF92CF92E9
:10155000DF92EF92FF920F931F93CF93DF93CDB75C
:10156000DEB72E970FB6F894DEBF0FBECDBFFC01DD
:101570002081253A11F080E05CC0FC0121812130FE
:10158000D1F77A016B018C0165E101960E94450A51
:10159000F801268937898217930769F78681978131
:1015A0009A838983808591859C838B8382859385AB
:1015B0009E838D838485958598878F83868597857F
:1015C0009A878987808991899C878B8782898D8773
:1015D00083898E87CE0101960E944E08882359F296
:1015E000F801329620E030E0812C912C5401419199
:1015F00050E060E070E0022E04C0440F551F661FEB
:10160000771F0A94D2F7842A952AA62AB72A285F38
:101610003F4F2032310559F79EE0FE013196D60149
:1016200001900D929A95E1F7F70180829182A28252
:10163000B3822E960FB6F894DEBF0FBECDBFDF91FA
:10164000CF911F910F91FF90EF90DF90CF90BF90BF
:10165000AF909F908F900895FC018081843628F58B
:1016600021819FEF920F9C3000F593819831E8F42F
:1016700094819C33D0F495819C33B8F49681915039
:10168000973098F4A22FB0E0AD55BF4F9C91223017
:1016900019F4837009F49F5F2281222319F081E0FD
:1016A000921708F480E08170089580E00895EF9229
:1016B000FF920F931F93CF93DF93CDB7DEB7289799
:1016C0000FB6F894DEBF0FBECDBFFC01808187FD51
:1016D0004FC0918197FD4CC0928197FD49C0938185
:1016E000987F09F045C09481907C09F041C09581B4
:1016F000907EF1F57B018F01BE016A5F7F4F0E94F2
:1017000033088823A9F1BE016B5F7F4FF801818107
:101710000E943308882361F1BE016D5F7F4FF8019D
:1017200084810E943308882319F1BE016E5F7F4FC8
:10173000F80185810E9433088823D1F0BE016F5FD4
:101740007F4FF80186810E943308882389F0F801D1
:101750008281BE0186FF1AC0685F7F4F8F710E9431
:101760003308882329F088859FEF980F9C3010F06C
:1017700080E023C06CE00E94FB18F8012281822FD8
:10178000807225FD8CE0980F9C8306C06C5F7F4FB4
:101790000E943308882361F3F80183818F83CE018F
:1017A00001960E942C0B882319F397E0FE013196D5
:1017B000D70101900D929A95E1F728960FB6F8940B
:1017C000DEBF0FBECDBFDF91CF911F910F91FF9074
:1017D000EF900895DC01FB0115968C9115972AE096
:1017E000622F0E94FB18392F40E1849FC001112411
:1017F000832B808314968C9114970E94FB18392FA9
:1018000040E1849FC0011124832B818313968C9126
:1018100013970E94FB18392F40E1849FC0011124C7
:10182000832B828316968C911697838312968C91C4
:1018300012970E94FB18392F40E1849FC0011124A8
:10184000832B848311968C9111970E94FB18392F5A
:1018500040E1849FC0011124832B85838C910E94D9
:10186000FB18292F30E1839FC0011124822B86832E
:101870000895FC01A0819181828123813A2F390F43
:10188000380F320FE4813E1321C09A30F8F42A3029
:10189000E8F430E0EAE08E9F200D311D1124253F51
:1018A000F1E03F0798F4892F90E0EAE0AE9F800DC9
:1018B000911D1124893EF3E09F0740F4FB01318321
:1018C0002083FA019183808381E0089580E0089568
:1018D000DC01CB01821B930BA40BB50B809590957B
:1018E000A095B0958827B7FD83959927AA27BB2790
:1018F00008958F929F92AF92BF92CF92DF92EF9214
:10190000FF920F931F93CF93DF93FC01EB01808134
:101910008D3219F4319611E001C010E080818823E6
:10192000D1F1112331F0C12C90E8D92EE12CF12C0A
:1019300006C0CC24CA948FE7D82EE12CF12C20E0ED
:1019400030E0A90101910023E9F080ED800F8A3099
:1019500010F5AAE0B0E00E946619202F000F330BAB
:10196000205331094901330FAA08BB08A50194018E
:10197000260F371F481F591FC216D306E406F50667
:1019800008F709C0112319F03195219531093983E0
:10199000288381E001C080E0DF91CF911F910F91FA
:1019A000FF90EF90DF90CF90BF90AF909F908F907F
:1019B0000895CF93DF93C82FD4B589B386958170EE
:1019C0008C1741F00E943F1484B58D1B8436A8F318
:1019D00080E001C081E0DF91CF910895D198D99A3C
:1019E0000895D998D19A08959F92AF92BF92CF92BD
:1019F000DF92EF92FF920F931F93CF93DF9300D06C
:101A000000D01F92CDB7DEB77C016B018E010F5F56
:101A10001F4F85E0F80111928A95E9F7AFB6F89467
:101A2000D198D99AFAE1FA95F1F700C080E00E94C6
:101A3000D90C811102C010E030C081E00E94D90CA5
:101A40008823C9F380E00E94D90C8823A1F3B12C2C
:101A500081E00E94D90C882371F394B480E00E9445
:101A6000D90C882341F38B2D869586958695F801B0
:101A7000E80FF11D8081880F808394B599199E32FB
:101A800010F081608083B39488E2B812E1CFA601A0
:101A9000B701C8010E94390C182F0E943F14AFBE35
:101AA000812F0F900F900F900F900F90DF91CF919B
:101AB0001F910F91FF90EF90DF90CF90BF90AF906C
:101AC0009F90089588EE93E006B607FC08C02AE1CF
:101AD0002A95F1F700C00197B9F780E0089581E0F9
:101AE000089583B984E886BF0E94620D882329F097
:101AF00091B1987F81E0983209F080E0817008957B
:101B000016BE85B38C7F85BB84B38C7F84BB89E094
:101B1000A09A9DE09A95F1F70000A0989DE09A9513
:101B2000F1F700008150A1F7A19A8DE08A95F1F7B5
:101B30000000A0989DE09A95F1F70000A1988DE033
:101B40008A95F1F7000084E086BF089584E986BF96
:101B500088EE93E006B604FE0AC02AE12A95F1F762
:101B600000C00197B9F70E94800D80E0089581E0E0
:101B70000895CF93C82F84EA86BF0E94620D882300
:101B8000E9F081B1887F883021F081B1887F803190
:101B9000A9F4C3B984E886BF0E94620D882371F05E
:101BA00021B1287F30E0C0FD03C048E150E002C011
:101BB00040E450E081E02417350709F080E0CF9140
:101BC000089584B38C7F84BB85B38C7F85BB11B8AB
:101BD00080E280B984E086BF0895EF92FF920F9370
:101BE0001F93CF93DF937B01D42F880F0E94B90DF1
:101BF000C82F8701CC2351F0DD2341F0F8018191FA
:101C00008F010E94710DC82FD150F4CF0E94A60DF4
:101C1000882311F0C11103C00E94800DC0E08C2FF9
:101C2000DF91CF911F910F91FF90EF900895EF9268
:101C3000FF920F931F93CF93DF937B01D42F880FD5
:101C400081600E94B90DC82F8701CC2309F1DD23E3
:101C5000F9F0D15011F484E801C084EC86BF0E94F1
:101C6000620D882389F081B1887F90E0D11103C093
:101C700028E530E002C020E530E08217930721F428
:101C800083B1F801808301C0C0E00F5F1F4FDDCF3B
:101C90000E94A60D882311F0C11103C00E94800D7F
:101CA000C0E08C2FDF91CF911F910F91FF90EF90AB
:101CB0000895EF92FF920F931F93CF93DF93C82F56
:101CC000162F7A01D22F880F0E94B90D811103C0FF
:101CD00080E090E00AC0812F0E94710D8823C1F33B
:101CE0008C2F880F81600E94B90DC82FC1708701A9
:101CF000CC2309F1DD23F9F0D15011F484E801C0BF
:101D000084EC86BF0E94620D882389F081B1887FB0
:101D100090E0D11103C028E530E002C020E530E0BA
:101D20008217930721F483B1F801808301C0C0E0DA
:101D30000F5F1F4FDDCF0E94A60D882311F0C11148
:101D400003C00E94800DC0E08C2FDF91CF911F91C6
:101D50000F91FF90EF90089595B39F70807F892B2E
:101D600085BB82E08A95F1F700C0979A82E08A9558
:101D7000F1F700C0979882E08A95F1F700C00895C6
:101D8000CF93C82F662311F0969A01C09698959824
:101D90008C2F0E94AC0E8C2F8295807F0E94AC0EFF
:101DA00085E88A95F1F70000CF91089584B3806F9C
:101DB00084BB81B3806E81BB82B38F7182BB2FEFF6
:101DC00089EF90E0215080409040E1F700C0000092
:101DD00080E30E94AC0E8FE097E20197F1F700C01C
:101DE000000080E30E94AC0E8BE291E00197F1F7D6
:101DF00000C0000080E30E94AC0E8BE291E00197EE
:101E0000F1F700C0000080E20E94AC0E8BE291E08E
:101E10000197F1F700C0000060E088E20E94C00E68
:101E200060E08CE00E94C00E60E086E00E94C00E80
:101E300060E081E00E94C00E8FE99FE00197F1F71A
:101E400000C0000008950F931F93CF93DF93EB0121
:101E5000811102C080E801C080EC60E00E94C00EE9
:101E600010E100E0011104C0888181110CC001E083
:101E700080E261E00E94C00E1150A1F7DF91CF9186
:101E80001F910F9108952196F4CF8AE392E00E946A
:101E9000410A8091510280935202089586EF91E0A9
:101EA0000E94171390915102882311F09F7D01C069
:101EB0009062909351020895CF9386EF91E00E9433
:101EC000AC12C82F80915102CC2331F08F7D8093CA
:101ED00051020E94B81503C08062809351028C2F7A
:101EE000CF910895CF93DF93CDB7DEB76E970FB63E
:101EF000F894DEBF0FBECDBF0E942E030E943214A5
:101F00000E94D60E0E94EE0C0E94E10D86EF91E039
:101F10000E94450886EF91E00E94AC12811105C035
:101F20008091510280628093510280915B0283FF15
:101F300005C08091510280648093510284E092E058
:101F40000E94300981E08093590210925A020E9447
:101F5000F3022B013C019B01AC012053384F4F4F42
:101F60005F4F2D833E834F8358870E9452128D8F7F
:101F70000E94F3023D8D311107C038E8C32E33E1D2
:101F8000D32EE12CF12C05C028ECC22ED12CE12C53
:101F9000F12CA7019601260F371F481F591F2983CF
:101FA0003A834B835C833D8D311105C08091510292
:101FB0008460809351029EE088E10FB6F894A89562
:101FC00081BD0FBE91BD87E093E00E9494140E94F2
:101FD00060048D819E81AF81B8858D8B9E8BAF8B88
:101FE000B88F498A5A8A6B8A7C8A4D865E866F864C
:101FF000788A49865A866B867C86198E1A8E1B8E45
:102000001C8E1E8E812C912C54010E94F3026B01B8
:102010007C01860E971EA81EB91E84189508A60876
:10202000B70880913C0290913D02A0913E02B09190
:102030003F02AC01BD014F5F5F4F6F4F7F4F28EEF6
:10204000821623E09206A104B10448F098EE891AA2
:1020500093E0990AA108B108DB01CA01EACF809395
:102060003C0290933D02A0933E02B0933F020E9437
:102070001605C701B6010E94AC030E94BB153E8D38
:10208000311120C02D813E814F815885C701B60195
:102090000E94680C882309F44DC00E94F10CD701FE
:1020A000C6014496A11DB11D898F9A8FAB8FBC8F3D
:1020B000A70196012053384F4F4F5F4F2D833E832A
:1020C0004F835887298D3A8D4B8D5C8DC701B601A2
:1020D0000E94680C882309F44AC166E472E084E433
:1020E00092E00E94F40C80935502882309F42DC1DC
:1020F00010925302809151028E7F80935102409141
:10210000460250914702609144027091450284E07A
:1021100092E00E9436092091460230914702409198
:1021200044025091450266EF71E08AE392E00E941A
:10213000ED091E8E2D853E854F855889C701B60154
:102140000E94680C8823C9F0D701C6018C509E4FAD
:10215000AF4FBF4F8D879E87AF87B88B88E492E0E3
:102160000E94BA038093580290915102882311F083
:10217000977F01C098609093510229893A894B89D1
:102180005C89C701B6010E94680C8823C9F0A701C9
:10219000960128513C4F4F4F5F4F298B3A8B4B8B09
:1021A0005C8B8AE492E00E94BA118093560290916F
:1021B0005102882311F09D7F01C0926090935102DB
:1021C00029813A814B815C81C701B6010E94680C6C
:1021D0008823A1F13D8D31110AC00E9452128D8FCA
:1021E000882371F088EC90E0A0E0B0E012C080E4B9
:1021F00092E00E947C128D8F80935702811105C05E
:1022000088E893E1A0E0B0E004C080ED97E0A0E0B2
:10221000B0E09C01AD012C0D3D1D4E1D5F1D2983BD
:102220003A834B835C8390915702809151029923AA
:1022300011F08B7F01C08460809351020E940115D0
:10224000882329F08091510280618093510220916E
:10225000510280915202922F982390935202409102
:102260003B0250E04095509560913A0270E0462361
:102270005723452B71F42F7430E0892F90E080951F
:1022800090958223932321E0892B09F420E0822F6B
:1022900001C081E090910302992399F080FF11C061
:1022A000C701B60128EE33E040E050E00E942F194C
:1022B00021E0683C71058105910508F020E0822F3E
:1022C00001C080E081700E94B40340915A02C701AE
:1022D000B6010E94E70329853A854B855C85C701D5
:1022E000B6010E94680C882361F0D701C6018650B0
:1022F0009F4FAF4FBF4F89879A87AB87BC870E949C
:1023000024162D893E894F89588DC701B6010E9438
:10231000680C8823B1F02091020230E0A8EEB3E00F
:102320000E9457199B01AC012C0D3D1D4E1D5F1DD8
:102330002D8B3E8B4F8B588F8091590281110E94BB
:102340006404A8952601370160CE809153028F3F27
:1023500019F08F5F8093530280915302833008F409
:10236000E8CE80915102816080935102E2CE31E04B
:102370003E8FE0CE0F931F93CF93DF93CDB7DEB7A1
:1023800028970FB6F894DEBF0FBECDBF8C0127E0B3
:10239000AE014F5F5F4F60E088E60E94590E8111E9
:1023A00002C080E012C021E0AE01485F5F4F6FE0E5
:1023B00088E60E94590E8823A1F3888587FDF1CF16
:1023C000B801CE0101960E94570B28960FB6F894DB
:1023D000DEBF0FBECDBFDF91CF911F910F9108954A
:1023E000EF92FF920F931F93CF93DF93CDB7DEB79A
:1023F0002A970FB6F894DEBF0FBECDBF7C018E01C9
:102400000F5F1F4F88E0F80111928A95E9F7C70125
:102410000E942C0B811102C080E037C0BE016E5FAC
:102420007F4FC7010E94EA0B48E0B80188E60E948E
:10243000ED0D882389F321E0AE01465F5F4F6FE029
:1024400088E60E94590E882339F38FE089838A85B4
:102450008F778A8342E0B80188E60E94ED0D8823D9
:10246000D9F221E0AE01475F5F4F6EE088E60E943F
:10247000590E882389F28EE0898389858F778A8334
:1024800042E0B80188E60E94ED0D2A960FB6F89456
:10249000DEBF0FBECDBFDF91CF911F910F91FF9097
:1024A000EF900895CF93DF931F92CDB7DEB781E011
:1024B000898341E0BE016F5F7F4F83E20E94ED0D93
:1024C000811102C080E014C087E0898341E0BE0131
:1024D0006F5F7F4F83E20E94ED0D882399F380E1C7
:1024E000898341E0BE016F5F7F4F83E20E94ED0D63
:1024F0000F90DF91CF910895EF92FF921F93CF93AA
:10250000DF9300D0CDB7DEB77C0142E0BE016F5F44
:102510007F4F83E20E94170E182F8823A1F0298194
:102520003A81322723273227A5E0B0E00E945719CD
:1025300026E030E040E050E00E942F19F7012083B0
:10254000318342835383812F0F900F90DF91CF917E
:102550001F91FF90EF900895CF92DF92EF92FF923C
:102560000F931F93CF93DF93CDB7DEB7AA970FB624
:10257000F894DEBF0FBECDBF6C0180E0E82E80E096
:10258000F82E10E000E048E150E0B701CE010196DE
:102590000E94711CAE01495D5F4FBE01675E7F4FB7
:1025A000CE0101960E94A30A882351F1011118C09F
:1025B0008EE0FE017996D60101900D928A95E1F7A1
:1025C0008FA198A5A9A5BAA580931D0190931E017E
:1025D000A0931F01B09320011093600001E010C090
:1025E00020911D0130911E0140911F015091200149
:1025F0006FA178A589A59AA50E945D0A8111D8CFFF
:102600001F5F88E1E80EF11C123009F0BCCF802F6B
:10261000AA960FB6F894DEBF0FBECDBFDF91CF9163
:102620001F910F91FF90EF90DF90CF9008958F92C0
:102630009F92AF92BF92CF92DF92EF92FF921F9341
:10264000CF93DF93CDB7DEB7C254D1090FB6F8945C
:10265000DEBF0FBECDBF7C010E944E08811102C0BB
:1026600080E087C01091600081E0182780911D01F3
:1026700090911E01A0911F01B09120019C01AD011C
:102680002F5F3F4F4F4F5F4FB701CE0149960E94DA
:102690006C0A28E1129FC0011124FC01E050F040B7
:1026A0007F0160E0CF010E94811C4E01FAE18F0E94
:1026B000911C28E1129F50011124C12CD12C3FEF15
:1026C000A31AB30AF40161914F01C5018C0D9D1D40
:1026D000805090400E94811CFFEFCF1ADF0A27E153
:1026E000C216D10479F7698DC7010E94811C48E1A7
:1026F00050E0B701CE0101960E94711C48E150E004
:10270000BE01675E7F4FCE0101960E948F19892B13
:1027100009F0A6CFAE01415C5F4FBE016F5C7F4FF9
:10272000CE0101960E94A30A882309F499CF409113
:102730001D0150911E0160911F01709120014F5F9A
:102740005F4F6F4F7F4F2396CCACDDACEEACFFAC50
:1027500023974C155D056E057F0509F081CF109319
:10276000600040931D0150931E0160931F01709300
:102770002001CE5BDF4F0FB6F894DEBF0FBECDBF9A
:10278000DF91CF911F91FF90EF90DF90CF90BF909E
:10279000AF909F908F9008958BB19CB18C7141F454
:1027A0008091E6018F5F8F732091E501821306C04F
:1027B00081E08093E1018093E2010895E091E601D8
:1027C000F0E0EF55FE4F90838093E60108951F924D
:1027D0000F920FB60F9211242F933F934F935F9355
:1027E0006F937F938F939F93AF93BF93EF93FF93D9
:1027F0000E94CC13FF91EF91BF91AF919F918F9168
:102800007F916F915F914F913F912F910F900FBEEC
:102810000F901F9018951F920F920FB60F921124D0
:102820008F939F93EF93FF939091E4018091E30145
:10283000981302C055980DC0E091E301F0E0EF5D00
:10284000FE4F80818CB98091E3018F5F8F778093F9
:10285000E301FF91EF919F918F910F900FBE0F9029
:102860001F901895889882B3836082BB10BC83E365
:1028700089B91BB886E880BD88E98AB908955F994F
:102880000C94CC1308953091E6012091E5013217A4
:1028900081F0E091E501F0E0EF55FE4F2081FC0171
:1028A00020838091E5018F5F8F738093E50181E044
:1028B000089580E00895CF92DF92EF92FF92CF9338
:1028C000DF93D82FC091E401CF5FCF770E94F3024E
:1028D0006B017C0125E0C20ED11CE11CF11C809132
:1028E000E301C8130DC00E94F302A70196010E94E4
:1028F000680C8823A1F381E08093E20180E00DC0A1
:10290000E091E401F0E0EF5DFE4FD0838FB7F894E3
:10291000C093E401559A8FBF81E0DF91CF91FF9082
:10292000EF90DF90CF900895CF93DF93EC01FE01FD
:102930008491882329F00E945B1421968111F7CF9E
:10294000DF91CF9108958F929F92AF92BF92EF92B5
:10295000FF921F93CF93DF93CDB7DEB72A970FB6C1
:10296000F894DEBF0FBECDBF20E04AE0842E912C4C
:10297000A12CB12C11E0120FEE24E394F12CEC0EFB
:10298000FD1EE20EF11CA50194010E942F19605D4D
:10299000F7016083B901CA01212F61157105810515
:1029A000910541F7112359F01150E1E0F0E0EC0FEF
:1029B000FD1FE10FF11D80810E945B14F3CF2A9669
:1029C0000FB6F894DEBF0FBECDBFDF91CF911F9140
:1029D000FF90EF90BF90AF909F908F900895CF930E
:1029E0006AE070E00E940719C82F80E090E00E9422
:1029F000A3148EE20E945B1480E38C0FCF910C94A1
:102A00005B148091E20108958FB7F8941092E2016F
:102A10008FBF08958FB7F8949091E1011092E10172
:102A20008FBF81E0911101C080E00895E091F50130
:102A30008E2F90E0FC013197E830F10548F5E65D16
:102A4000FF4F0C9451198091E7019091E80108958E
:102A50008091E9019091EA0108958091EB019091B4
:102A6000EC0108958091ED019091EE01089580911F
:102A7000EF019091F00108958091F1019091F201A0
:102A800008958091F30102C08091F40190E00895CF
:102A900080E090E008951F93CF93DF93CDB7DEB72A
:102AA0002E970FB6F894DEBF0FBECDBF182F8EE065
:102AB000E7EEF1E0DE01119601900D928A95E1F7C3
:102AC0000E941615212F110F330BE091F501E5300F
:102AD00018F041E050E002C04AE050E0429FB001EF
:102AE000439F700D529F700D1124860F971F97FD05
:102AF00035C04E2F50E0FA013197E830F10570F5FE
:102B0000EE5CFF4F0C9451199A83898318C09C8303
:102B10008B8315C09E838D8312C098878F830FC0CF
:102B20009A8789870CC09C878B8709C08D33910554
:102B3000ACF48D8704C08230910584F48E87CE0179
:102B400001960E944E08882349F08EE0FE013196DE
:102B5000A7EEB1E001900D928A95E1F72E960FB69F
:102B6000F894DEBF0FBECDBFDF91CF911F910895C6
:102B70001092F5010895CF93DF93C82F83FF06C00D
:102B80000E94450F8091F501811125C09091F501BA
:102B90008C2F8170DC2FD270C470992309F18823A7
:102BA00019F081E00E944B15DD2319F08FEF0E9490
:102BB0004B15CC2309F445C08091F501893071F49F
:102BC0008EE0E7EEF1E0A6EFB1E001900D928A957C
:102BD000E1F70E944E0F1092F50133C08F5F2FC0B6
:102BE000882351F08091540290E0019669E070E0F2
:102BF0000E941B1980935402DD2351F080915402EE
:102C000090E0089669E070E00E941B1980935402DE
:102C1000CC23B9F080915402883039F490915A0253
:102C200081E0892780935A020CC08EE0E6EFF1E044
:102C3000A7EEB1E001900D928A95E1F781E08093D3
:102C4000F501DF91CF9108958F929F92AF92BF923D
:102C5000CF92DF92EF92FF920F931F93CF93DF9368
:102C6000CDB7DEB769970FB6F894DEBF0FBECDBF04
:102C7000E091F501EE2309F443C0E93041F460EB43
:102C800070E080E00E94230F60EC70E09EC2E15093
:102C9000E73040F4F0E0EE0FFF1FE553FF4F608197
:102CA000718102C065EB74E08E010E5E1F4FC8019A
:102CB0000E947A190E9416159F938F931F930F936A
:102CC0008FEA94E09F938F931F9281E18F9301513C
:102CD00011091F930F930E94B019B80180E00E9460
:102CE000230F6EE974E0C8010E947A19B80181E0EF
:102CF0000E94230F0FB6F894DEBF0FBECDBF68C28F
:102D0000F09054028F2D90E08E010F5F1F4F88309E
:102D1000910508F02EC2FC01E65CFF4F0C9451199E
:102D200080915502882351F180914602909147028B
:102D3000E0914402F09145022AE030E0B9010E949E
:102D400007199F938F937F936F93CF01B9010E94CF
:102D500007199F938F937F936F938DE894E09F93D0
:102D60008F931F9281E18F931F930F930E94B0194D
:102D70000FB6F894DEBF0FBECDBF05C06FE774E09D
:102D8000C8010E947A19B80180E00E94230F809147
:102D900051021F928F9380913B021F928F938091DB
:102DA0003A021F928F938AE694E064C192E0F9128E
:102DB00009C0E0911402F0911502809116029091E1
:102DC000170208C0E0911002F091110280911202E6
:102DD0009091130240910402509105026091060205
:102DE00070910702452B462B472B61F46BE574E08D
:102DF000C8010E947A19B80180E00E94230F6CE498
:102E000074E0B3C12AE030E0B9010E940719462FEF
:102E1000E72ED82EC92ECF01B9010E94071922E052
:102E2000F21611F024E501C028E4CF92DF92EF9270
:102E30004F939F938F937F936F931F922F938DE365
:102E400094E09F938F931F9281E18F931F930F9331
:102E50000E94B019B80180E00E94230F0FB6F894C9
:102E6000DEBF0FBECDBF92E0F91209C060910C0227
:102E700070910D0280910E0290910F0208C0609136
:102E800008027091090280910A0290910B02F09061
:102E90000402E0900502D0900602C09007022F2D98
:102EA0003E2D4D2D5C2D0E942F19CF92DF92EF9277
:102EB000FF92C9016AE070E00E9407199F938F9307
:102EC0007F936F938FE294E09F938F931F9281E1A2
:102ED0008F931F930F9313C1809139021F928F9389
:102EE0008DE194E09F938F931F9281E18F931F93C5
:102EF0000F930E94B019B80180E00E94230F0FB613
:102F0000F894DEBF0FBECDBF80915502811103C082
:102F100061E174E02AC160E084E092E00E94AC09C3
:102F2000F82E61E084E092E00E94AC09181624F0CB
:102F3000811104C09DE303C09BE201C09DE21F1408
:102F400024F0F11004C08DE303C08BE201C08DE2D8
:102F50001F929F931F928F9381E094E0FAC0C090DC
:102F60003C02D0903D02E0903E02F0903F022CE304
:102F7000822E912CA12CB12CC701B601A501940180
:102F80000E942F19CA01B901A50194010E942F19AD
:102F90009F938F937F936F93C701B60120E13EE02B
:102FA00040E050E00E942F19CA01B90128E130E049
:102FB00040E050E00E942F199F938F937F936F936F
:102FC000C701B60120E831E541E050E00E942F1929
:102FD0005F934F933F932F938DEE93E09F938F9347
:102FE0001F9231E1F32EFF921F930F930E94B019AD
:102FF000B80180E00E94230F80915B021F928F93A3
:1030000080913F028F9380913E028F9380913D0289
:103010008F9380913C028F938DED93E09F938F93DC
:103020001F92FF921F930F932CC06DEC73E0C801A9
:103030000E947A19B80180E00E94230F8091580203
:10304000882311F1F0904802E09049022F2D3E2D87
:10305000A8E8B3E10E9457192FEF33E040E050E0B9
:103060000E942F195F934F933F932F93EF92FF92FC
:1030700080EC93E09F938F931F9281E18F931F9336
:103080000F930E94B0199BC066EB73E06EC08091F5
:1030900056028823B9F180914C021F928F93809140
:1030A0004B021F928F9380914A021F928F9385EA61
:1030B00093E09F938F931F9291E1F92EFF921F93BC
:1030C0000F930E94B019B80180E00E94230F8091F5
:1030D00050021F928F9380914F021F928F93809185
:1030E0004E021F928F9380914D021F928F9382E91F
:1030F00093E09F938F931F92FF921F930F930E94D1
:10310000B0195DC067E873E0C8010E947A19B80180
:1031100080E00E94230F65E773E027C068E673E054
:10312000C8010E947A19B80180E00E94230F8091A3
:1031300057028823C1F0809143028F93809142020D
:103140008F93809141028F93809140028F9380E60C
:1031500093E09F938F931F9281E18F931F930F931F
:103160000E94B0192CC064E573E0C8010E947A196E
:103170002BC00E944B031F928F9380915A021F9283
:103180008F9385E493E09F938F931F9281E1F82EB4
:10319000FF921F930F930E94B019B80180E00E9424
:1031A000230F809151021F928F9386E393E09F93A8
:1031B0008F931F92FF921F930F930E94B0190FB627
:1031C000F894DEBF0FBECDBFB80181E00E94230F8F
:1031D00069960FB6F894DEBF0FBECDBFDF91CF91D9
:1031E0001F910F91FF90EF90DF90CF90BF90AF9025
:1031F0009F908F900895991B79E004C0991F9617AE
:1032000008F0961B881F7A95C9F780950895AA1B28
:10321000BB1B51E107C0AA1FBB1FA617B70710F0C1
:10322000A61BB70B881F991F5A95A9F780959095F3
:10323000BC01CD01089597FB072E16F4009407D02A
:1032400077FD09D00E94071907FC05D03EF4909540
:1032500081959F4F0895709561957F4F0895A1E2E4
:103260001A2EAA1BBB1BFD010DC0AA1FBB1FEE1F00
:10327000FF1FA217B307E407F50720F0A21BB30B4B
:10328000E40BF50B661F771F881F991F1A9469F7C7
:1032900060957095809590959B01AC01BD01CF0123
:1032A0000895EE0FFF1F0590F491E02D0994A29F61
:1032B000B001B39FC001A39F700D811D1124911D0A
:1032C000B29F700D811D1124911D08950E94571900
:1032D000A59F900DB49F900DA49F800D911D11246A
:1032E0000895FB01DC018D91059080190110D9F33F
:1032F000990B0895FB01DC0105900D920020E1F788
:103300000895FB01DC014150504030F08D91059053
:10331000801919F40020B9F7881B990B0895FB0157
:10332000DC0104C08D910190801921F4415050407E
:10333000C8F7881B990B0895FC018191861721F02D
:103340008823D9F7992708953197CF010895FB0174
:10335000DC018D91019080190110D9F3990B08952A
:10336000AEE0B0E0E6EBF9E10C94A01C0D891E89FB
:103370008F89988D2EE02C831A83098397FF02C0D2
:1033800080E090E801979E838D83AE01455E5F4F9C
:10339000698D7A8DCE0101960E94E0194D815E8182
:1033A00057FD0AC02F813885421753070CF49A0144
:1033B000F801E20FF31F10822E96E4E00C94BC1C7F
:1033C000ABE0B0E0E6EEF9E10C94921C6C017B01FD
:1033D0008A01FC0117821682838181FFCCC1CE0154
:1033E00001963C01F6019381F70193FD859193FFCE
:1033F00081917F01882309F4BAC1853239F493FDA4
:10340000859193FF81917F01853229F4B60190E087
:103410000E94D71BE7CF912C212C312CFFE1F31513
:10342000D8F08B3279F038F4803279F08332A1F41D
:10343000232D20611DC08D3261F0803369F4232D6E
:10344000216016C0832D8260382EE32DE4603E2E6D
:103450002AC0F32DF8601DC037FC2DC020ED280FC9
:103460002A3040F08E32B9F436FC81C1232D20641D
:10347000322E19C036FE06C08AE0989E200D112417
:10348000922E11C0EAE02E9E200D1124222EF32D43
:10349000F0623F2E08C08C3621F4832D8068382ED0
:1034A00002C0883641F4F70193FD859193FF819125
:1034B0007F018111B3CF982F9F7D9554933028F4CD
:1034C0000C5F1F4F9FE399830DC0833631F0833724
:1034D00071F0833509F059C021C0F80180818983DA
:1034E0000E5F1F4F88248394912C530113C0280131
:1034F000F2E04F0E511CF801A080B18036FE03C0EF
:10350000692D70E002C06FEF7FEFC5010E94CC1BF8
:103510004C018201F32DFF773F2E16C0280122E0D7
:10352000420E511CF801A080B18036FE03C0692D07
:1035300070E002C06FEF7FEFC5010E94C11B4C011C
:10354000F32DF0683F2E820133FC1BC0822D90E0EA
:1035500088169906B0F4B60180E290E00E94D71B6D
:103560002A94F4CFF50137FC859137FE81915F01F4
:10357000B60190E00E94D71B21102A9421E0821A04
:1035800091088114910471F7E8C0843611F08936EE
:1035900041F5F80137FE07C0608171818281938116
:1035A0000C5F1F4F08C060817181072E000C880BD3
:1035B000990B0E5F1F4FF32DFF763F2E97FF09C02B
:1035C00090958095709561957F4F8F4F9F4FF068D4
:1035D0003F2E2AE030E0A3010E94131C882E86189B
:1035E00045C0853731F4232D2F7EB22E2AE030E0FE
:1035F00025C0932D997FB92E8F36C1F018F48835E8
:1036000079F0B5C0803719F0883721F0B0C0E92FC4
:10361000E061BE2EB4FE0DC0FB2DF460BF2E09C0CC
:1036200034FE0AC0292F2660B22E06C028E030E002
:1036300005C020E130E002C020E132E0F801B7FE31
:1036400007C060817181828193810C5F1F4F06C02A
:103650006081718180E090E00E5F1F4FA3010E94A6
:10366000131C882E8618FB2DFF773F2E36FE0DC0CB
:10367000232D2E7FA22E891458F434FE0BC032FC69
:1036800009C0832D8E7EA82E05C0B82CA32C03C0A4
:10369000B82C01C0B92CA4FE0FC0FE01E80DF11D2D
:1036A0008081803321F49A2D997EA92E09C0A2FE33
:1036B00006C0B394B39404C08A2D867809F0B394FD
:1036C000A3FC11C0A0FE06C0B21488F4280C922CF2
:1036D0009B180EC0B21460F4B60180E290E00E9424
:1036E000D71BB394F7CFB21418F42B1802C0982C40
:1036F000212CA4FE10C0B60180E390E00E94D71BED
:10370000A2FE17C0A1FC03C088E790E002C088E5D4
:1037100090E0B6010CC08A2D867859F0A1FE02C057
:103720008BE201C080E2A7FC8DE2B60190E00E942E
:10373000D71B891438F4B60180E390E00E94D71BB0
:103740009A94F7CF8A94F301E80DF11D8081B601B8
:1037500090E00E94D71B8110F5CF222009F442CEC1
:10376000B60180E290E00E94D71B2A94F6CFF601C2
:103770008681978102C08FEF9FEF2B96E2E10C9438
:10378000AE1CFC010590615070400110D8F7809587
:1037900090958E0F9F1F0895FC016150704001901D
:1037A0000110D8F7809590958E0F9F1F08950F9365
:1037B0001F93CF93DF93FB01238121FD03C08FEF84
:1037C0009FEF2CC022FF16C046815781248135818E
:1037D0004217530744F4A081B1819D012F5F3F4FF1
:1037E000318320838C93268137812F5F3F4F37832E
:1037F000268314C08B01EC01FB010084F185E02DD0
:103800000995892BE1F6D80116968D919C91179711
:10381000019617969C938E931697CE01DF91CF91C8
:103820001F910F910895FA01AA27283051F12031F4
:1038300081F1E8946F936E7F6E5F7F4F8F4F9F4F44
:10384000AF4FB1E03ED0B4E03CD0670F781F891F86
:103850009A1FA11D680F791F8A1F911DA11D6A0F54
:10386000711D811D911DA11D20D009F468943F9107
:103870002AE0269F11243019305D3193DEF6CF0106
:103880000895462F4770405D4193B3E00FD0C9F7CC
:10389000F6CF462F4F70405D4A3318F0495D31FD39
:1038A0004052419302D0A9F7EACFB4E0A69597958C
:1038B000879577956795BA95C9F700976105710562
:1038C00008959B01AC010A2E0694579547953795AC
:1038D0002795BA95C9F7620F731F841F951FA01D06
:1038E0000895DC01CB01FC01E199FECF06C0FFBBCE
:1038F000EEBBE09A31960DB20D9241505040B8F7B0
:103900000895262FE199FECF9FBB8EBBE09A0197C9
:103910000DB2021631F02DBB0FB6F894E29AE19A7F
:103920000FBE08952F923F924F925F926F927F92B7
:103930008F929F92AF92BF92CF92DF92EF92FF92BF
:103940000F931F93CF93DF93CDB7DEB7CA1BDB0B6B
:103950000FB6F894DEBF0FBECDBF09942A88398810
:1039600048885F846E847D848C849B84AA84B98417
:10397000C884DF80EE80FD800C811B81AA81B98123
:10398000CE0FD11D0FB6F894DEBF0FBECDBFED0137
:063990000895F894FFCF3A
:1039960001000306090C0FB4005E012C0120030A86
:1039A600001E000201544C4F570054484947480036
:1039B600484C4F57004848494748005448595354C3
:1039C6000048485953540043535653454300534FF8
:1039D600554E44001F1C1F1E1F1E1F1F1E1F1E1F8D
:1039E60053455420736176652026206578697400F6
:1039F60041434B2063616E63656C00DF04D904D4D8
:0A3A060004CE04C804C204BB04008F
:00000001FF
