:100000000C943A000C9463000C9463000C9463000D
:100010000C9463000C9463000C9415010C94630021
:100020000C9465000C9463000C9463000C946300C2
:100030000C9463000C9463000C9463000C946300B4
:100040000C9463000C9463000C9463000C946300A4
:100050000C946300100515051A051F0524052905D4
:100060002E053105550558055B055E0561056405DE
:1000700067056C0511241FBECFE5D4E0DEBFCDBF00
:1000800084B78093EE0014BE0FB6F894A89581B59E
:10009000886181BD11BC0FBE10E0A0E6B0E0E8E8C9
:1000A000FCE002C005900D92AE36B107D9F720E012
:1000B000AEE6B0E001C01D92AE3EB207E1F70E948D
:1000C0006D030C9442060C9400001F920F920FB621
:1000D0000F9211242F938F939F93AF93BF9380918F
:1000E000760090917700A0917800B09179008F5BB5
:1000F0009F4FAF4FBF4F8093760090937700A093B0
:100100007800B09379008091740090917500885EBA
:100110009D4F90937500809374008091740090912E
:100120007500883E9340E8F08091740090917500CE
:10013000885E934090937500809374008091760060
:1001400090917700A0917800B09179000196A11D5F
:10015000B11D8093760090937700A0937800B093C0
:100160007900BF91AF919F918F912F910F900FBE0A
:100170000F901F901895CF92DF92EF92FF928FB75A
:10018000F894C0907600D0907700E0907800F090DE
:10019000790020917400309175006CB57DB508B67A
:1001A00002FE09C06CB57DB591E4C90ED11CE11CFD
:1001B000F11C285E3D4F8FBFCB01A0E0B0E0BC0139
:1001C000CD01620F731F811D911D28EE33E040E0C9
:1001D00050E00E940606CA01B9016C0D7D1D8E1DFE
:1001E0009F1DFF90EF90DF90CF900895F89484B713
:1001F000806884BF84BF87B3807F87BB88B38F60EC
:1002000088BB1FBC82E08EBD1DBC1CBC20E137E258
:100210003BBD2ABD94E198BF99BF85BD14BC7894BD
:10022000089586B380958F7008951F920F920FB630
:100230000F9211242F933F934F935F936F937F936C
:100240008F939F93AF93BF93EF93FF938AB59BB523
:10025000805F984D9BBD8ABD0E94110190916E00F8
:10026000EFE6F0E040E050E0A1E0B0E09D01042EB8
:1002700001C0220F0A94EAF7682F622329F06081F7
:10028000633038F46F5F04C06081662311F0615001
:1002900060836191633051F4692F622359F4922B8A
:1002A00030917300232B2093730004C0611102C0AE
:1002B000209592234F5F5F4F44305105B9F69093DC
:1002C0006E00FF91EF91BF91AF919F918F917F91C0
:1002D0006F915F914F913F912F910F900FBE0F90B3
:1002E0001F9018959FB7F894809173001092730037
:1002F0009FBF089508950895DC019EE0E0E6F0E0D8
:1003000001900D929A95E1F708950F931F93CF9363
:10031000DF93FC014081518157FD39C02281338137
:10032000253F61E036079CF54217530784F5868127
:100330009781893E63E0960750F5A481B581A8179F
:10034000B90728F5C085D185BE01615071096436B1
:100350007105E8F4628573858B0101501109083C31
:100360001105A8F4241B350BC217D30780F48A1B90
:100370009B0B6817790758F4848581508C3338F4C7
:1003800091E08585823008F090E0892F01C080E0FF
:100390008170DF91CF911F910F91089526E3FC01A9
:1003A00011922A95E9F70895FC01653F21E0720753
:1003B00008F06FC0493E83E0580708F06AC08081AA
:1003C0009181A281B3810097A105B10541F477879E
:1003D000668775876487538B428B518B408B24854E
:1003E00035856217730710F475876487268537850E
:1003F0002617370710F477876687208931894217D7
:10040000530710F4518B408B228933892417350709
:1004100010F4538B428B803422E492072FE0A20722
:10042000B105F8F40196A11DB11D80839183A283CB
:10043000B38384819581A681B781860F971FA11D03
:10044000B11D84839583A683B78380859185A2851A
:10045000B385840F951FA11DB11D80879187A28749
:10046000B38784A990E0DC01AA0FBB1FAE0FBF1FAA
:1004700055967C936E93549795965C934E93949770
:1004800001968770992784AB85A9883010F48F5F17
:1004900085AB08950F931F93CF93DF93DC01FB018E
:1004A000B90100851185C081D1818C9180FF07C081
:1004B000C00FD11F31E04C175D0734F004C031E0AC
:1004C000C417D5070CF430E0932FC281D38181FF8C
:1004D00006C0C01BD10BC417D50724F005C04C17AC
:1004E0005D0714F0932F9260C285D38524813581F6
:1004F00082FF06C02C0F3D1F6217730724F004C053
:10050000261737070CF094604681578183FF06C099
:100510004C1B5D0B4617570724F004C06417750782
:100520000CF098609C9311968C91119798231196DA
:100530009C93DF91CF911F910F910895FC01208131
:1005400021830895FC01A0819181828123813A2F2A
:10055000390F380F320FE4813E1321C09A30F8F47E
:100560002A30E8F430E0EAE08E9F200D311D11249E
:10057000253FF1E03F0798F4892F90E0EAE0AE9F35
:10058000800D911D1124893EF3E09F0740F4FB018B
:1005900031832083FA019183808381E0089580E094
:1005A0000895DC01CB01821B930BA40BB50B809546
:1005B0009095A095B0958827B7FD83959927AA2790
:1005C000BB27089524B599B396959170981731F08B
:1005D00094B5921B9436B8F380E0089581E00895B5
:1005E000D198D99A0895D998D19A08959F92AF92A7
:1005F000BF92CF92DF92EF92FF920F931F93CF9310
:10060000DF9300D000D01F92CDB7DEB77C016B0125
:100610008E010F5F1F4F85E0F80111928A95E9F76F
:10062000AFB6F894D198D99AFAE1FA95F1F700C0EB
:1006300080E00E94E202811102C080E02FC081E0D0
:100640000E94E2028823C9F380E00E94E20288232C
:10065000A1F3B12C81E00E94E202882371F394B4EB
:1006600080E00E94E202882341F38B2D86958695D7
:100670008695F801E80FF11D8081880F808394B57D
:1006800099199E3210F081608083B39488E2B81289
:10069000E1CFA601B701C8010E94A202AFBE0F9030
:1006A0000F900F900F900F90DF91CF911F910F91AE
:1006B000FF90EF90DF90CF90BF90AF909F90089504
:1006C000089508958DEC90E00E949E028091E400D0
:1006D0008093E500089580E00895CF93DF93CDB730
:1006E000DEB765970FB6F894DEBF0FBECDBF0E9490
:1006F000F6000E94EE040E9461030E94F0020E9434
:10070000600389E890E00E947C018091EE0083FF05
:1007100005C08091E40080648093E40087E990E064
:100720000E94CE011092EC001092ED000E94BB00DE
:100730002B013C01DC01CB018053984FAF4FBF4FE1
:10074000898B9A8BAB8BBC8B9EE088E10FB6F894BB
:10075000A89581BD0FBE91BD49865A866B867C8661
:100760004D825E826F82788649825A826B827C8259
:100770001D861E861F86188A1D8A812C912C540185
:100780000E94BB006B017C01860E971EA81EB91E3D
:1007900084189508A608B7088091CF009091D000E2
:1007A000A091D100B091D200AC01BD014F5F5F4F6D
:1007B0006F4F7F4F28EE821623E09206A104B1040A
:1007C00048F098EE891A93E0990AA108B108DB0174
:1007D000CA01EACF8093CF009093D000A093D100BC
:1007E000B093D200C701B6010E9472010E94880531
:1007F0008D89811120C029893A894B895C89C7017B
:10080000B6010E94D102882309F44DC00E94F30270
:10081000D701C6014496A11DB11D8D879E87AF8764
:10082000B88BD701C6018053984FAF4FBF4F898B0C
:100830009A8BAB8BBC8B2D853E854F855889C70124
:10084000B6010E94D102882309F4C5C069ED70E0A9
:1008500087ED90E00E94F6028093E800882309F477
:10086000A8C01092E6008091E4008E7F8093E4009F
:100870004091D9005091DA006091D7007091D80072
:1008800087E990E00E94D4012091D9003091DA00EC
:100890004091D7005091D80069E870E08DEC90E06D
:1008A0000E944A021D8A2D813E814F815885C701D1
:1008B000B6010E94D102882351F0D701C6018C50A5
:1008C0009E4FAF4FBF4F8D839E83AF83B8872985DF
:1008D0003A854B855C85C701B6010E94D102882309
:1008E00051F0D701C60188519C4FAF4FBF4F898748
:1008F0009A87AB87BC872091E4008091E500922F16
:1009000098239093E5004091CE0050E0409550959B
:100910006091CD0070E046235723452B71F42F746E
:1009200030E0892F90E0809590958223932321E0F9
:10093000892B09F420E0822F01C081E0909196007C
:10094000992399F080FF11C0C701B60128EE33E06A
:1009500040E050E00E94060621E0683C71058105F8
:10096000910508F020E0822F01C080E081700E9494
:100970007A014091ED00C701B6010E947B012981F7
:100980003A814B815C81C701B6010E94D102882364
:1009900061F0D701C60186509F4FAF4FBF4F89838B
:1009A0009A83AB83BC830E94F105A8952601370189
:1009B000E7CE8091E6008F3F19F08F5F8093E600CD
:1009C0008091E600833008F46DCF8091E40081606F
:1009D0008093E40067CF91E09D8B65CF1AB80895AE
:1009E000CF93DF93CDB7DEB72E970FB6F894DEBF67
:1009F0000FBECDBF9EE0EAE7F0E0DE011196019068
:100A00000D929A95E1F790918800492F50E0FA01F4
:100A10003197E830F10548F5E65DFF4F0C94280664
:100A200020917A0030917B0022C020917C0030918F
:100A30007D001DC020917E0030917F0018C0209164
:100A400080003091810013C020918200309183009A
:100A50000EC0209184003091850009C0209186004D
:100A600002C02091870030E002C020E030E0E82F93
:100A7000880FFF0B953018F0A1E0B0E002C0AAE0AB
:100A8000B0E0AE9FC001AF9F900DBE9F900D1124AE
:100A9000820F931F97FD33C0FA013197E830F105BB
:100AA00070F5EE5CFF4F0C9428069A83898318C07A
:100AB0009C838B8315C09E838D8312C098878F8300
:100AC0000FC09A8789870CC09C878B8709C08D339C
:100AD0009105ACF48D8704C08230910584F48E8733
:100AE000CE0101960E948501882349F08EE0FE0127
:100AF0003196AAE7B0E001900D928A95E1F72E9623
:100B00000FB6F894DEBF0FBECDBFDF91CF91089531
:100B1000CF93DF93C82F83FF06C00E9462038091AA
:100B20008800811125C0909188008C2F8170DC2F66
:100B3000D270C470992309F1882319F081E00E94D2
:100B4000F004DD2319F08FEF0E94F004CC2309F4A8
:100B500045C080918800893071F48EE0EAE7F0E0CA
:100B6000A9E8B0E001900D928A95E1F70E946B032D
:100B70001092880033C08F5F2FC0882351F080917E
:100B8000E70090E0019669E070E00E94F205809332
:100B9000E700DD2351F08091E70090E0089669E0DE
:100BA00070E00E94F2058093E700CC23B9F08091B9
:100BB000E700883039F49091ED0081E08927809337
:100BC000ED000CC08EE0E9E8F0E0AAE7B0E00190AB
:100BD0000D928A95E1F781E080938800DF91CF91B3
:100BE0000895089597FB072E16F4009407D077FD1B
:100BF00009D00E942E0607FC05D03EF49095819501
:100C00009F4F0895709561957F4F0895A1E21A2E28
:100C1000AA1BBB1BFD010DC0AA1FBB1FEE1FFF1FA0
:100C2000A217B307E407F50720F0A21BB30BE40BF0
:100C3000F50B661F771F881F991F1A9469F7609537
:100C40007095809590959B01AC01BD01CF010895F1
:100C5000EE0FFF1F0590F491E02D0994AA1BBB1B1A
:100C600051E107C0AA1FBB1FA617B70710F0A61BAC
:100C7000B70B881F991F5A95A9F780959095BC01CD
:080C8000CD010895F894FFCFA7
:0E0C8800B4005E012C0120030A001E000201D0
:00000001FF
