:100000000C9486010C94AF010C94AF010C94AF01D9
:100010000C94AF010C94AF010C945E020C94AF01F0
:100020000C94B1010C94AF010C94AF010C943B0EF5
:100030000C945F0E0C94AF010C94AF010C94AF01C3
:100040000C94AF010C94AF010C94AF010C94AF0170
:100050000C94AF0188EB4C492B1918CB08090D0AF9
:10006000000D0A232048206D696E2C6D61782C618B
:1000700076673D00232054206D696E2C6D61782CCD
:100080006176673D0023206E6F2076616C69642085
:1000900073616D706C65730D0A000D0A0023206397
:1000A0006F756E743D000D0A0020534F554E443D50
:1000B00000204353565345433D002048485953546C
:1000C0003D000D0A232054485953543D0020484810
:1000D0004947483D0020484C4F573D00205448496F
:1000E00047483D002320544C4F573D004449414769
:1000F000204F46460044494147204F4E000D0A001C
:10010000204C4544533D002052455345543D002367
:10011000204B45593D004449414700504147452047
:10012000005345542000435356204F464600435346
:1001300056204F4E00434C454152455252005245C5
:1001400053455453544154530044454641554C542F
:1001500053004C4F414400534156450041434B002E
:10016000535441545300434F4E4649470053544162
:100170005455530023205254432059592D4D4D2D91
:1001800044442048483A4D4D3A535320573D312E70
:100190002E372028323030302E2E32303939290D8A
:1001A0000A0023205041474520302E2E383B204462
:1001B000494147204F4E7C4F46463B20434C4541EA
:1001C000524552520D0A002320435356204F4E7C75
:1001D0004F46463B2053455420544C4F577C54487F
:1001E0004947487C484C4F577C48484947487C54CD
:1001F000485953547C48485953547C4353565345AB
:10020000437C534F554E44206E0D0A002320535417
:100210004154555320434F4E46494720535441546F
:10022000532041434B2053415645204C4F414420DD
:1002300044454641554C545320524553455453541C
:100240004154530D0A0048454C500023204552525A
:1002500020636F6D6D616E642F76616C75652F6DB7
:100260006F64756C650D0A0023204F4B0D0A002347
:1002700020455252206C696E652064697363617217
:100280006465640D0A000D0A0032300075707469EF
:100290006D655F732C74656D705F632C68756D6937
:1002A000646974795F7063742C745F7472656E64D2
:1002B0002C685F7472656E642C616C61726D2C6168
:1002C000636B2C6572726F72732C6164635F726111
:1002D000772C6C75782C7274630D0A0023204154BE
:1002E0006D6567613136206D6F6E69746F72204382
:1002F00020384D487A3B2048454C5020666F72208C
:10030000636F6D6D616E64730D0A000011241FBE72
:10031000CFE5D4E0DEBFCDBF84B780931F0214BE0B
:100320000FB6F894A89581B5886181BD11BC0FBE48
:1003300010E0A0E6B0E0EAE9F2E202C005900D921A
:10034000AE39B107D9F722E0AEE9B0E001C01D92A5
:10035000AF31B207E1F70E94390B0C943B110C94BA
:1003600000001F921FB61F9211242F938F939F930B
:10037000AF93BF938091AB009091AC00A091AD0082
:10038000B091AE008F5B9F4FAF4FBF4F8093AB00DC
:100390009093AC00A093AD00B093AE008091A90003
:1003A0009091AA00885E9D4F9093AA008093A90027
:1003B0008091A9009091AA00883E9340E8F0809136
:1003C000A9009091AA00885E93409093AA00809320
:1003D000A9008091AB009091AC00A091AD00B091CC
:1003E000AE000196A11DB11D8093AB009093AC00AF
:1003F000A093AD00B093AE00BF91AF919F918F914C
:100400002F911F901FBE1F901895CF92DF92EF92F1
:10041000FF924FB7F894C090AB00D090AC00E09042
:10042000AD00F090AE002091A9003091AA008CB5EB
:100430009DB508B602FE09C08CB59DB551E4C50E48
:10044000D11CE11CF11C285E3D4F4FBFA0E0B0E085
:10045000BC01CD01620F731F811D911D28EE33E099
:1004600040E050E00E94AB10CA01B9016C0D7D1D47
:100470008E1D9F1DFF90EF90DF90CF900895F89410
:1004800084B7806884BF84BF87B3807F87BB88B30D
:100490008F6088BB1FBC82E08EBD1DBC1CBC20E1F0
:1004A00037E23BBD2ABD94E198BF99BF85BD14BC1E
:1004B0007894089586B380958F7008951F920F9257
:1004C0000FB60F9211242F933F934F935F936F9327
:1004D0007F938F939F93AF93BF93CF93DF93EF93CC
:1004E000FF938AB59BB5805F984D9BBD8ABD0E94E6
:1004F0005A024091A300E4EAF0E060E070E0A1E07D
:10050000B0E09D01062E01C0220F0A94EAF79191F6
:10051000582F5223511541F0933018F49F5FEF018B
:100520009A93933091F407C0911559F19150EF01CE
:100530009A93933021F5942F9223911106C0422B68
:100540009091A800922B9093A8006F5F7F4F64302A
:100550007105B9F64093A300FF91EF91DF91CF9120
:10056000BF91AF919F918F917F916F915F914F91CB
:100570003F912F910F900FBE0F901F9018959111E2
:10058000E4CF20954223E1CF9FB7F8948091A80053
:100590001092A8009FBF08950895CF92DF92EF9226
:1005A000FF92CF93DF93EC0180E487B986E886B9A8
:1005B000369A0E9405026B5F7F4F8F4F9F4F6B01F2
:1005C0007C0136990CC084B195B19983888381E010
:1005D000DF91CF91FF90EF90DF90CF9008950E9430
:1005E0000502A70196010E94190A811551F380E0C6
:1005F000EFCFCF92DF92EF92FF926B017C0141111E
:1006000011C09FB7F89481B3837081BB82B38370AC
:1006100082BB9FBF8FEF85BB84BBFF90EF90DF90C5
:10062000CF90089581B38C6F81BB20919F00309152
:10063000A0004091A1005091A200C701B6010E9404
:10064000190A811551F38CE2C80E81E0D81EE11C15
:10065000F11CC0929F00D092A000E092A100F09205
:10066000A20080919E0090E001966AE070E00E94F6
:10067000971080939E004FB7F89422B330919E005C
:10068000377081E090E001C0880F3A95EAF78095D5
:100690008C7F2370822B82BB4FBF8FEF84BBE09196
:1006A0009E00F0E0EC5AFF4FE491E5BBB6CFCF934C
:1006B000C82F87FF03C08DE20E94AA0EC7FDC19517
:1006C0006C2F70E080E090E0CF910C94F10E8CE202
:1006D0000C94AA0ECF936AE00E947710C92F805D18
:1006E0000E94AA0E80E38C0FCF910C94AA0E8CE886
:1006F00092E00C94E20E60912701709128018091A4
:10070000290190912A010E94F10E0E9467038091B5
:100710004001811531F080912F01909130010E94AC
:10072000500F0E94670380914001811531F0809144
:100730003101909132010E94500F0E946703809115
:100740004001811559F080912401883039F460E02E
:100750008FEE90E00E9448080E9457030E946703B2
:1007600080914001811559F080912401883039F43D
:1007700061E08FEE90E00E9448080E9457030E94BB
:1007800067036091250170E080E090E00E94F10E27
:100790000E9467036091260170E080E090E00E9473
:1007A000F10E0E94670360913C0170E080E090E0F0
:1007B0000E94F10E0E94670380914301811541F070
:1007C000609133017091340180E090E00E94F10E5D
:1007D0000E94670380914201811551F060912B01C5
:1007E00070912C0180912D0190912E010E94F10EAB
:1007F0000E94670380914101811559F189E892E0D7
:100800000E94E20E809135010E946A038DE20E94EF
:10081000AA0E809136010E946A038DE20E94AA0E00
:10082000809137010E946A0384E50E94AA0E80919C
:1008300038010E946A038AE30E94AA0E809139015E
:100840000E946A038AE30E94AA0E80913A010E94E4
:100850006A0386E892E00C94E20E1F93CF93DF9335
:1008600000D00F92CDB7DEB70E946B0F811519F043
:1008700081E08093E00011E0CE0103960E94920E89
:10088000811107C00F900F900F90DF91CF911F91B2
:1008900008950E946B0F81111093E0008B818D30C1
:1008A00019F08A3009F01DC28091E000811549F0ED
:1008B0008FE692E00E94E20E1092DF001092E000BC
:1008C000DBCFE091DF00E115B9F3F0E0E155FF4F38
:1008D000108266E472E08FEA90E00E94E210892BB9
:1008E00089F48CE092E00E94E20E87EC91E00E9495
:1008F000E20E82EA91E00E94E20E84E791E00E941B
:10090000E20E0AC06DE671E08FEA90E00E94E2100C
:10091000892B29F40E947B0388E692E0CBCF66E620
:1009200071E08FEA90E00E94E210892B09F065C027
:1009300084EE90E00E94E20E6091E1007091E2008E
:10094000072E000C880B990B0E94F10E8CED90E0A5
:100950000E94E20E6091E3007091E400072E000C0B
:10096000880B990B0E94F10E85ED90E00E94E20E3B
:100970006091E5007091E60080E090E00E94F10E49
:100980008DEC90E00E94E20E6091E7007091E8002B
:1009900080E090E00E94F10E82EC90E00E94E20E76
:1009A0006091E9007091EA0080E090E00E94F10E11
:1009B0008AEB90E00E94E20E6091EB007091EC00F7
:1009C00080E090E00E94F10E81EB90E00E94E20E48
:1009D0006091ED0070E080E090E00E94F10E89EA05
:1009E00090E00E94E20E6091EE0070E080E090E006
:1009F0000E94F10E86EA90E082CF60E671E08FEA15
:100A000090E00E94E210892B09F076C08DE990E019
:100A10000E94E20E6091EF007091F0008091F10071
:100A20009091F2000E94F10E8AE990E00E94E20E9D
:100A30008091EF009091F000A091F100B091F20050
:100A4000892B8A2B8B2B19F485E890E058CF84E70B
:100A500090E00E94E20E8091FB009091FC000E94C9
:100A6000500F0E9467038091FD009091FE000E944C
:100A7000500F0E9467036091F3007091F400809121
:100A8000F5009091F6002091EF003091F000409138
:100A9000F1005091F2000E94AB10C9010E94500F6A
:100AA00081E690E00E94E20E8091FF0090910001AB
:100AB0000E94500F0E9467038091010190910201F2
:100AC0000E94500F0E9467036091F7007091F80038
:100AD0008091F9009091FA002091EF003091F000A0
:100AE0004091F1005091F2000E94AB10C9010E94A8
:100AF000500F8EE590E003CF6CE571E08FEA90E057
:100B00000E94E210892B19F40E940C0B05CF67E5B7
:100B100071E08FEA90E00E94E210892B31F40E948C
:100B2000150B811509F477C0F7CE62E571E08FEA05
:100B300090E00E94E210892B19F40E94230BF1CF60
:100B400069E471E08FEA90E00E94E210892B39F4A9
:100B500081EE90E00E9496060E941110DDCE6EE3B9
:100B600071E08FEA90E00E94E210892B29F48FEE69
:100B700090E00E94C307D0CE65E371E08FEA90E079
:100B80000E94E210892B41F40E94650F80913C0184
:100B90008F7A80933C01C0CE6EE271E08FEA90E0E4
:100BA0000E94E210892B31F481E0809344010E947D
:100BB0007703B2CE66E271E08FEA90E00E94E21025
:100BC000892B19F410924401A7CE44E050E061E271
:100BD00071E08FEA90E00E94EB10892BF9F460E25B
:100BE00070E083EB90E00E9406110097A1F0FC01F9
:100BF0001192CF01BE016F5F7F4F0E94230A8115C2
:100C000051F049815A8163EB70E081EE90E00E94DF
:100C1000E5068111A1CF8BE492E04CCE45E050E097
:100C20006BE171E08FEA90E00E94EB10892B89F470
:100C3000BE016F5F7F4F84EB90E00E94230A811515
:100C400051F389819A818930910528F780933F017A
:100C500083CF66E171E08FEA90E00E94E210892B79
:100C600029F58FE091E00E94E20E0E945A02682F5F
:100C700070E080E090E00E94F10E87E091E00E9439
:100C8000E20E60911F0270E080E090E00E94F10EA1
:100C900080E091E00E94E20E6091450170E080E00A
:100CA00090E00E94F10E8DEF90E029CE65EF70E0AC
:100CB0008FEA90E00E94E210892B39F481E0809362
:100CC000450188E080933F0127CE6CEE70E08FEA0B
:100CD00090E00E94E210892B09F09DCF109245010F
:100CE0001BCE883011F08F3769F48091DF008115B9
:100CF00009F4C2CD9091E0009111BECD8150809356
:100D0000DF00BACD90EE980F9F3568F4E091DF00D8
:100D1000EF3248F491E09E0F9093DF00F0E0E15550
:100D2000FF4F8083A9CD1093E000A6CDDC018EE0BB
:100D3000E1E6F0E001900D928A95E1F708950F93B6
:100D40001F93CF93DF93FC014081518157FD36C043
:100D500022813381253F61E0360784F5421753072E
:100D60006CF586819781893E63E0960738F5A4810A
:100D7000B581A817B90710F5C085D185BE016150AE
:100D8000710964367105D0F4628573858B01015059
:100D90001109083C110590F4241B350BC217D30729
:100DA00068F48A1B9B0B6817790740F4848581508F
:100DB0008C3320F481E09585923008F080E08170DA
:100DC000DF91CF911F910F9108952F923F924F92F3
:100DD0005F926F927F928F929F92AF92BF92CF92CB
:100DE000DF92EF92FF920F931F93CF93DF93CDB7D4
:100DF000DEB762970FB6F894DEBF0FBECDBF8C0191
:100E00006F87788B7A01FC01428053806480758003
:100E100086809780A084B184F285F98BFC01F385EC
:100E2000FA8BFC01C484D5846FE670E08F859889C5
:100E30000E941111892B09F4A2C0F8012080318091
:100E400064E770E08F8598890E941111892B09F45D
:100E500098C06AE770E08F8598890E941111892BEC
:100E6000A9F43701F7FC3CC061E970E08F859889EF
:100E70000E941111892B09F05AC081E0E81AF1088B
:100E80009CE3E916F10408F452C02AC06FE770E051
:100E90008F8598890E941111892B11F44701E2CFA7
:100EA00065E870E08F8598890E941111892B11F4F3
:100EB0005701D8CF6BE870E08F8598890E94111197
:100EC000892B19F4E98AFA8ACDCF61E970E08F8520
:100ED00098890E941111892BE9F4CE2CF7FECDCF11
:100EE00080E062960FB6F894DEBF0FBECDBFDF91F3
:100EF000CF911F910F91FF90EF90DF90CF90BF9017
:100F0000AF909F908F907F906F905F904F903F90A9
:100F10002F90089568E970E08F8598890E941111DB
:100F2000892BF1F6DE2CF2E0EF16F104C8F62982E7
:100F30003A824B825C826D827E828F829886A986FD
:100F4000BA86E989EB87FA89FC87CD86DE86CE01F1
:100F500001960E949F06811519F2F80120823182C4
:100F6000428253826482758286829782A086B1868D
:100F7000998992879A899387C486D586B2CF1701BB
:100F800071CF27016FCF26E3FC0111922A95E9F773
:100F90000895FC019B01CA01653F714008F067C0DC
:100FA000893E63E0960708F062C04081518162810A
:100FB0007381411551056105710509F059C03787E5
:100FC000268735872487938B828B918B808BA08992
:100FD000B1898A179B0710F4918B808BA289B38902
:100FE000A817B90710F4938B828B4034A2E45A07F8
:100FF000AFE06A07710500F54F5F5F4F6F4F7F4F9E
:1010000040835183628373834481558166817781F4
:10101000420F531F611D711D44835583668377837F
:101020004085518562857385480F591F611D711D6B
:101030004087518762877387A4A94A2F50E0BF0178
:101040006A0F711D6A0F711DDB0155963C932E933B
:10105000549795969C938E939497CA0101968770A6
:10106000992784AB85A9883010F48F5F85AB0895EC
:10107000A485B5852A173B0710F435872487A685F4
:10108000B785A217B30708F0A2CF378726879FCF6F
:10109000CF93DC01D5968C91D5978830E0F1D4962A
:1010A000CC91D49770E020E030E040E050E08C2F0D
:1010B000870F8770E82FF0E0611579F07296EE0FD8
:1010C000FF1FEA0FFB1F80819181E1E0E70F743081
:1010D00030F4480F591F7E2FEACF3A96F0CF280FF1
:1010E000391F7E2FE83019F780E590E0611102C0CA
:1010F00084E190E0241B350B2817390774F444274A
:101100005527481B590B81E0421753070CF480E028
:101110008195CF91089580E0FCCF81E0FACFEF92E6
:10112000FF920F931F93CF93DC01FB01BA01A9013A
:10113000E084F18480819181CC91C0FF08C08E0D44
:101140009F1D21E06817790734F020E004C021E0FA
:1011500086179707D4F302811381C1FF08C00E19C7
:101160001F0991E00617170734F090E004C091E0E2
:1011700060177107D4F3990F922B628573852481D0
:101180003581C2FF08C0260F371F81E04217530781
:1011900034F080E004C081E024173507D4F3880FD1
:1011A000880F892B26813781C3FF08C0261B370B88
:1011B00091E02417350734F090E004C091E0421725
:1011C0005307D4F391959870892B8C9311969C9129
:1011D0001197892311968C93CF911F910F91FF90B6
:1011E000EF900895FC018081818308959C018FEF29
:1011F0009FEF615008F40895F9012191922728E0AA
:10120000AC01880F991F57FF04C031E2832730E1FA
:1012100093272A95A9F79F01ECCF621B730B840BD0
:10122000950B21E016161706180619060CF020E09B
:10123000822F0895CF93DF93EC01FB01019667E1C4
:10124000DC011D926A95E9F765EA688361E06983CC
:101250002A833B834C835D83208131813F832E83AE
:101260002281338139872887248135813B872A87EA
:10127000268137813D872C87208531853F872E87C2
:1012800022853385398B288B24852A8B25852B8BCA
:1012900065E10E94F6089F8B8E8BDF91CF910895B8
:1012A0002F923F924F925F926F927F928F929F9276
:1012B000AF92BF92CF92DF92EF92FF920F931F9364
:1012C000CF93DF93CDB7DEB762970FB6F894DEBF4A
:1012D0000FBECDBF8C017B014F87588BFC018081F5
:1012E000853AD1F080E062960FB6F894DEBF0FBE6B
:1012F000CDBFDF91CF911F910F91FF90EF90DF90C5
:10130000CF90BF90AF909F908F907F906F905F90A5
:101310004F903F902F9008958181813019F7C688B2
:10132000D78865E1C80101960E94F6088C159D05D5
:10133000C9F6F80126803780408451846284738422
:1013400084849584A684B784C088D188F289F98B77
:10135000F801F389FA8B29823A824B825C826D8292
:101360007E828F829886BA86A986DC86CB8689891A
:101370008D87FE87CE0101960E949F06811509F494
:10138000B1CFF801438150E060E070E0762F652F27
:10139000542F44279281492B9481692B9581792B75
:1013A000F701208231824282538264827582868272
:1013B0009782B186A086D386C286998994879A89B6
:1013C0009587EF85F88940835183628373838BCF40
:1013D000CF93DF93FC01DB01EA01408181816281CF
:1013E0002381942F980F960F920F348193131FC06F
:1013F0008A30E8F42A30D8F45AE030E0569F200DC5
:10140000311D1124253F91E0390788F490E0549F65
:10141000800D911D1124893E43E0940740F42D93E3
:101420003C939983888381E0DF91CF91089580E098
:10143000FBCFDC01CB01821B930BA40BB50BB038A7
:10144000880B819508958F929F92AF92BF92CF9211
:10145000DF92EF92FF921F93CF93DF93EC01FB019A
:10146000888110E08D3211F4219611E08881811578
:1014700009F442C0812C912C5401C12ED12CE12CB5
:10148000F12C4FEFC40E4FE7D41EE11CF11C499123
:10149000411116C06627772768197909111101C013
:1014A000B4017183608381E0DF91CF911F91FF9040
:1014B000EF90DF90CF90BF90AF909F908F90089566
:1014C00020ED240F2A30C0F49401AAE0B0E00E947D
:1014D000D310242F440F330B205331094901092C19
:1014E000000CAA08BB08860E971EA81EB91EC814B9
:1014F000D904EA04FB0458F680E0D6CFCF93DF93FB
:10150000C82FD4B58827C99983958C1304C081E06E
:10151000DF91CF9108950E948E0E84B58D1B843685
:1015200088F380E0F5CFD198D99A0895D998D19AC7
:1015300008959F92AF92BF92CF92DF92EF92FF9267
:101540000F931F93CF93DF9300D000D00F92CDB7AE
:10155000DEB7D82E092FB62EC72ECE0101967C01FC
:1015600085E0F70111928A95E9F7AFB6F894D19822
:10157000D99AFAE1FA95F1F700C080E00E947E0A5C
:10158000811116C010E00E948E0EAFBE812F0F9009
:101590000F900F900F900F90DF91CF911F910F91AF
:1015A000FF90EF90DF90CF90BF90AF909F90089505
:1015B00081E00E947E0A811529F380E00E947E0A64
:1015C000811501F310E081E00E947E0A8115D1F2BD
:1015D00094B480E00E947E0A8115A1F2E12FE69585
:1015E000E695E695EE0DFF2DF11D2081220F20835B
:1015F00084B589198E3210F0216020831F5F183264
:1016000011F74B2D5C2D6D2D702FC7010E94E8093D
:10161000182FB9CF0895089585E291E00E94F2084D
:1016200080913C0180933D01089581EE90E00E94FD
:101630007E0D90913C01811521F09F7D90933C019E
:1016400008959062FBCFCF9381EE90E00E940C0D45
:10165000C82F90913C01811541F09F7D90933C01F2
:101660000E9411108C2FCF910895906290933C01AD
:10167000F9CFCDB7DEB769970FB6F894DEBF0FBECE
:10168000CDBF0E943F020E94810E0E940B0B0E9460
:10169000930A0E940A0B81EE90E00E94960681EE6A
:1016A00090E00E940C0D811105C080913C01806288
:1016B00080933C0180911F0283FF05C080913C0113
:1016C000806480933C018FEE90E00E94C30781E02C
:1016D000809344018093450188E080933F010E94FC
:1016E00005024B015C01A50194012053384F4F4F77
:1016F0005F4F29833A834B835C8388E19EE00FB67A
:10170000F894A89581BD0FBE91BD8CED92E00E942A
:10171000E20E0E94770389819A81AB81BC81898B1B
:101720009A8BAB8BBC8B8D869E86AF86B88A89865A
:101730009A86AB86BC868D829E82AF82B8861D8AD1
:101740001E8A1F8A188E198E412C512C32010E943C
:1017500005026B017C014C0C5D1C6E1C7F1C481843
:1017600059086A087B088091270190912801A0916F
:101770002901B0912A01AC01BD014F5F5F4F6F4F4E
:101780007F4F28EE421623E052066104710408F0F0
:1017900022C18093270190932801A0932901B0933F
:1017A0002A010E942D04C701B6010E94C4020E94B2
:1017B0001410398D311121C029813A814B815C810E
:1017C000C701B6010E94190A898F811509F44DC01D
:1017D0000E94960AD701C6014496A11DB11D8D8BAA
:1017E0009E8BAF8BB88FA70196012053384F4F4F78
:1017F0005F4F29833A834B835C832D893E894F89D0
:10180000588DC701B6010E94190A811509F4FDC05F
:1018100061E371E08FE291E00E94990A80934001B8
:10182000811509F4E1C010923E0180913C018E7F48
:1018300080933C01409131015091320160912F0120
:10184000709130018FEE90E00E94C9072091310124
:101850003091320140912F015091300161EE70E0E2
:1018600085E291E00E948F08198E29853A854B8583
:101870005C85C701B6010E94190A8115C9F083E38E
:1018800091E00E94CD02982F8093430180913C010A
:10189000911509F4BDC0877FA70196012C503E4FDA
:1018A0004F4F5F4F29873A874B875C8780933C0176
:1018B0002D853E854F855889C701B6010E94190ABA
:1018C000811551F0D701C60188519C4FAF4FBF4FD2
:1018D0008D879E87AF87B88B0E94620F811529F094
:1018E00080913C01806180933C0140913C012091BA
:1018F0003D01242320933D018091EE00811509F4E0
:1019000089C08091260190E0809590956091250195
:1019100070E08623972330E02095309550E0242313
:1019200035232F743327822B932B009781F0C70127
:10193000B60128EE33E040E050E00E94AB1021E019
:10194000683C71058105910508F020E0822F8170C7
:101950000E94CC0240914501C701B6010E94F902E4
:101960002D813E814F815885C701B6010E94190A19
:10197000811561F0A701960126503F4F4F4F5F4FF1
:101980002D833E834F8358870E94761029893A8998
:101990004B895C89C701B6010E94190A8115B9F00B
:1019A000B090ED008091440181110E947B032B2DAA
:1019B00030E0A8EEB3E00E94D3109B01AC012C0DE7
:1019C0003D1D4E1D5F1D298B3A8B4B8B5C8BA89563
:1019D00046015701BCCE98EE491A93E0590A6108B6
:1019E0007108DB01CA01C7CE80913E018F3F31F4FF
:1019F00080913C01816080933C0136CF8F5F809362
:101A00003E01833008F430CFF3CF31E0398F2DCF52
:101A1000886042CF80E09BCFBF92CF92DF92EF925F
:101A2000FF920F931F93CF93DF93CDB7DEB7AA97A3
:101A30000FB6F894DEBF0FBECDBFE82EB92E80E002
:101A4000C82E80E0D82EF12C00E048E150E0B6012D
:101A5000CE0101960E941A11AE01495D5F4FBE0191
:101A6000675E7F4FCE0101960E945009182F8115A5
:101A7000D1F0011132C08EE0FE017996AE2DBB2D62
:101A800001900D928A95E1F78FA198A5A9A5BAA515
:101A90008093460190934701A0934801B093490178
:101AA000F0926000012F81E08F0D98E1C90ED11CEA
:101AB000FF24F394823049F6802FAA960FB6F8944B
:101AC000DEBF0FBECDBFDF91CF911F910F91FF9071
:101AD000EF90DF90CF90BF90089520914601309114
:101AE000470140914801509149016FA178A589A50E
:101AF0009AA50E940D098111BECFD4CFDF92EF923B
:101B0000FF920F931F93CF93DF93CDB7DEB7C254ED
:101B1000D1090FB6F894DEBF0FBECDBF8C010E9475
:101B20009F06811110C080E0CE5BDF4F0FB6F894A6
:101B3000DEBF0FBECDBFDF91CF911F910F91FF9000
:101B4000EF90DF900895D090600081E0D8268091DA
:101B5000460190914701A0914801B09149019C0133
:101B6000AD012F5F3F4F4F4F5F4FB801CE014996F8
:101B70000E941A0988E1D89E80011124005010406B
:101B800060E0C8010E942A11EE24E394F12CFE01CA
:101B90007996EE0DFF1D6081C8018E0D9F1D0E947C
:101BA0002A118FEFE81AF80A88E1E816F10479F7AC
:101BB000698DC8010E942A1148E150E0B801CE01A8
:101BC00001960E941A1148E150E0BE01675E7F4F06
:101BD000CE0101960E94F910892B09F0A4CFAE0125
:101BE000415C5F4FBE016F5C7F4FCE0101960E944A
:101BF0005009811509F497CF23960CAD1DAD2EAD7C
:101C00003FAD2397409146015091470160914801B3
:101C1000709149014F5F5F4F6F4F7F4F40175107E2
:101C20006207730709F07FCFD092600040934601AE
:101C300050934701609348017093490175CF8BB170
:101C40009CB18C71811531F081E080930A02809300
:101C50000B02089580910F028F5F8F7320910E0207
:101C6000281791F3E0910F02F0E0E653FE4F9083C6
:101C700080930F0208951F920F920FB60F921124B6
:101C80002F933F934F935F936F937F938F939F9384
:101C9000AF93BF93EF93FF930E941F0EFF91EF91BD
:101CA000BF91AF919F918F917F916F915F914F9174
:101CB0003F912F910F900FBE0F901F9018958F930B
:101CC0008FB78F939F93EF93FF9390910D02809125
:101CD0000C02981308C05598FF91EF919F918F9136
:101CE0008FBF8F911895E0910C02F0E0E65BFE4FFC
:101CF00080818CB980910C028F5F8F7780930C026A
:101D0000EBCF889882B3836082BB10BC83E389B930
:101D10001BB886E880BD88E98AB908955F990C945C
:101D20001F0E0895DC0190910F0280910E0298170A
:101D300079F0E0910E02F0E0E653FE4F80818C9343
:101D400080910E028F5F8F7380930E0281E0089561
:101D500080E00895CF92DF92EF92FF92CF93DF93CE
:101D6000D82FC0910D02CF5FCF770E9405026B5F25
:101D70007F4F8F4F9F4F6B017C0180910C028C171E
:101D800071F0E0910D02F0E0E65BFE4FD0838FB77B
:101D9000F894C0930D02559A8FBF81E00CC00E9449
:101DA0000502A70196010E94190A811531F381E00D
:101DB00080930B0280E0DF91CF91FF90EF90DF9056
:101DC000CF900895CF93DF93EC01FE0184918115AC
:101DD00029F00E94AA0E21968111F7CFDF91CF91B1
:101DE00008954F925F926F927F929F92AF92BF92AF
:101DF000CF92DF92EF92FF920F931F93CF93DF93D7
:101E0000CDB7DEB72A970FB6F894DEBF0FBECDBFB1
:101E1000962EA72EB82E092F10E08AE0482E512CBE
:101E2000612C712C692D7A2D8B2D902FA30192019D
:101E30000E94AB10FE013196E10FF11D1F5F605D46
:101E40006083C92CDA2CEB2CF02E922EA32EB42E0C
:101E5000052F8AE0C816D104E104F10418F7111126
:101E600016C02A960FB6F894DEBF0FBECDBFDF9125
:101E7000CF911F910F91FF90EF90DF90CF90BF9087
:101E8000AF909F907F906F905F904F90089511500A
:101E9000FE013196E10FF11D80810E94AA0EDFCF75
:101EA000CF936AE070E00E948310C82F80E090E03A
:101EB0000E94F10E8EE20E94AA0E80E38C0FCF9159
:101EC0000C94AA0E80910B0208958FB7F89410928B
:101ED0000B028FBF08958FB7F89490910A02109269
:101EE0000A028FBF81E0911101C080E008950F9335
:101EF0001F93CF93DF93CDB7DEB72E970FB6F8942D
:101F0000DEBF0FBECDBF782F2EE0E0E1F2E0CE01C4
:101F10000196DC0101900D922A95E1F720911E02B5
:101F20006FEF620F8C01683008F040C0E62FF0E0E0
:101F3000E35CFE4E0C94CD10209110023091110202
:101F40004AE050E07403C001759F900D1124820F88
:101F5000931F97FD42C0683008F03FC0E62FF0E0C5
:101F6000EB5BFE4E0C94CD102091120230911302C7
:101F7000E7CF2091140230911502E2CF2091160292
:101F800030911702DDCF209118023091190241E003
:101F900050E0D8CF20911A0230911B02F8CF209147
:101FA0001C0230E0F4CF20911D02FBCF253018F445
:101FB00020E030E0C5CF20E030E0E9CF9A8389838C
:101FC000C8010E949F06811541F08EE0F801A0E152
:101FD000B2E001900D928A95E1F72E960FB6F89433
:101FE000DEBF0FBECDBFDF91CF911F910F9108953E
:101FF0009C838B83E5CF9E838D83E2CF98878F83ED
:10200000DFCF9A878987DCCF9C878B87D9CF8D33A9
:1020100091051CF78D87D4CF82309105F4F68E8719
:10202000CFCF10921E020895CF93C82F83FF0AC00E
:102030000E940C0B80911E02811541F110921E022C
:10204000CF91089580911E02811501F1C0FF03C058
:1020500081E00E94770FC1FF03C08FEF0E94770FCE
:10206000C2FFEECF80911E02893061F48EE0E0E184
:10207000F2E0A1EEB0E001900D928A95E1F70E94A6
:10208000150BDCCF8F5F80931E02DACFC0FF0AC032
:1020900080913F0190E0019669E070E00E94971006
:1020A00080933F01C1FF0AC080913F0190E00896F4
:1020B00069E070E00E94971080933F01C2FFC0CF9B
:1020C00080913F01883039F48091450191E0892762
:1020D00080934501B5CF8EE0E1EEF0E0A0E1B2E003
:1020E00001900D928A95E1F781E0CDCF089599276F
:1020F00078E0880F991F961708F0961B881F7A952D
:10210000C9F780950895AA1BBB1B51E107C0AA1F00
:10211000BB1FA617B70710F0A61BB70B881F991F88
:102120005A95A9F780959095BC01CD01089597FB2C
:10213000072E16F4009407D077FD09D00E94831073
:1021400007FC05D03EF4909581959F4F08957095BA
:1021500061957F4F0895A1E21A2EAA1BBB1BFD01BA
:102160000DC0AA1FBB1FEE1FFF1FA217B307E40776
:10217000F50720F0A21BB30BE40BF50B661F771FCE
:10218000881F991F1A9469F76095709580959095AE
:102190009B01AC01BD01CF010895EE0FFF1F05901B
:1021A000F491E02D0994A29FB001B39FC001A39FB9
:1021B000700D811D1124911DB29F700D811D112480
:1021C000911D0895FB01DC018D910590801901108E
:1021D000D9F3990B0895FB01DC014150504030F0D8
:1021E0008D910590801919F40020B9F7881B990B7F
:1021F0000895FB01DC0104C08D910190801921F448
:1022000041505040C8F7881B990B0895FC018191FB
:10221000861721F08823D9F7992708953197CF01A0
:102220000895FB01DC018D91019080190110D9F313
:10223000990B0895DC01CB01FC01E199FECF06C0AA
:10224000FFBBEEBBE09A31960DB20D92415050406B
:10225000B8F70895262FE199FECF9FBB8EBBE09A79
:1022600001970DB2021631F02DBB0FB6F894E29A29
:10227000E19A0FBE0895F894FFCF9C0FB40FB90FE9
:10228000BE0FC30FCA0FCF0FD30FDE0FF80FFB0F18
:0A229000FE0F0110041007100C10DF
:10229A0001B4005E012C0120030A001E0002015451
:1022AA004C4F5700544849474800484C4F5700483C
:1022BA0048494748005448595354004848595354C8
:0E22CA000043535653454300534F554E4400B6
:00000001FF
