:100000000C9496010C94BF010C94BF010C94BF0199
:100010000C94BF010C94BF010C9471020C94BF01AD
:100020000C94C1010C94BF010C94BF010C94020EFE
:100030000C94260E0C94BF010C94BF010C94BF01CC
:100040000C94BF010C94BF010C94BF010C94BF0130
:100050000C94BF014D0F520F570F5C0F610F660FCD
:100060006B0F6E0F920F950F980F9B0F9E0FA10FA6
:10007000A40FA90F88EB4C492B1918CB08090D0ABE
:10008000000D0A232048206D696E2C6D61782C616B
:1000900076673D00232054206D696E2C6D61782CAD
:1000A0006176673D0023206E6F2076616C69642065
:1000B00073616D706C65730D0A000D0A0023206377
:1000C0006F756E743D000D0A0020534F554E443D30
:1000D00000204353565345433D002048485953544C
:1000E0003D000D0A232054485953543D00204848F0
:1000F0004947483D0020484C4F573D00205448494F
:1001000047483D002320544C4F573D004449414748
:10011000204F46460044494147204F4E000D0A00FB
:10012000204C4544533D002052455345543D002347
:10013000204B45593D004449414700504147452027
:10014000005345542000435356204F464600435326
:1001500056204F4E00434C454152455252005245A5
:1001600053455453544154530044454641554C540F
:1001700053004C4F414400534156450041434B000E
:10018000535441545300434F4E4649470053544142
:100190005455530023205254432059592D4D4D2D71
:1001A00044442048483A4D4D3A535320573D312E50
:1001B0002E372028323030302E2E32303939290D6A
:1001C0000A0023205041474520302E2E383B204442
:1001D000494147204F4E7C4F46463B20434C4541CA
:1001E000524552520D0A002320435356204F4E7C55
:1001F0004F46463B2053455420544C4F577C54485F
:100200004947487C484C4F577C48484947487C54AC
:10021000485953547C48485953547C43535653458A
:10022000437C534F554E44206E0D0A0023205354F7
:100230004154555320434F4E46494720535441544F
:10024000532041434B2053415645204C4F414420BD
:1002500044454641554C54532052455345545354FC
:100260004154530D0A0048454C500023204552523A
:1002700020636F6D6D616E642F76616C75652F6D97
:100280006F64756C650D0A0023204F4B0D0A002327
:1002900020455252206C696E6520646973636172F7
:1002A0006465640D0A000D0A0032300075707469CF
:1002B0006D655F732C74656D705F632C68756D6917
:1002C000646974795F7063742C745F7472656E64B2
:1002D0002C685F7472656E642C616C61726D2C6148
:1002E000636B2C6572726F72732C6164635F7261F1
:1002F000772C6C75782C7274630D0A00232041549E
:100300006D6567613136206D6F6E69746F72204361
:1003100020384D487A3B2048454C5020666F72206B
:10032000636F6D6D616E64730D0A000011241FBE52
:10033000CFE5D4E0DEBFCDBF84B780931F0214BEEB
:100340000FB6F894A89581B5886181BD11BC0FBE28
:1003500010E0A0E6B0E0E6E0F2E202C005900D9207
:10036000AE39B107D9F722E0AEE9B0E001C01D9285
:10037000AF31B207E1F70E94EF0A0C9401110C941F
:1003800000001F920F920FB60F9211242F938F939C
:100390009F93AF93BF938091AB009091AC00A091DD
:1003A000AD00B091AE008F5B9F4FAF4FBF4F8093BA
:1003B000AB009093AC00A093AD00B093AE008091E1
:1003C000A9009091AA00885E9D4F9093AA00809307
:1003D000A9008091A9009091AA00883E9340E8F07E
:1003E0008091A9009091AA00885E93409093AA0002
:1003F0008093A9008091AB009091AC00A091AD00DA
:10040000B091AE000196A11DB11D8093AB009093F9
:10041000AC00A093AD00B093AE00BF91AF919F919F
:100420008F912F910F900FBE0F901F901895CF9224
:10043000DF92EF92FF928FB7F894C090AB00D0900C
:10044000AC00E090AD00F090AE002091A90030919A
:10045000AA006CB57DB508B602FE09C06CB57DB5C5
:1004600091E4C90ED11CE11CF11C285E3D4F8FBFE9
:10047000CB01A0E0B0E0BC01CD01620F731F811D74
:10048000911D28EE33E040E050E00E946610CA0162
:10049000B9016C0D7D1D8E1D9F1DFF90EF90DF90AB
:1004A000CF900895F89484B7806884BF84BF87B3E1
:1004B000807F87BB88B38F6088BB1FBC82E08EBD06
:1004C0001DBC1CBC20E137E23BBD2ABD94E198BFB6
:1004D00099BF85BD14BC7894089586B380958F70BC
:1004E00008951F920F920FB60F9211242F933F93EE
:1004F0004F935F936F937F938F939F93AF93BF932C
:10050000EF93FF938AB59BB5805F984D9BBD8ABDE5
:100510000E946D029091A300E4EAF0E040E050E018
:10052000A1E0B0E09D01042E01C0220F0A94EAF779
:10053000682F622329F06081633038F46F5F04C054
:100540006081662311F0615060836191633051F4E2
:10055000692F622359F4922B3091A800232B20930A
:10056000A80004C0611102C0209592234F5F5F4F25
:1005700044305105B9F69093A300FF91EF91BF91DC
:10058000AF919F918F917F916F915F914F913F912B
:100590002F910F900FBE0F901F9018959FB7F89452
:1005A0008091A8001092A8009FBF08950895CF924F
:1005B000DF92EF92FF92CF93DF93EC0180E487B953
:1005C00086E886B9369A0E9417026B017C0125E005
:1005D000C20ED11CE11CF11C369B0AC00E941702FE
:1005E000A70196010E94C6098823B1F380E005C0E7
:1005F00084B195B19983888381E0DF91CF91FF9099
:10060000EF90DF90CF900895CF92DF92EF92FF921C
:1006100041110AC081B3837081BB82B3837082BBF6
:100620008FEF85BB84BB43C06B017C0181B38C6FB2
:1006300081BB20919F003091A0004091A10050917A
:10064000A200C701B6010E94C609882381F18CE28D
:10065000C80E81E0D81EE11CF11CC0929F00D09210
:10066000A000E092A100F092A20080919E0090E094
:1006700001966AE070E00E94521080939E0022B3BF
:10068000382F377081E090E001C0880F3A95EAF783
:1006900080958C7F922F9370892B82BB8FEF84BBC8
:1006A000E0919E00F0E0EC58FF4FE491E5BBFF9035
:1006B000EF90DF90CF900895CF93C82F87FF03C0AE
:1006C0008DE20E94720E6C2FCC0F770B77FF03C068
:1006D000719561957109072E000C880B990BCF91CC
:1006E0000C94BA0E8CE20C94720ECF936AE00E94C6
:1006F0003210C92F805D0E94720E80E38C0FCF9163
:100700000C94720E8CEA92E00C94AB0E6091000295
:100710007091010280910202909103020E94BA0E30
:100720000E94720380911902882331F0809108029F
:10073000909109020E94060F0E9472038091190293
:10074000882331F080910A0290910B020E94060FDB
:100750000E94720380911902882359F08091FD0153
:10076000883039F460E088EC91E00E9417080E941C
:100770005C030E94720380911902882359F08091D2
:10078000FD01883039F461E088EC91E00E9417089F
:100790000E945C030E9472036091FE0170E080E0A1
:1007A00090E00E94BA0E0E9472036091FF0170E017
:1007B00080E090E00E94BA0E0E94720360911502E0
:1007C00070E080E090E00E94BA0E0E947203809177
:1007D0001C02882341F060910C0270910D0280E0B0
:1007E00090E00E94BA0E0E94720380911B0288233F
:1007F00051F060910402709105028091060290917F
:1008000007020E94BA0E0E94720380911A02882386
:1008100059F189EA92E00E94AB0E80910E020E948B
:1008200075038DE20E94720E80910F020E94750383
:100830008DE20E94720E809110020E94750384E581
:100840000E94720E809111020E9475038AE30E9439
:10085000720E809112020E9475038AE30E94720E4A
:10086000809113020E94750386EA92E00C94AB0E0D
:10087000FF920F931F93CF93DF9300D01F92CDB7BA
:10088000DEB70E94210F882319F081E08093E000F9
:1008900001E088E0F82ECE0103960E945A0E8823CC
:1008A00009F455C20E94210F81110093E0008B8151
:1008B0008D3019F08A3009F022C28091E00088233F
:1008C00019F08FE892E014C2E091DF00EE2309F402
:1008D00011C2F0E0E155FF4F108266E672E08FEA48
:1008E00090E00E94A810892B79F48CE292E00E949B
:1008F000AB0E87EE91E00E94AB0E82EC91E00E947D
:10090000AB0E84E991E0D5C16DE871E08FEA90E02B
:100910000E94A810892B19F40E94860315C266E86C
:1009200071E08FEA90E00E94A810892B09F065C061
:1009300084E091E00E94AB0E6091BA017091BB011E
:10094000072E000C880B990B0E94BA0E8CEF90E0DA
:100950000E94AB0E6091BC017091BD01072E000C8E
:10096000880B990B0E94BA0E85EF90E00E94AB0EA7
:100970006091BE017091BF0180E090E00E94BA0ECC
:100980008DEE90E00E94AB0E6091C0017091C101AC
:1009900080E090E00E94BA0E82EE90E00E94AB0EE2
:1009A0006091C2017091C30180E090E00E94BA0E94
:1009B0008AED90E00E94AB0E6091C4017091C50178
:1009C00080E090E00E94BA0E81ED90E00E94AB0EB4
:1009D0006091C60170E080E090E00E94BA0E89EC60
:1009E00090E00E94AB0E6091C70170E080E090E063
:1009F0000E94BA0E86EC90E05CC160E871E08FEA7C
:100A000090E00E94A810892B09F076C08DEB90E051
:100A10000E94AB0E6091C8017091C9018091CA011A
:100A20009091CB010E94BA0E8AEB90E00E94AB0E2F
:100A30008091C8019091C901A091CA01B091CB01E8
:100A4000892B8A2B8B2B19F485EA90E032C184E93B
:100A500090E00E94AB0E8091D4019091D5010E944C
:100A6000060F0E9472038091D6019091D7010E94D7
:100A7000060F0E9472036091CC017091CD018091AC
:100A8000CE019091CF012091C8013091C9014091D0
:100A9000CA015091CB010E946610C9010E94060F45
:100AA00081E890E00E94AB0E8091D8019091D9012D
:100AB0000E94060F0E9472038091DA019091DB017F
:100AC0000E94060F0E9472036091D0017091D101C3
:100AD0008091D2019091D3012091C8013091C90138
:100AE0004091CA015091CB010E946610C9010E9439
:100AF000060F8EE790E0DDC06CE771E08FEA90E0D2
:100B00000E94A810892B19F40E94C20A1DC167E730
:100B100071E08FEA90E00E94A810892B19F40E94DE
:100B2000CB0AE2C062E771E08FEA90E00E94A81071
:100B3000892B19F40E94D90AD7C069E671E08FEABF
:100B400090E00E94A810892B39F48AEB91E00E9472
:100B5000B0060E94C50FF8C06EE571E08FEA90E024
:100B60000E94A810892B29F488EC91E00E949B0731
:100B7000EBC065E571E08FEA90E00E94A810892B38
:100B800041F40E941B0F809115028F7A8093150209
:100B9000DBC06EE471E08FEA90E00E94A810892B20
:100BA00029F400931D020E948203CEC066E471E026
:100BB0008FEA90E00E94A810892B19F410921D0270
:100BC000C3C044E050E061E471E08FEA90E00E942D
:100BD000B110892B09F560E270E083EB90E00E9490
:100BE000CC10009709F482C0FC011192CF01BE0124
:100BF0006F5F7F4F0E94D709882309F477C049812E
:100C00005A8163EB70E08AEB91E00E940207182F93
:100C1000882309F46BC01BC045E050E06BE371E032
:100C20008FEA90E00E94B110892BB9F4BE016F5F8A
:100C30007F4F84EB90E00E94D709182F882359F04A
:100C400089819A818930910528F4809318020E9445
:100C5000C50F01C010E0812F47C066E371E08FEA45
:100C600090E00E94A810892B39F58FE291E00E9454
:100C7000AB0E0E946D02682F70E080E090E00E9451
:100C8000BA0E87E291E00E94AB0E60911F0270E005
:100C900080E090E00E94BA0E80E291E00E94AB0EEC
:100CA00060911E0270E080E090E00E94BA0E8DE13B
:100CB00091E00E94AB0E48C065E171E08FEA90E0E0
:100CC0000E94A810892B29F400931E02F0921802AA
:100CD0003BC06CE071E08FEA90E00E94A810892B85
:100CE00029F410921E0230C081112EC08BE692E0D2
:100CF0000E94AB0E1092DF001092E000CCCD883045
:100D000011F08F3769F48091DF00882309F4C3CD97
:100D10009091E0009111BFCD81508093DF00BBCD59
:100D200090EE980F9F3568F4E091DF00EF3248F4C1
:100D300091E09E0F9093DF00F0E0E155FF4F80833C
:100D4000AACD0093E000A7CD88E892E0D1CF0F9024
:100D50000F900F90DF91CF911F910F91FF90089509
:100D6000DC019EE0E1E6F0E001900D929A95E1F75A
:100D700008950F931F93CF93DF93FC01408151811E
:100D800057FD39C022813381253F61E036079CF54C
:100D90004217530784F586819781893E63E0960761
:100DA00050F5A481B581A817B90728F5C085D1856C
:100DB000BE016150710964367105E8F4628573857E
:100DC0008B0101501109083C1105A8F4241B350BB7
:100DD000C217D30780F48A1B9B0B6817790758F456
:100DE000848581508C3338F491E08585823008F019
:100DF00090E0892F01C080E08170DF91CF911F9139
:100E00000F910895CF92DF92EF92FF920F931F936D
:100E1000CF93DF93CDB7DEB72E970FB6F894DEBF32
:100E20000FBECDBF6C017B018A018EE0F601DE01B1
:100E3000119601900D928A95E1F76FE670E0C70177
:100E40000E94D710892B19F41A83098349C064E7DB
:100E500070E0C7010E94D710892B19F41C830B8303
:100E60003FC06AE770E0C7010E94D710892B19F4D0
:100E70001E830D8335C06FE770E0C7010E94D71055
:100E8000892B19F418870F832BC065E870E0C70120
:100E90000E94D710892B19F41A87098721C06BE8A3
:100EA00070E0C7010E94D710892B19F41C870B87AB
:100EB00017C061E970E0C7010E94D710892B11F4B7
:100EC0000D870EC068E970E0C7010E94D710892B1A
:100ED00011F080E021C002301105D8F70E8702C062
:100EE00017FDF7CF61E970E0C7010E94D710892B89
:100EF00029F4015011090C33110558F7CE01019660
:100F00000E94B906882329F39EE0FE013196D6019E
:100F100001900D929A95E1F72E960FB6F894DEBFE8
:100F20000FBECDBFDF91CF911F910F91FF90EF903A
:100F3000DF90CF90089526E3FC0111922A95E9F7FE
:100F40000895FC01653F21E0720708F06FC0493E3B
:100F500083E0580708F06AC080819181A281B38143
:100F60000097A105B10541F4778766877587648787
:100F7000538B428B518B408B2485358562177307C9
:100F800010F475876487268537852617370710F490
:100F900077876687208931894217530710F4518B70
:100FA000408B228933892417350710F4538B428BE9
:100FB000803422E492072FE0A207B105F8F40196ED
:100FC000A11DB11D80839183A283B3838481958108
:100FD000A681B781860F971FA11DB11D84839583BC
:100FE000A683B78380859185A285B385840F951FDD
:100FF000A11DB11D80879187A287B38784A990E046
:10100000DC01AA0FBB1FAE0FBF1F55967C936E93DA
:10101000549795965C934E93949701968770992771
:1010200084AB85A9883010F48F5F85AB0895CF938A
:10103000FC0125A92830B8F1C4A970E040E050E0D7
:10104000A0E0B0E02C2F270F277030E0F9016623D5
:1010500011F0729601C03A96EE0FFF1FE80FF91FCC
:1010600020813181743018F4A20FB31F02C0420FE7
:10107000531F7F5F783031F7611103C084E190E046
:1010800002C080E590E04A1B5B0B481759076CF4DF
:1010900022273327281B390B81E0241735070CF44E
:1010A00080E0819503C080E001C081E0CF91089588
:1010B0000F931F93CF93DF93DC01FB01B9010085F0
:1010C0001185C081D1818C9180FF07C0C00FD11FD5
:1010D00031E04C175D0734F004C031E0C417D50788
:1010E0000CF430E0932FC281D38181FF06C0C01B76
:1010F000D10BC417D50724F005C04C175D0714F0B9
:10110000932F9260C285D3852481358182FF06C0EA
:101110002C0F3D1F6217730724F004C026173707F2
:101120000CF094604681578183FF06C04C1B5D0B19
:101130004617570724F004C0641775070CF0986031
:101140009C9311968C911197982311969C93DF9103
:10115000CF911F910F910895FC0120812183089563
:10116000FC018FEF9FEF615090F02191922728E0D2
:10117000AC01440F551F97FF06C0CA0131E2832717
:1011800030E1932701C0CA01215091F7ECCF0895B7
:10119000DC01CB01821B930BA40BB50B21E01816CD
:1011A00019061A061B060CF020E0822F0895CF9333
:1011B000DF93EC01FB0188E1DE011D928A95E9F7DE
:1011C00085EA888381E089832A833B834C835D831E
:1011D000908181819E838F83928183819887898783
:1011E000948185819A878B87968187819C878D875B
:1011F000908581859E878F8792858385988B898B43
:1012000084858A8B85858B8B65E1CE0101960E9452
:10121000B0088E8B9F8BDF91CF9108958F929F9214
:10122000AF92BF92CF92DF92EF92FF920F931F93F4
:10123000CF93DF93CDB7DEB72E970FB6F894DEBF0E
:101240000FBECDBFFC012081253A11F080E05CC0CB
:10125000FC0121812130D1F77A016B018C0165E11C
:1012600001960E94B008F8012689378982179307F2
:1012700069F7868197819A838983808591859C838C
:101280008B83828593859E838D83848595859887BE
:101290008F83868597859A878987808991899C879E
:1012A0008B8782898D8783898E87CE0101960E94E4
:1012B000B906882359F2F801329620E030E0812CFB
:1012C000912C5401419150E060E070E0022E04C086
:1012D000440F551F661F771F0A94D2F7842A952A58
:1012E000A62AB72A285F3F4F2032310559F79EE0E2
:1012F000FE013196D60101900D929A95E1F7F70122
:1013000080829182A282B3822E960FB6F894DEBFBD
:101310000FBECDBFDF91CF911F910F91FF90EF9046
:10132000DF90CF90BF90AF909F908F900895FC0179
:10133000A0819181828123813A2F390F380F320F9A
:10134000E4813E1321C09A30F8F42A30E8F430E00A
:10135000EAE08E9F200D311D1124253FF1E03F076B
:1013600098F4892F90E0EAE0AE9F800D911D112442
:10137000893EF3E09F0740F4FB0131832083FA01AB
:101380009183808381E0089580E00895DC01CB01A2
:10139000821B930BA40BB50B80959095A095B095EF
:1013A0008827B7FD83959927AA27BB2708958F9291
:1013B0009F92AF92BF92CF92DF92EF92FF920F93E4
:1013C0001F93CF93DF93FC01EB0180818D3219F4E1
:1013D000319611E001C010E080818823D1F1112302
:1013E00031F0C12C90E8D92EE12CF12C06C0CC2490
:1013F000CA948FE7D82EE12CF12C20E030E0A9012F
:1014000001910023E9F080ED800F8A3010F5AAE009
:10141000B0E00E949D10202F000F330B20533109A4
:101420004901330FAA08BB08A5019401260F371FF5
:10143000481F591FC216D306E406F50608F709C06F
:10144000112319F03195219531093983288381E0E1
:1014500001C080E0DF91CF911F910F91FF90EF903D
:10146000DF90CF90BF90AF909F908F900895CF93D3
:10147000DF93C82FD4B589B3869581708C1741F05E
:101480000E94560E84B58D1B8436A8F380E001C0FF
:1014900081E0DF91CF910895D198D99A0895D99894
:1014A000D19A08959F92AF92BF92CF92DF92EF921E
:1014B000FF920F931F93CF93DF9300D000D01F9222
:1014C000CDB7DEB77C016B018E010F5F1F4F85E04A
:1014D000F80111928A95E9F7AFB6F894D198D99AA4
:1014E000FAE1FA95F1F700C080E00E94370A811115
:1014F00002C010E030C081E00E94370A8823C9F39F
:1015000080E00E94370A8823A1F3B12C81E00E9479
:10151000370A882371F394B480E00E94370A882345
:1015200041F38B2D869586958695F801E80FF11D80
:101530008081880F808394B599199E3210F0816064
:101540008083B39488E2B812E1CFA601B701C80145
:101550000E949709182F0E94560EAFBE812F0F9040
:101560000F900F900F900F90DF91CF911F910F91DF
:10157000FF90EF90DF90CF90BF90AF909F90089535
:10158000089508958EEF91E00E94AC0880911502B5
:101590008093160208958AEB91E00E94320D90919B
:1015A0001502882311F09F7D01C09062909315026F
:1015B0000895CF938AEB91E00E94C70CC82F8091C9
:1015C0001502CC2331F08F7D809315020E94C50F48
:1015D00003C08062809315028C2FCF910895CF9322
:1015E000DF93CDB7DEB769970FB6F894DEBF0FBEB5
:1015F000CDBF0E9452020E944D0E0E94C10A0E945D
:101600004C0A0E94C00A8AEB91E00E94B0068AEB65
:1016100091E00E94C70C811105C080911502806283
:101620008093150280911F0283FF05C080911502EF
:1016300080648093150288EC91E00E949B0781E012
:1016400080931D0280931E0288E0809318020E94FE
:1016500017022B013C019B01AC012053384F4F4F27
:101660005F4F29833A834B835C839EE088E10FB60A
:10167000F894A89581BD0FBE91BD8CEF92E00E94B9
:10168000AB0E0E948203498A5A8A6B8A7C8A8981BE
:101690009A81AB81BC818D879E87AF87B88B498645
:1016A0005A866B867C864D825E826F8278861D8A22
:1016B0001E8A1F8A188E198E812C912C54010E942B
:1016C00017026B017C01860E971EA81EB91E841896
:1016D0009508A608B7088091000290910102A09198
:1016E0000202B0910302AC01BD014F5F5F4F6F4F2B
:1016F0007F4F28EE821623E09206A104B10448F041
:1017000098EE891A93E0990AA108B108DB01CA0191
:10171000EACF8093000290930102A0930202B0935B
:1017200003020E943804C701B6010E94CE020E9443
:10173000C80F398D311120C029813A814B815C81DC
:10174000C701B6010E94C609882309F44DC00E9452
:101750004F0AD701C6014496A11DB11D8D8B9E8BEA
:10176000AF8BB88FA70196012053384F4F4F5F4F73
:1017700029833A834B835C832D893E894F89588D19
:10178000C701B6010E94C609882309F4FDC06AE0BA
:1017900072E088E092E00E94520A80931902882346
:1017A00009F4E0C010921702809115028E7F809399
:1017B000150240910A0250910B026091080270914B
:1017C000090288EC91E00E94A10720910A02309161
:1017D0000B0240910802509109026AEB71E08EEF12
:1017E00091E00E945808198E29853A854B855C85C1
:1017F000C701B6010E94C6098823C9F0D701C601F6
:101800008C509E4FAF4FBF4F89879A87AB87BC875D
:101810008CE092E00E94D70280931C029091150206
:10182000882311F0977F01C0986090931502298951
:101830003A894B895C89C701B6010E94C609882391
:1018400051F0A701960128513C4F4F4F5F4F298B14
:101850003A8B4B8B5C8B0E94180F882329F0809168
:101860001502806180931502209115028091160265
:10187000922F9823909316024091FF0150E04095DB
:1018800050956091FE0170E046235723452B71F47B
:101890002F7430E0892F90E08095909582239323D8
:1018A00021E0892B09F420E0822F01C081E0909192
:1018B000C701992399F080FF11C0C701B60128EE36
:1018C00033E040E050E00E94661021E0683C710582
:1018D0008105910508F020E0822F01C080E0817031
:1018E0000E94D60240911E02C701B6010E94040365
:1018F0002D813E814F815885C701B6010E94C609DE
:10190000882361F0D701C60186509F4FAF4FBF4F6C
:101910008D839E83AF83B8870E9431102D853E85CD
:101920004F855889C701B6010E94C6098823B1F0C6
:101930002091C60130E0A8EEB3E00E948E109B011A
:10194000AC012C0D3D1D4E1D5F1D2D873E874F8721
:10195000588B80911D0281110E948603A895260153
:101960003701ADCE809117028F3F19F08F5F8093C2
:10197000170280911702833008F435CF8091150249
:101980008160809315022FCF31E0398F2DCFCF9218
:10199000DF92EF92FF920F931F93CF93DF93CDB718
:1019A000DEB7AA970FB6F894DEBF0FBECDBF6C01AD
:1019B00080E0E82E80E0F82E10E000E048E150E002
:1019C000B701CE0101960E94E010AE01495D5F4F64
:1019D000BE01675E7F4FCE0101960E940E098823EB
:1019E00051F1011118C08EE0FE017996D6010190E7
:1019F0000D928A95E1F78FA198A5A9A5BAA5809324
:101A0000E1009093E200A093E300B093E400109310
:101A1000600001E010C02091E1003091E2004091AF
:101A2000E3005091E4006FA178A589A59AA50E94D2
:101A3000C8088111D8CF1F5F88E1E80EF11C123071
:101A400009F0BCCF802FAA960FB6F894DEBF0FBE68
:101A5000CDBFDF91CF911F910F91FF90EF90DF905D
:101A6000CF9008958F929F92AF92BF92CF92DF92C4
:101A7000EF92FF921F93CF93DF93CDB7DEB7C2549F
:101A8000D1090FB6F894DEBF0FBECDBF7C010E9416
:101A9000B906811102C080E087C01091600081E02A
:101AA00018278091E1009091E200A091E300B091AD
:101AB000E4009C01AD012F5F3F4F4F4F5F4FB701D7
:101AC000CE0149960E94D70828E1129FC001112437
:101AD000FC01E050F0407F0160E0CF010E94F01077
:101AE0004E01FAE18F0E911C28E1129F5001112442
:101AF000C12CD12C3FEFA31AB30AF40161914F011D
:101B0000C5018C0D9D1D805090400E94F010FFEF8C
:101B1000CF1ADF0A27E1C216D10479F7698DC70110
:101B20000E94F01048E150E0B701CE0101960E94FA
:101B3000E01048E150E0BE01675E7F4FCE010196A4
:101B40000E94BF10892B09F0A6CFAE01415C5F4F08
:101B5000BE016F5C7F4FCE0101960E940E09882363
:101B600009F499CF4091E1005091E2006091E300C7
:101B70007091E4004F5F5F4F6F4F7F4F2396CCAC67
:101B8000DDACEEACFFAC23974C155D056E057F0513
:101B900009F081CF109360004093E1005093E20080
:101BA0006093E3007093E400CE5BDF4F0FB6F894D0
:101BB000DEBF0FBECDBFDF91CF911F91FF90EF90A1
:101BC000DF90CF90BF90AF909F908F9008958BB192
:101BD0009CB18C7141F48091AA018F5F8F73209129
:101BE000A901821306C081E08093A5018093A6011C
:101BF0000895E091AA01F0E0EB59FE4F90838093A5
:101C0000AA0108951F920F920FB60F9211242F93DD
:101C10003F934F935F936F937F938F939F93AF9374
:101C2000BF93EF93FF930E94E70DFF91EF91BF9158
:101C3000AF919F918F917F916F915F914F913F9164
:101C40002F910F900FBE0F901F9018951F920F921B
:101C50000FB60F9211248F939F93EF93FF93909160
:101C6000A8018091A701981302C055980DC0E0917A
:101C7000A701F0E0EB51FF4F80818CB98091A70163
:101C80008F5F8F778093A701FF91EF919F918F9145
:101C90000F900FBE0F901F90189510BC83E389B969
:101CA0001BB886E880BD88E98AB908955F990C94CD
:101CB000E70D08953091AA012091A901321781F012
:101CC000E091A901F0E0EB59FE4F2081FC01208357
:101CD0008091A9018F5F8F738093A90181E008959E
:101CE00080E00895CF92DF92EF92FF92CF93DF933F
:101CF000D82FC091A801CF5FCF770E9417026B0148
:101D00007C0125E0C20ED11CE11CF11C8091A701D1
:101D1000C8130DC00E941702A70196010E94C609B0
:101D20008823A1F381E08093A60180E00DC0E091BB
:101D3000A801F0E0EB51FF4FD0838FB7F894C09328
:101D4000A801559A8FBF81E0DF91CF91FF90EF906E
:101D5000DF90CF900895CF93DF93EC01FE01849143
:101D6000882329F00E94720E21968111F7CFDF910E
:101D7000CF9108958F929F92AF92BF92EF92FF9270
:101D80001F93CF93DF93CDB7DEB72A970FB6F894A2
:101D9000DEBF0FBECDBF20E04AE0842E912CA12CE7
:101DA000B12C11E0120FEE24E394F12CEC0EFD1E89
:101DB000E20EF11CA50194010E946610605DF7011E
:101DC0006083B901CA01212F611571058105910553
:101DD00041F7112359F01150E1E0F0E0EC0FFD1F45
:101DE000E10FF11D80810E94720EF3CF2A960FB68B
:101DF000F894DEBF0FBECDBFDF91CF911F91FF9052
:101E0000EF90BF90AF909F908F900895CF936AE02E
:101E100070E00E943E10C82F80E090E00E94BA0E51
:101E20008EE20E94720E80E38C0FCF910C94720EA2
:101E30008091A60108958FB7F8941092A6018FBFE4
:101E400008958FB7F8949091A5011092A5018FBFC6
:101E500081E0911101C080E00895CF93DF93CDB769
:101E6000DEB72E970FB6F894DEBF0FBECDBF9EE053
:101E7000EBEAF1E0DE01119601900D929A95E1F7FF
:101E80009091B901492F50E0FA013197E830F105FE
:101E900048F5E65DFF4F0C9488102091AB0130911E
:101EA000AC0122C02091AD013091AE011DC0209146
:101EB000AF013091B00118C02091B1013091B20151
:101EC00013C02091B3013091B4010EC02091B5012F
:101ED0003091B60109C02091B70102C02091B8012C
:101EE00030E002C020E030E0E82F880FFF0B953093
:101EF00018F0A1E0B0E002C0AAE0B0E0AE9FC001DF
:101F0000AF9F900DBE9F900D1124820F931F97FDE0
:101F100033C0FA013197E830F10570F5EE5CFF4F00
:101F20000C9488109A83898318C09C838B8315C076
:101F30009E838D8312C098878F830FC09A8789876D
:101F40000CC09C878B8709C08D339105ACF48D87BD
:101F500004C08230910584F48E87CE0101960E94E0
:101F6000B906882349F08EE0FE013196ABEAB1E074
:101F700001900D928A95E1F72E960FB6F894DEBF88
:101F80000FBECDBFDF91CF9108951092B901089592
:101F9000CF93DF93C82F83FF06C00E94C20A8091AF
:101FA000B901811125C09091B9018C2F8170DC2F6E
:101FB000D270C470992309F1882319F081E00E943E
:101FC0002D0FDD2319F08FEF0E942D0FCC2309F484
:101FD00045C08091B901893071F48EE0EBEAF1E0FF
:101FE000AAEBB1E001900D928A95E1F70E94CB0A2D
:101FF0001092B90133C08F5F2FC0882351F08091B8
:10200000180290E0019669E070E00E9452108093FF
:102010001802DD2351F08091180290E0089669E0E3
:1020200070E00E94521080931802CC23B9F0809186
:102030001802883039F490911E0281E0892780933C
:102040001E020CC08EE0EAEBF1E0ABEAB1E00190D9
:102050000D928A95E1F781E08093B901DF91CF91EC
:1020600008950895991B79E004C0991F961708F008
:10207000961B881F7A95C9F780950895AA1BBB1BEC
:1020800051E107C0AA1FBB1FA617B70710F0A61B78
:10209000B70B881F991F5A95A9F780959095BC0199
:1020A000CD01089597FB072E16F4009407D077FD15
:1020B00009D00E943E1007FC05D03EF49095819512
:1020C0009F4F0895709561957F4F0895A1E21A2E54
:1020D000AA1BBB1BFD010DC0AA1FBB1FEE1FFF1FCC
:1020E000A217B307E407F50720F0A21BB30BE40B1C
:1020F000F50B661F771F881F991F1A9469F7609563
:102100007095809590959B01AC01BD01CF0108951C
:10211000EE0FFF1F0590F491E02D0994A29FB001EE
:10212000B39FC001A39F700D811D1124911DB29F0B
:10213000700D811D1124911D08950E948E10A59F80
:10214000900DB49F900DA49F800D911D11240895B2
:10215000FB01DC018D91059080190110D9F3990BD9
:102160000895FB01DC014150504030F08D91059005
:10217000801919F40020B9F7881B990B0895FB0109
:10218000DC0104C08D910190801921F44150504030
:10219000C8F7881B990B0895FC018191861721F0DF
:1021A0008823D9F7992708953197CF010895FB0126
:1021B000DC018D91019080190110D9F3990B0895DC
:1021C000DC01CB01FC01E199FECF06C0FFBBEEBBF9
:1021D000E09A31960DB20D9241505040B8F70895F3
:1021E000262FE199FECF9FBB8EBBE09A01970DB2DF
:1021F000021631F02DBB0FB6F894E29AE19A0FBEA9
:062200000895F894FFCFE1
:1022060001B4005E012C0120030A001E00020154E5
:102216004C4F5700544849474800484C4F570048D0
:10222600484947480054485953540048485953545C
:0E2236000043535653454300534F554E44004A
:00000001FF
