:100000000C946D000C9496000C9496000C94960041
:100010000C9496000C9496000C9445010C94960058
:100020000C9498000C9496000C9496000C949600F6
:100030000C9496000C9496000C9496000C949600E8
:100040000C9496000C9496000C9496000C949600D8
:100050000C9496000D0A00323000757074696D655D
:100060005F732C74656D705F632C68756D6964696E
:1000700074795F7063742C745F7472656E642C683D
:100080005F7472656E642C616C61726D2C61636B60
:100090002C6572726F72732C6164635F7261772C6E
:1000A0006C75782C7274630D0A00232041546D65C1
:1000B00067613136206D6F6E69746F72204320382E
:1000C0004D487A3B2048454C5020666F7220636F44
:1000D0006D6D616E64730D0A000011241FBECFE5C3
:1000E000D4E0DEBFCDBF84B78093EE0014BE0FB660
:1000F000F894A89581B5886181BD11BC0FBE10E050
:10010000A0E6B0E0E8EEF0E102C005900D92AE3658
:10011000B107D9F720E0AEE6B0E001C01D92AE3ED7
:10012000B207E1F70E94EE040C9462080C94000000
:100130001F921FB61F9211242F938F939F93AF93FB
:10014000BF938091760090917700A0917800B09154
:1001500079008F5B9F4FAF4FBF4F80937600909396
:100160007700A0937800B09379008091740090910B
:100170007500885E9D4F9093750080937400809108
:10018000740090917500883E9340E8F0809174006F
:1001900090917500885E93409093750080937400F1
:1001A0008091760090917700A0917800B0917900CD
:1001B0000196A11DB11D8093760090937700A093C6
:1001C0007800B0937900BF91AF919F918F912F915B
:1001D0001F901FBE1F901895CF92DF92EF92FF9253
:1001E0004FB7F894C0907600D0907700E0907800F8
:1001F000F090790020917400309175008CB59DB518
:1002000008B602FE09C08CB59DB551E4C50ED11CDF
:10021000E11CF11C285E3D4F4FBFA0E0B0E0BC01E7
:10022000CD01620F731F811D911D28EE33E040E068
:1002300050E00E942B08CA01B9016C0D7D1D8E1D76
:100240009F1DFF90EF90DF90CF900895F89484B7B2
:10025000806884BF84BF87B3807F87BB88B38F608B
:1002600088BB1FBC82E08EBD1DBC1CBC20E137E2F8
:100270003BBD2ABD94E198BF99BF85BD14BC78945D
:10028000089586B380958F7008951F920F920FB6D0
:100290000F9211242F933F934F935F936F937F930C
:1002A0008F939F93AF93BF93CF93DF93EF93FF937E
:1002B0008AB59BB5805F984D9BBD8ABD0E94410168
:1002C00040916E00EFE6F0E060E070E0A1E0B0E0A9
:1002D0009D01062E01C0220F0A94EAF79191582F32
:1002E0005223511541F0933018F49F5FEF019A9318
:1002F000933091F407C0911559F19150EF019A9301
:10030000933021F5942F9223911106C0422B9091A6
:100310007300922B909373006F5F7F4F6430710571
:10032000B9F640936E00FF91EF91DF91CF91BF91AD
:10033000AF919F918F917F916F915F914F913F917D
:100340002F910F900FBE0F901F9018959111E4CF31
:1003500020954223E1CF9FB7F894809173001092CB
:1003600073009FBF089508950895CF93C82F87FF06
:1003700003C08DE20E94A506C7FDC1956C2F70E0F9
:1003800080E090E0CF910C94AA068CE20C94A50634
:10039000CF936AE00E94F707C92F805D0E94A506EF
:1003A00080E38C0FCF910C94A5068AE590E00C9425
:1003B000A7066091C0007091C1008091C200909129
:1003C000C3000E94AA060E94C5018091D900811530
:1003D00031F08091C8009091C9000E94CE060E9421
:1003E000C5018091D900811531F08091CA009091AA
:1003F000CB000E94CE060E94C5018091D9008115D4
:1004000059F08091BD00883039F460E088E890E0D0
:100410000E9460030E94B5010E94C5018091D9002D
:10042000811559F08091BD00883039F461E088E889
:1004300090E00E9460030E94B5010E94C501609196
:10044000BE0070E080E090E00E94AA060E94C50114
:100450006091BF0070E080E090E00E94AA060E94D8
:10046000C5016091D50070E080E090E00E94AA068E
:100470000E94C5018091DC00811541F06091CC00A3
:100480007091CD0080E090E00E94AA060E94C50114
:100490008091DB00811551F06091C4007091C5001E
:1004A0008091C6009091C7000E94AA060E94C501D3
:1004B0008091DA00811559F187E590E00E94A70646
:1004C0008091CE000E94C8018DE20E94A506809115
:1004D000CF000E94C8018DE20E94A5068091D00045
:1004E0000E94C80184E50E94A5068091D1000E9467
:1004F000C8018AE30E94A5068091D2000E94C8012B
:100500008AE30E94A5068091D3000E94C80184E579
:1005100090E00C94A7060895DC018EE0E0E6F0E0A0
:1005200001900D928A95E1F708950F931F93CF9351
:10053000DF93FC014081518157FD36C02281338118
:10054000253F61E0360784F5421753076CF5868135
:100550009781893E63E0960738F5A481B581A81795
:10056000B90710F5C085D185BE01615071096436A7
:100570007105D0F4628573858B0101501109083C27
:10058000110590F4241B350BC217D30768F48A1B9E
:100590009B0B6817790740F4848581508C3320F4D5
:1005A00081E09585923008F080E08170DF91CF91F5
:1005B0001F910F91089526E3FC0111922A95E9F706
:1005C0000895FC019B01CA01653F714008F067C0B6
:1005D000893E63E0960708F062C0408151816281E4
:1005E0007381411551056105710509F059C03787BF
:1005F000268735872487938B828B918B808BA0896C
:10060000B1898A179B0710F4918B808BA289B389DB
:10061000A817B90710F4938B828B4034A2E45A07D1
:10062000AFE06A07710500F54F5F5F4F6F4F7F4F77
:1006300040835183628373834481558166817781CE
:10064000420F531F611D711D448355836683778359
:100650004085518562857385480F591F611D711D45
:100660004087518762877387A4A94A2F50E0BF0152
:100670006A0F711D6A0F711DDB0155963C932E9315
:10068000549795969C938E939497CA010196877080
:10069000992784AB85A9883010F48F5F85AB0895C6
:1006A000A485B5852A173B0710F435872487A685CE
:1006B000B785A217B30708F0A2CF378726879FCF49
:1006C000CF93DC01D5968C91D5978830E0F1D49604
:1006D000CC91D49770E020E030E040E050E08C2FE7
:1006E000870F8770E82FF0E0611579F07296EE0FB2
:1006F000FF1FEA0FFB1F80819181E1E0E70F74305B
:1007000030F4480F591F7E2FEACF3A96F0CF280FCA
:10071000391F7E2FE83019F780E590E0611102C0A3
:1007200084E190E0241B350B2817390774F4442723
:100730005527481B590B81E0421753070CF480E002
:100740008195CF91089580E0FCCF81E0FACFEF92C0
:10075000FF920F931F93CF93DC01FB01BA01A90114
:10076000E084F18480819181CC91C0FF08C08E0D1E
:100770009F1D21E06817790734F020E004C021E0D4
:1007800086179707D4F302811381C1FF08C00E19A1
:100790001F0991E00617170734F090E004C091E0BC
:1007A00060177107D4F3990F922B628573852481AA
:1007B0003581C2FF08C0260F371F81E0421753075B
:1007C00034F080E004C081E024173507D4F3880FAB
:1007D000880F892B26813781C3FF08C0261B370B62
:1007E00091E02417350734F090E004C091E04217FF
:1007F0005307D4F391959870892B8C9311969C9103
:100800001197892311968C93CF911F910F91FF908F
:10081000EF900895FC01808181830895CF93DF9349
:10082000FC01DB01EA014081818162812381942FF7
:10083000980F960F920F348193131FC08A30E8F4FB
:100840002A30D8F45AE030E0569F200D311D112493
:10085000253F91E0390788F490E0549F800D911D69
:100860001124893E43E0940740F42D933C939983EF
:10087000888381E0DF91CF91089580E0FBCFDC0198
:10088000CB01821B930BA40BB50BB038880B819561
:100890000895CF93DF93C82FD4B58827C99983953E
:1008A0008C1304C081E0DF91CF9108950E94A406CB
:1008B00084B58D1B843688F380E0F5CFD198D99A22
:1008C0000895D998D19A08959F92AF92BF92CF92EE
:1008D000DF92EF92FF920F931F93CF93DF9300D09D
:1008E00000D00F92CDB7DEB7D82E092FB62EC72E67
:1008F000CE0101967C0185E0F70111928A95E9F716
:10090000AFB6F894D198D99AFAE1FA95F1F700C008
:1009100080E00E944904811116C010E00E94A406E4
:10092000AFBE812F0F900F900F900F900F90DF911F
:10093000CF911F910F91FF90EF90DF90CF90BF90DC
:10094000AF909F90089581E00E944904811529F39A
:1009500080E00E944904811501F310E081E00E94CB
:1009600049048115D1F294B480E00E9449048115B4
:10097000A1F2E12FE695E695E695EE0DFF2DF11D2E
:100980002081220F208384B589198E3210F02160D6
:1009900020831F5F183211F74B2D5C2D6D2D702FAA
:1009A000C7010E940E04182FB9CF089508958EEB49
:1009B00090E00E940A048091D5008093D6000895AB
:1009C0008AE790E00E94A1069091D500811521F060
:1009D0009F7D9093D50008959062FBCFCDB7DEB791
:1009E00069970FB6F894DEBF0FBECDBF0E942601F7
:1009F0000E94A3060E94D6040E945E040E94D504B1
:100A00008AE790E00E948C028091EE0083FF05C08F
:100A10008091D50080648093D50088E890E00E94A2
:100A2000DB021092DD001092DE000E94EC004B0110
:100A30005C01A50194012053384F4F4F5F4F29832C
:100A40003A834B835C8388E19EE00FB6F894A895C7
:100A500081BD0FBE91BD8AEA90E00E94A7060E9468
:100A6000D501898A9A8AAB8ABC8A89819A81AB81AD
:100A7000BC818D879E87AF87B88B89869A86AB8627
:100A8000BC868D829E82AF82B8861D8A1E8A1F8A8E
:100A9000188E198E412C512C32010E94EC006B01F2
:100AA0007C014C0C5D1C6E1C7F1C481859086A08A0
:100AB0007B088091C0009091C100A091C200B091CC
:100AC000C300AC01BD014F5F5F4F6F4F7F4F28EEFA
:100AD000421623E052066104710408F013C18093AA
:100AE000C0009093C100A093C200B093C3000E94C5
:100AF0008B02C701B6010E94AB010E949407398D99
:100B0000311121C029813A814B815C81C701B60135
:100B10000E943F04898F811509F44DC00E94610431
:100B2000D701C6014496A11DB11D8D8B9E8BAF8B45
:100B3000B88FA70196012053384F4F4F5F4F29833D
:100B40003A834B835C832D893E894F89588DC70139
:100B5000B6010E943F04811509F4EEC06AEC70E012
:100B600088EC90E00E9464048093D900811509F418
:100B7000D2C01092D7008091D5008E7F8093D5008F
:100B80004091CA005091CB006091C8007091C9009B
:100B900088E890E00E94E1022091CA003091CB00E9
:100BA0004091C8005091C9006AE770E08EEB90E078
:100BB0000E94A703198E29853A854B855C85C7015C
:100BC000B6010E943F04811551F0D701C6018C5037
:100BD0009E4FAF4FBF4F89879A87AB87BC872989C4
:100BE0003A894B895C89C701B6010E943F0481158F
:100BF00051F0A701960128513C4F4F4F5F4F298B71
:100C00003A8B4B8B5C8B0E94F806811529F0809102
:100C1000D50080618093D5004091D5002091D60009
:100C200024232093D60080918700811509F487C082
:100C30008091BF0090E0809590956091BE0070E03B
:100C40008623972330E02095309550E024233523E8
:100C50002F743327822B932B009781F0C701B601A5
:100C600028EE33E040E050E00E942B0821E0683C91
:100C700071058105910508F020E0822F81700E94A6
:100C8000B3014091DE00C701B6010E94B4012D817D
:100C90003E814F815885C701B6010E943F048115EE
:100CA00061F0D701C60186509F4FAF4FBF4F8D8374
:100CB0009E83AF83B8870E94F6072D853E854F85BA
:100CC0005889C701B6010E943F048115B9F0B09060
:100CD00086008091DD0081110E94D9012B2D30E02A
:100CE000A8EEB3E00E9453089B01AC012C0D3D1D02
:100CF0004E1D5F1D2D873E874F87588BA895460157
:100D00005701CBCE98EE491A93E0590A6108710851
:100D1000DB01CA01D6CE8091D7008F3F31F480919C
:100D2000D50081608093D50045CF8F5F8093D70039
:100D3000833008F43FCFF3CF31E0398F3CCF80E0F0
:100D40009DCF80E008950895089580E00895FC0106
:100D5000849108958F929F92AF92BF92CF92DF922B
:100D6000EF92FF922AE0822E912CA12CB12C6B01E4
:100D70007C01A50194010E942B08B901CA012AE057
:100D8000C216D104E104F10490F7FF90EF90DF90D8
:100D9000CF90BF90AF909F908F9008958F929F9229
:100DA000AF92BF92CF92DF92EF92FF926AE070E033
:100DB0000E94030880E090E02AE0822E912CA12C72
:100DC000B12C6B017C01A50194010E942B08CA0182
:100DD000B9012AE0C216D104E104F10490F7FF90B2
:100DE000EF90DF90CF90BF90AF909F908F9008953D
:100DF00080E008950F931F93CF93DF93CDB7DEB7B5
:100E00002E970FB6F894DEBF0FBECDBF782F2EE021
:100E1000EFEDF0E0CE010196DC0101900D922A95F4
:100E2000E1F72091ED006FEF620F8C01683008F060
:100E300040C0E62FF0E0EC59F74F0C944D0820919C
:100E4000DF003091E0004AE050E07403C001759F7C
:100E5000900D1124820F931F97FD42C0683008F057
:100E60003FC0E62FF0E0E459F74F0C944D08209175
:100E7000E1003091E200E7CF2091E3003091E400FF
:100E8000E2CF2091E5003091E600DDCF2091E70030
:100E90003091E80041E050E0D8CF2091E900309156
:100EA000EA00F8CF2091EB0030E0F4CF2091EC0085
:100EB000FBCF253018F420E030E0C5CF20E030E053
:100EC000E9CF9A838983C8010E949502811541F078
:100ED0008EE0F801AFEDB0E001900D928A95E1F758
:100EE0002E960FB6F894DEBF0FBECDBFDF91CF9127
:100EF0001F910F9108959C838B83E5CF9E838D83F3
:100F0000E2CF98878F83DFCF9A878987DCCF9C8752
:100F10008B87D9CF8D3391051CF78D87D4CF823045
:100F20009105F4F68E87CFCFCF93C82F83FF0AC0E9
:100F30000E94D7048091ED00811541F11092ED00DF
:100F4000CF9108958091ED00811501F1C0FF03C09C
:100F500081E00E94FA06C1FF03C08FEF0E94FA06EB
:100F6000C2FFEECF8091ED00893061F48EE0EFEDAD
:100F7000F0E0AAE7B0E001900D928A95E1F70E94B7
:100F8000E004DCCF8F5F8093ED00DACFC0FF0AC0B2
:100F90008091D80090E0019669E070E00E94170807
:100FA0008093D800C1FF0AC08091D80090E00896D5
:100FB00069E070E00E9417088093D800C2FFC0CF9C
:100FC0008091D800883039F48091DE0091E0892743
:100FD0008093DE00B5CF8EE0EAE7F0E0AFEDB0E061
:100FE00001900D928A95E1F781E0CDCF0895992780
:100FF00078E0880F991F961708F0961B881F7A953E
:10100000C9F780950895AA1BBB1B51E107C0AA1F11
:10101000BB1FA617B70710F0A61BB70B881F991F99
:101020005A95A9F780959095BC01CD01089597FB3D
:10103000072E16F4009407D077FD09D00E9403080C
:1010400007FC05D03EF4909581959F4F08957095CB
:1010500061957F4F0895A1E21A2EAA1BBB1BFD01CB
:101060000DC0AA1FBB1FEE1FFF1FA217B307E40787
:10107000F50720F0A21BB30BE40BF50B661F771FDF
:10108000881F991F1A9469F76095709580959095BF
:101090009B01AC01BD01CF010895EE0FFF1F05902C
:1010A000F491E02D0994A29FB001B39FC001A39FCA
:1010B000700D811D1124911DB29F700D811D112491
:1010C000911D0895F894FFCF1F0737073C0741078C
:1010D00046074D075207560761077B077E078107C2
:0810E000840787078A078F07C8
:0E10E800B4005E012C0120030A001E0002016C
:00000001FF
