:100000000C945A020C9483020C9483020C94830285
:100010000C9483020C9483020C9434030C9483029A
:100020000C9485020C9483020C9483020C940614A5
:100030000C942A140C9483020C9483020C94830273
:100040000C9483020C9483020C9483020C9483021C
:100050000C9483020D0A000D0A232048206D696E5E
:100060002C6D61782C6176673D00232054206D69EA
:100070006E2C6D61782C6176673D0023206E6F20B9
:1000800076616C69642073616D706C65730D0A0034
:100090000D0A002320636F756E743D000D0A002069
:1000A000534F554E443D00204353565345433D0066
:1000B0002048485953543D000D0A232054485953B1
:1000C000543D002048484947483D0020484C4F5780
:1000D0003D002054484947483D002320544C4F5789
:1000E0003D00525443200044494147204F464600BA
:1000F00044494147204F4E000D0A00204C454453CF
:100100003D002052455345543D0023204B45593D69
:100110000044494147005041474520005345542081
:1001200000435356204F464600435356204F4E003F
:10013000434C454152455252005245534554535445
:100140004154530044454641554C5453004C4F4193
:100150004400534156450041434B005354415453CE
:1001600000434F4E464947005354415455530023D2
:10017000205254432059592D4D4D2D444420484878
:100180003A4D4D3A535320573D312E2E37202832C9
:100190003030302E2E32303939290D0A00232050CC
:1001A00041474520302E2E383B2044494147204FBF
:1001B0004E7C4F46463B20434C4541524552520DE2
:1001C0000A002320435356204F4E7C4F46463B2087
:1001D00053455420544C4F577C54484947487C4819
:1001E0004C4F577C48484947487C54485953547CA5
:1001F00048485953547C4353565345437C534F55B9
:100200004E44206E0D0A0023205354415455532070
:10021000434F4E4649472053544154532041434B8A
:100220002053415645204C4F4144204445464155BA
:100230004C545320524553455453544154530D0A82
:100240000048454C5000232045525220636F6D6D8D
:10025000616E642F76616C75652F6D6F64756C656A
:100260000D0A0023204F4B0D0A0023204552522037
:100270006C696E65206469736361726465640D0AFC
:10028000000D0A00323000757074696D655F732C63
:1002900074656D705F632C68756D69646974795FEE
:1002A0007063742C745F7472656E642C685F747212
:1002B000656E642C616C61726D2C61636B2C657270
:1002C000726F72732C6164635F7261772C6C7578E6
:1002D0002C7274630D0A00232041546D65676131EF
:1002E00036206D6F6E69746F72204320384D487AE6
:1002F0003B2048454C5020666F7220636F6D6D61E6
:100300006E64730D0A00534554204C454420453A11
:100310002530325800444941473A2575204B45590C
:100320003A2558004C69676874206572726F7200D4
:10033000256C75206C7578004C696768742042489C
:1003400031373530004D697373696E67202F207324
:100350006574205554430052544320445333323380
:100360003100253032753A253032753A25303275F4
:1003700020572575003230253032752D25303275E5
:100380002D2530327500414443206572726F720032
:10039000257520256C756D56204035560056523116
:1003A0002041444330202F204156434300256C75A3
:1003B000732052455345543A253032580055502049
:1003C000256C7564202530326C753A2530326C7599
:1003D00000543A256320483A256320282B7570295C
:1003E000005472656E64207374616C6500547265AC
:1003F0006E642077696E646F772025752F38004111
:10040000564725752E2575204E256C7500256320D1
:1004100025752E25752D25752E2575005761697456
:1004200020666F72204448543131005374617473F4
:100430003A206E6F206461746100413A2530325871
:100440002041434B3A255820453A25303258004444
:1004500048543131206E6F206461746100542575F9
:100460002E257543204825752E25752525005550C8
:100470002F444E205345543E2041434B20580025E5
:10048000733D257500534F554E4400435356534515
:10049000430048485953540054485953540048485D
:1004A00049474800484C4F57005448494748005472
:1004B0004C4F570011241FBECFE5D4E0DEBFCDBFA7
:1004C00084B780935B0214BE0FB6F894A89581B5EB
:1004D000886181BD11BC0FBE10E0A0E6B0E0EAE08B
:1004E000FAE302C005900D92AA3DB107D9F722E0C8
:1004F000AAEDB0E001C01D92AB35B207E1F70E9452
:10050000A30F0C94EB1C0C9400001F921FB61F92BB
:1005100011242F938F939F93AF93BF938091E70004
:100520009091E800A091E900B091EA008F5B9F4FA5
:10053000AF4FBF4F8093E7009093E800A093E9008E
:10054000B093EA008091E5009091E600885E9D4FAF
:100550009093E6008093E5008091E5009091E6009D
:10056000883E9340E8F08091E5009091E600885E37
:1005700093409093E6008093E5008091E70090918E
:10058000E800A091E900B091EA000196A11DB11D1B
:100590008093E7009093E800A093E900B093EA000D
:1005A000BF91AF919F918F912F911F901FBE1F9070
:1005B0001895CF92DF92EF92FF924FB7F894C090C8
:1005C000E700D090E800E090E900F090EA00209188
:1005D000E5003091E6008CB59DB508B602FE09C075
:1005E0008CB59DB551E4C50ED11CE11CF11C285EF3
:1005F0003D4F4FBFA0E0B0E0BC01CD01620F731FC3
:10060000811D911D28EE33E040E050E00E945C190E
:10061000CA01B9016C0D7D1D8E1D9F1DFF90EF90CD
:10062000DF90CF900895F89484B7806884BF84BF2A
:1006300087B3807F87BB88B38F6088BB1FBC82E095
:100640008EBD1DBC1CBC20E137E23BBD2ABD94E140
:1006500098BF99BF85BD14BC8A9A929878940895E2
:1006600086B380958F7008951F920F920FB60F92E8
:1006700011242F933F934F935F936F937F938F93A7
:100680009F93AF93BF93CF93DF93EF93FF938AB57D
:100690009BB5805F984D9BBD8ABD0E943003409101
:1006A000DF00E0EEF0E060E070E0A1E0B0E09D018E
:1006B000062E01C0220F0A94EAF79191582F522377
:1006C000511541F0933018F49F5FEF019A939330E6
:1006D00091F407C0911559F19150EF019A9393301D
:1006E00021F5942F9223911106C0422B9091E400A2
:1006F000922B9093E4006F5F7F4F64307105B9F6E1
:100700004093DF00FF91EF91DF91CF91BF91AF91C7
:100710009F918F917F916F915F914F913F912F9119
:100720000F900FBE0F901F9018959111E4CF209558
:100730004223E1CF9FB7F8948091E4001092E40047
:100740009FBF0895811511F0929A08959298089587
:10075000CF92DF92EF92FF92CF93DF93EC0180E490
:1007600087B986E886B9369A0E94D9026B5F7F4FB7
:100770008F4F9F4F6B017C0136990CC084B195B1AE
:100780009983888381E0DF91CF91FF90EF90DF9094
:10079000CF9008950E94D902A70196010E94A20C51
:1007A000811551F380E0EFCFCF92DF92EF92FF926D
:1007B0006B017C0181B341110AC0877E81BB82B38A
:1007C000877E82BBFF90EF90DF90CF900895886185
:1007D00081BB2091DB003091DC004091DD00509125
:1007E000DE00C701B6010E94A20C811559F36CE22C
:1007F000C60E61E0D61EE11CF11CC092DB00D09257
:10080000DC00E092DD00F092DE008091DA0090E002
:1008100001966AE070E00E9448198093DA0042B3C2
:10082000877021E030E0B90102C0660F771F8A951A
:10083000E2F7CB0180958871477E842BC2CFCF939E
:10084000C82F87FF03C08DE20E947114C7FDC195B8
:100850006C2F70E080E090E0CF910C94B8148CE2A3
:100860000C947114CF936AE00E942819C92F805DFF
:100870000E94711480E38C0FCF910C94711487E85F
:1008800092E00C94A91460916301709164018091CD
:100890006501909166010E94B8140E942F04809116
:1008A0007C01811531F080916B0190916C010E9467
:1008B00017150E942F0480917C01811531F08091E1
:1008C0006D0190916E010E9417150E942F04809176
:1008D0007C01811559F080916001883039F460E025
:1008E0008BE291E00E94C7090E941F040E942F041E
:1008F00080917C01811559F080916001883039F434
:1009000061E08BE291E00E94C7090E941F040E94EF
:100910002F046091610170E080E090E00E94B814C3
:100920000E942F046091620170E080E090E00E94DC
:10093000B8140E942F046091780170E080E090E08C
:100940000E94B8140E942F0480917F01811541F00C
:1009500060916F017091700180E090E00E94B81486
:100960000E942F0480917E01811551F060916701F2
:10097000709168018091690190916A010E94B81498
:100980000E942F0480917D01811559F184E892E045
:100990000E94A914809171010E9432048DE20E948C
:1009A0007114809172010E9432048DE20E947114D0
:1009B000809173010E94320484E50E947114809139
:1009C00074010E9432048AE30E94711480917501BF
:1009D0000E9432048AE30E947114809176010E9481
:1009E000320481E892E00C94A914EF92FF921F93D5
:1009F000CF93DF93CDB7DEB764970FB6F894DEBF21
:100A00000FBECDBF0E943215811519F081E0809391
:100A10001C0111E0CE0144960E94591481110CC0B2
:100A200064960FB6F894DEBF0FBECDBFDF91CF91B5
:100A30001F91FF90EF9008950E943215811110933D
:100A40001C018C898D3019F08A3009F0B5C2809173
:100A50001C01811549F08AE692E00E94A9141092C7
:100A60001B0110921C01D6CFE0911B01E115B9F3D7
:100A7000F0E0E551FF4F108261E472E08BEE90E010
:100A80000E949319892B89F487E092E00E94A914AF
:100A900082EC91E00E94A9148DE991E00E94A914D2
:100AA0008FE691E00E94A9140AC068E671E08BEE1F
:100AB00090E00E949319892B29F40E94430483E655
:100AC00092E0CBCF61E671E08BEE90E00E9493194B
:100AD000892B09F065C08AED90E00E94A91460910D
:100AE0001D0170911E01072E000C880B990B0E94AE
:100AF000B81482ED90E00E94A91460911F017091DA
:100B00002001072E000C880B990B0E94B8148BEC67
:100B100090E00E94A914609121017091220180E06F
:100B200090E00E94B81483EC90E00E94A9146091B8
:100B300023017091240180E090E00E94B81488EBBA
:100B400090E00E94A914609125017091260180E037
:100B500090E00E94B81480EB90E00E94A91460918C
:100B600027017091280180E090E00E94B81487EA84
:100B700090E00E94A9146091290170E080E090E06B
:100B80000E94B8148FE990E00E94A91460912A0194
:100B900070E080E090E00E94B8148CE990E082CF91
:100BA0006BE571E08BEE90E00E949319892B09F0C0
:100BB00076C083E990E00E94A91460912B017091A6
:100BC0002C0180912D0190912E010E94B81480E992
:100BD00090E00E94A91480912B0190912C01A0918A
:100BE0002D01B0912E01892B8A2B8B2B19F48BE7C9
:100BF00090E058CF8AE690E00E94A91480913701D6
:100C0000909138010E9417150E942F04809139019C
:100C100090913A010E9417150E942F0460912F01B4
:100C200070913001809131019091320120912B011E
:100C300030912C0140912D0150912E010E945C19A0
:100C4000C9010E94171587E590E00E94A9148091C0
:100C50003B0190913C010E9417150E942F04809146
:100C60003D0190913E010E9417150E942F04609152
:100C700033017091340180913501909136012091BA
:100C80002B0130912C0140912D0150912E010E9499
:100C90005C19C9010E94171584E590E003CF67E550
:100CA00071E08BEE90E00E949319892B19F40E9459
:100CB000760F05CF62E571E08BEE90E00E9493190C
:100CC000892B31F40E947F0F811509F477C0F7CE8C
:100CD0006DE471E08BEE90E00E949319892B19F47A
:100CE0000E948D0FF1CF64E471E08BEE90E00E94E2
:100CF0009319892B39F48DE191E00E9415080E9427
:100D0000DA15DDCE69E371E08BEE90E00E94931975
:100D1000892B29F48BE291E00E944209D0CE60E356
:100D200071E08BEE90E00E949319892B41F40E94B0
:100D30002C15809178018F7A80937801C0CE69E27A
:100D400071E08BEE90E00E949319892B31F481E0E1
:100D5000809380010E943F04B2CE61E271E08BEE8D
:100D600090E00E949319892B19F410928001A7CE6C
:100D700044E050E06CE171E08BEE90E00E94A3193A
:100D8000892BF9F460E270E08FEE90E00E94BE19CA
:100D90000097A1F0FC011192CF01BE016F5F7F4F60
:100DA0000E94AC0C811551F049815A816FEE70E0C0
:100DB0008DE191E00E9464088111A1CF86E492E068
:100DC0004CCE45E050E066E171E08BEE90E00E9491
:100DD000A319892B89F4BE016F5F7F4F80EF90E0EC
:100DE0000E94AC0C811551F389819A81893091055B
:100DF00028F780937B0183CF61E171E08BEE90E077
:100E00000E949319892B29F58AE091E00E94A91488
:100E10000E943003682F70E080E090E00E94B814D8
:100E200082E091E00E94A91460915B0270E080E092
:100E300090E00E94B8148BEF90E00E94A91460919A
:100E4000810170E080E090E00E94B81488EF90E0AB
:100E500029CE60EF70E08BEE90E00E949319892B11
:100E600039F481E08093810188E080937B0127CE73
:100E700067EE70E08BEE90E00E949319892B19F4D5
:100E8000109281011CCE44E050E062EE70E08BEEE7
:100E900090E00E94A319892B09F090CFEFEEF0E0CB
:100EA00001900020E9F7E550F14009F087CF8091EB
:100EB000F1008D3209F082CF8091F4008D3209F07B
:100EC0007DCF8091F700803209F078CF8091FA00D1
:100ED0008A3309F073CF8091FD008A3309F06ECF19
:100EE00080910001803209F069CF8091010187353E
:100EF00009F064CF809102018D3309F05FCF86E065
:100F0000E1E6F0E0DE01189601900D928A95E1F796
:100F10007E01E8E0EE0EF11CDE011E96AD016AE0F6
:100F2000F70121917F0130E0C90181519F4FFC0100
:100F3000808190ED980F9A3008F040CF20513F4FBC
:100F4000F901908190539A3008F038CF8053869FF2
:100F5000900D11249D934E155F0511F780910301AB
:100F60009FEC980F973008F029CF9E8599839F8535
:100F70009A8398899B8399899C839A899D839B896D
:100F80009E8380538F83CE0101960E941B12811590
:100F900009F414CF81E791E00E94E51180937D016F
:100FA00090917801811521F09D7F9093780187CDF4
:100FB00092609093780102CF883011F08F3769F4F6
:100FC00080911B01811509F425CD90911C0191118F
:100FD00021CD815080931B011DCD90EE980F9F3540
:100FE00068F4E0911B01EF3248F491E09E0F90937A
:100FF0001B01F0E0E551FF4F80830CCD10931C01E5
:1010000009CDFB01282F2F702A3068F4982F929574
:101010009F70803A40F4822F3AE0939F800D112414
:10102000808381E0089580E00895DC018EE0E7E6AA
:10103000F0E001900D928A95E1F708950F931F93C8
:10104000CF93DF93FC014081518157FD36C022814F
:101050003381253F61E0360784F5421753076CF56D
:1010600086819781893E63E0960738F5A481B58132
:10107000A817B90710F5C085D185BE016150710967
:1010800064367105D0F4628573858B0101501109B6
:10109000083C110590F4241B350BC217D30768F4E4
:1010A0008A1B9B0B6817790740F4848581508C3329
:1010B00020F481E09585923008F080E08170DF9126
:1010C000CF911F910F9108952F923F924F925F926F
:1010D0006F927F928F929F92AF92BF92CF92DF9248
:1010E000EF92FF920F931F93CF93DF93CDB7DEB7AD
:1010F00062970FB6F894DEBF0FBECDBF8C016F872D
:10110000788B7A01FC0142805380648075808680F0
:101110009780A084B184F285F98BFC01F385FA8B6A
:10112000FC01C484D58465E770E08F8598890E94AE
:10113000C919892B09F4A2C0F801208031806AE71F
:1011400070E08F8598890E94C919892B09F498C08D
:1011500060E870E08F8598890E94C919892BA9F4ED
:101160003701F7FC3CC067E970E08F8598890E94E1
:10117000C919892B09F05AC081E0E81AF1089CE3EB
:10118000E916F10408F452C02AC065E870E08F85C2
:1011900098890E94C919892B11F44701E2CF6BE8A5
:1011A00070E08F8598890E94C919892B11F4570125
:1011B000D8CF61E970E08F8598890E94C919892B81
:1011C00019F4E98AFA8ACDCF67E970E08F859889AA
:1011D0000E94C919892BE9F4CE2CF7FECDCF80E00F
:1011E00062960FB6F894DEBF0FBECDBFDF91CF91F0
:1011F0001F910F91FF90EF90DF90CF90BF90AF9035
:101200009F908F907F906F905F904F903F902F9026
:1012100008956EE970E08F8598890E94C919892B1D
:10122000F1F6DE2CF2E0EF16F104C8F629823A82DC
:101230004B825C826D827E828F829886A986BA8676
:10124000E989EB87FA89FC87CD86DE86CE01019697
:101250000E941E08811519F2F80120823182428213
:1012600053826482758286829782A086B18699892C
:1012700092879A899387C486D586B2CF170171CF9A
:1012800027016FCF26E3FC0111922A95E9F7089513
:10129000FC019B01CA01653F714008F067C0893EAF
:1012A00063E0960708F062C04081518162817381DA
:1012B000411551056105710509F059C03787268729
:1012C00035872487938B828B918B808BA089B18902
:1012D0008A179B0710F4918B808BA289B389A8177A
:1012E000B90710F4938B828B4034A2E45A07AFE025
:1012F0006A07710500F54F5F5F4F6F4F7F4F408367
:101300005183628373834481558166817781420F63
:10131000531F611D711D4483558366837783408508
:10132000518562857385480F591F611D711D408766
:10133000518762877387A4A94A2F50E0BF016A0FC3
:10134000711D6A0F711DDB0155963C932E935497C6
:1013500095969C938E939497CA01019687709927CE
:1013600084AB85A9883010F48F5F85AB0895A48580
:10137000B5852A173B0710F435872487A685B785DE
:10138000A217B30708F0A2CF378726879FCFCF9346
:10139000DC01D5968C91D5978830E0F1D496CC912C
:1013A000D49770E020E030E040E050E08C2F870FD1
:1013B0008770E82FF0E0611579F07296EE0FFF1F4D
:1013C000EA0FFB1F80819181E1E0E70F743030F478
:1013D000480F591F7E2FEACF3A96F0CF280F391FBA
:1013E0007E2FE83019F780E590E0611102C084E1BA
:1013F00090E0241B350B2817390774F44427552730
:10140000481B590B81E0421753070CF480E081958B
:10141000CF91089580E0FCCF81E0FACFEF92FF9268
:101420000F931F93CF93DC01FB01BA01A901E08464
:10143000F18480819181CC91C0FF08C08E0D9F1DE9
:1014400021E06817790734F020E004C021E0861716
:101450009707D4F302811381C1FF08C00E191F0939
:1014600091E00617170734F090E004C091E0601790
:101470007107D4F3990F922B62857385248135818E
:10148000C2FF08C0260F371F81E04217530734F010
:1014900080E004C081E024173507D4F3880F880F5B
:1014A000892B26813781C3FF08C0261B370B91E0AB
:1014B0002417350734F090E004C091E04217530739
:1014C000D4F391959870892B8C9311969C911197D8
:1014D000892311968C93CF911F910F91FF90EF90DC
:1014E0000895FC018081818308959C018FEF9FEF17
:1014F000615008F40895F9012191922728E0AC0188
:10150000880F991F57FF04C031E2832730E19327EA
:101510002A95A9F79F01ECCF621B730B840B950BE7
:1015200021E016161706180619060CF020E0822F87
:101530000895CF93DF93EC01FB01019667E1DC0195
:101540001D926A95E9F765EA688361E069832A83F9
:101550003B834C835D83208131813F832E832281B5
:10156000338139872887248135813B872A872681E3
:1015700037813D872C87208531853F872E872285BF
:101580003385398B288B24852A8B25852B8B65E128
:101590000E94750A9F8B8E8BDF91CF9108952F92B9
:1015A0003F924F925F926F927F928F929F92AF92F3
:1015B000BF92CF92DF92EF92FF920F931F93CF9340
:1015C000DF93CDB7DEB762970FB6F894DEBF0FBEDC
:1015D000CDBF8C017B014F87588BFC018081853A00
:1015E000D1F080E062960FB6F894DEBF0FBECDBF9B
:1015F000DF91CF911F910F91FF90EF90DF90CF90EF
:10160000BF90AF909F908F907F906F905F904F9022
:101610003F902F9008958181813019F7C688D7882F
:1016200065E1C80101960E94750A8C159D05C9F6F1
:10163000F8012680378040845184628473848484D6
:101640009584A684B784C088D188F289F98BF80183
:10165000F389FA8B29823A824B825C826D827E8288
:101660008F829886BA86A986DC86CB8689898D8703
:10167000FE87CE0101960E941E08811509F4B1CFA4
:10168000F801438150E060E070E0762F652F542F21
:1016900044279281492B9481692B9581792BF701FD
:1016A000208231824282538264827582868297824E
:1016B000B186A086D386C286998994879A899587B0
:1016C000EF85F88940835183628373838BCFFC015C
:1016D0008081843610F521819FEF920F9C30E8F4D1
:1016E00093819831D0F494819C33B8F495819C33E4
:1016F000A0F496819150973080F4A22FB0E0A254CC
:10170000BF4F9C91223021F48370811101C09F5FF3
:101710002281215081E0291708F080E008959F92EE
:10172000AF92BF92CF92DF92EF92FF920F931F93EF
:10173000CF93DF93CDB7DEB728970FB6F894DEBF0F
:101740000FBECDBF8C01D62EE72EFC01808187FF16
:1017500013C080E028960FB6F894DEBF0FBECDBF51
:10176000DF91CF911F910F91FF90EF90DF90CF907D
:10177000BF90AF909F900895918097FCEACFF28040
:10178000F7FCE7CFC380F8E0CF1618F7F801A48084
:10179000F0E4AF16F0F6F801B580F0E2BF16C8F637
:1017A0001C821F82BE016A5F7F4F0E940108811563
:1017B00081F2BE016B5F7F4F892D0E940108811568
:1017C00041F2BE016D5F7F4F8A2D0E940108811595
:1017D00009F4BFCFBE016E5F7F4F8B2D0E940108C1
:1017E000811509F4B6CFCE0101965C01BC01F80168
:1017F00086810E9401088501811509F4AACFBE01E6
:10180000F6FE28C0685F7F4F8F2D8F710E94010800
:10181000811509F49ECF88859FEF980F9C3008F0C2
:1018200098CF6CE00E9428198F2D8072F5FC8CE017
:10183000980F9C83CF82C8010E94670B811509F421
:1018400088CF97E0F801AD2DBE2D01900D929A95AD
:10185000E1F780CF6C5F7F4F8F2D0E9401088115CB
:1018600009F477CF9C81E5CFDC01FB0115968C91C3
:1018700015972AE0622F0E9428198295807F892B74
:10188000808314968C9114970E9428198295807FEA
:10189000892B818313968C9113970E942819829526
:1018A000807F892B828316968C911697838312965C
:1018B0008C9112970E9428198295807F892B8483AE
:1018C00011968C9111970E9428198295807F892BFF
:1018D00085838C910E9428198295807F892B86832D
:1018E0000895CF93DF93FC01DB01EA014081818100
:1018F00062812381942F980F960F920F3481931356
:101900001FC08A30E8F42A30D8F45AE030E0569FFD
:10191000200D311D1124253F91E0390788F490E016
:10192000549F800D911D1124893E43E0940740F49B
:101930002D933C939983888381E0DF91CF91089523
:1019400080E0FBCFDC01CB01821B930BA40BB50B1A
:10195000B038880B819508958F929F92AF92BF9275
:10196000CF92DF92EF92FF921F93CF93DF93EC0120
:10197000FB01888110E08D3211F4219611E08881FD
:10198000811509F442C0812C912C5401C12ED12C17
:10199000E12CF12C4FEFC40E4FE7D41EE11CF11CDB
:1019A0004991411116C066277727681979091111E5
:1019B00001C0B4017183608381E0DF91CF911F91F9
:1019C000FF90EF90DF90CF90BF90AF909F908F905F
:1019D000089520ED240F2A30C0F49401AAE0B0E06D
:1019E0000E948419242F440F330B205331094901DD
:1019F000092C000CAA08BB08860E971EA81EB91E4B
:101A0000C814D904EA04FB0458F680E0D6CFCF937B
:101A1000DF93C82FD4B58827C99983958C1304C048
:101A200081E0DF91CF9108950E94551484B58D1BFC
:101A3000843688F380E0F5CFD198D99A0895D99863
:101A4000D19A08959F92AF92BF92CF92DF92EF9278
:101A5000FF920F931F93CF93DF9300D000D00F928C
:101A6000CDB7DEB7D82E092FB62EC72ECE010196E0
:101A70007C0185E0F70111928A95E9F7AFB6F894F9
:101A8000D198D99AFAE1FA95F1F700C080E00E9466
:101A9000070D811116C010E00E945514AFBE812FB2
:101AA0000F900F900F900F900F90DF91CF911F919B
:101AB0000F91FF90EF90DF90CF90BF90AF909F90ED
:101AC000089581E00E94070D811529F380E00E94AE
:101AD000070D811501F310E081E00E94070D8115CB
:101AE000D1F294B480E00E94070D8115A1F2E12F9C
:101AF000E695E695E695EE0DFF2DF11D2081220F6E
:101B0000208384B589198E3210F0216020831F5FF5
:101B1000183211F74B2D5C2D6D2D702FC7010E94CF
:101B2000710C182FB9CF88EE93E006B607FC08C0F9
:101B30002AE12A95F1F700C00197B9F780E00895EE
:101B400081E0089583B984E886BF0E94930D8115D2
:101B500031F091B1987F81E0983209F080E00895EA
:101B60000F931F93CF938C01C62F84EC611101C09A
:101B700084E886BF0E94930D811579F021B1287FFA
:101B800030E040E550E0C11102C048E550E02417C4
:101B9000350739F493B1F8019083CF911F910F91DC
:101BA000089580E0FACF16BE85B38C7F85BB84B3E1
:101BB0008C7F84BB89E0A09A9DE09A95F1F70000A4
:101BC000A0989DE09A95F1F700008A95A1F7A19A57
:101BD0008DE08A95F1F70000A0989DE09A95F1F7C5
:101BE0000000A1988DE08A95F1F7000084E086BF9F
:101BF000089584E986BF88EE93E006B604FE0AC025
:101C00002AE12A95F1F700C00197B9F70E94D30D98
:101C100080E0089581E00895CF93C82F84EA86BFBD
:101C20000E94930D811102C080E01CC081B1887FA9
:101C3000883021F081B1887F8031B1F7C3B984E861
:101C400086BF0E94930D811579F321B1287F30E082
:101C500040E450E0C0FD02C048E150E081E02417BC
:101C6000350711F7CF91089584B38C7F84BB85B37A
:101C70008C7F85BB11B880E280B984E086BF08956F
:101C80000F931F93CF93DF93062FD72F142F880F17
:101C90000E940C0EC82F802F9D2FD12FD00FC11561
:101CA00011F0D8130FC00E94F90D811511F0C11168
:101CB00003C00E94D30DC0E08C2FDF91CF911F9104
:101CC0000F910895FC0181918F010E94A20DC82FF0
:101CD000C801E5CFEF92FF920F931F93CF93DF934D
:101CE0008B01D42F880F81600E940C0EC82FC11564
:101CF00011F0D11111C00E94F90D811511F0C1111F
:101D000003C00E94D30DC0E08C2FDF91CF911F91B3
:101D10000F91FF90EF900895D15078018FEFE81A5E
:101D2000F80A61E0D11101C060E0C8010E94B00D65
:101D3000C82F8701DCCFEF92FF920F931F93CF93B1
:101D4000DF93F62E8A01D22FC82FCC0F8C2F0E9442
:101D50000C0E811119C080E090E0C82FC170C11530
:101D600011F0D1111BC00E94F90D811511F0C111A4
:101D700003C00E94D30DC0E08C2FDF91CF911F9143
:101D80000F91FF90EF9008958F2D0E94A20D811565
:101D900011F38C2F81600E940C0EDFCFD15078019F
:101DA0008FEFE81AF80A61E0D11101C060E0C801C4
:101DB0000E94B00DC82F8701D2CF95B39F70807F4E
:101DC000982B95BB82E08A95F1F700C0979A82E044
:101DD0008A95F1F700C0979882E08A95F1F700C0E4
:101DE0000895CF93C82F611581F0969A95988C2FFE
:101DF0000E94DD0E8C2F8295807F0E94DD0E85E88B
:101E00008A95F1F70000CF9108959698EFCF84B3AB
:101E1000806F84BB81B3806E81BB82B38F7182BBC4
:101E20002FEF89EF90E0215080409040E1F700C013
:101E3000000080E30E94DD0E8FE097E20197F1F74A
:101E400000C0000080E30E94DD0E8BE291E001976C
:101E5000F1F700C0000080E30E94DD0E8BE291E00C
:101E60000197F1F700C0000080E20E94DD0E8BE2D6
:101E700091E00197F1F700C0000060E088E20E9465
:101E8000F10E60E08CE00E94F10E60E086E00E94BE
:101E9000F10E60E081E00E94F10E8FE99FE0019772
:101EA000F1F700C0000008950F931F93CF93DF93C5
:101EB000EB018115B1F080EC60E00E94F10E10E1C1
:101EC00000E0011111C08881811569F0219661E05F
:101ED0000E94F10E1A95A9F7DF91CF911F910F91F2
:101EE000089580E8E9CF01E080E2F1CF81E691E05A
:101EF0000E94710A809178018093790108958DE1A3
:101F000091E00E94491390917801811521F09F7D05
:101F10009093780108959062FBCFCF938DE191E08B
:101F20000E94D712C82F90917801811541F09F7DB2
:101F3000909378010E94DA158C2FCF9108959062CA
:101F400090937801F9CFCDB7DEB76E970FB6F894BE
:101F5000DEBF0FBECDBF0E9413030E944C140E942F
:101F6000070F0E941C0D0E94340E8DE191E00E942B
:101F700015088DE191E00E94D712811105C0809172
:101F8000780180628093780180915B0283FF05C0B5
:101F9000809178018064809378018BE291E00E94C7
:101FA000420981E080938001109281010E94D90250
:101FB0002B013C01A30192012053384F4F4F5F4F3B
:101FC0002D833E834F8358870E947D128D8F0E9400
:101FD000D9024B015C013D8D311509F4B2C1D50127
:101FE000C40188539F4FAF4FBF4F89839A83AB8300
:101FF000BC8388E19EE00FB6F894A89581BD0FBE22
:1020000091BD87ED92E00E94A9140E943F044D8A81
:102010005E8A6F8A788E8D819E81AF81B885898B2B
:102020009A8BAB8BBC8B4D865E866F86788A498691
:102030005A866B867C86198E1A8E1B8E1C8E1E8E7F
:10204000812C912C54010E94D9026B017C018C0CD3
:102050009D1CAE1CBF1C84189508A608B70880916B
:10206000630190916401A0916501B0916601AC019A
:10207000BD014F5F5F4F6F4F7F4F28EE821623E009
:102080009206A104B10408F06CC18093630190939F
:102090006401A0936501B09366010E94F504C70135
:1020A000B6010E949A030E94DD153E8D311121C0B8
:1020B0002D813E814F815885C701B6010E94A20C37
:1020C0008E8F811509F44DC00E941F0DD701C601E6
:1020D0004496A11DB11D898F9A8FAB8FBC8FA7012C
:1020E00096012053384F4F4F5F4F2D833E834F83D0
:1020F0005887298D3A8D4B8D5C8DC701B6010E94A2
:10210000A20C811509F447C16DE671E08BE691E000
:102110000E94220D80937C01811509F42BC110923D
:102120007A01809178018E7F8093780140916D01D2
:1021300050916E0160916B0170916C018BE291E0A6
:102140000E94480920916D0130916E0140916B0110
:1021500050916C016DE171E081E691E00E940E0A00
:102160001E8E2D853E854F855889C701B6010E9478
:10217000A20C8115C9F08FE691E00E94A803982F68
:1021800080937F0180917801911509F407C1877FC1
:10219000A70196012C503E4F4F4F5F4F2D873E8732
:1021A0004F87588B809378012D893E894F89588DB0
:1021B000C701B6010E94A20C8115C9F081E791E028
:1021C0000E94E511982F80937D01809178019115EF
:1021D00009F4E6C08D7FA701960128513C4F4F4F6F
:1021E0005F4F2D8B3E8B4F8B588F809378012981C9
:1021F0003A814B815C81C701B6010E94A20C811516
:1022000009F13D8D3111CEC00E947D128D8F811557
:1022100009F4D4C088EC90E0A0E0B0E09C01AD01EE
:102220002C0D3D1D4E1D5F1D29833A834B835C831E
:102230008091780190917E01911509F4C2C08B7F45
:10224000809378010E942915811529F080917801E9
:102250008061809378014091780120917901242355
:102260002093790180912A01811509F4ACC08091F5
:10227000620190E0809590956091610170E0862305
:10228000972330E02095309550E0242335232F7498
:102290003327822B932B009781F0C701B60128EEDC
:1022A00033E040E050E00E945C1921E0683C710599
:1022B0008105910508F020E0822F81700E94A20321
:1022C00040918101C701B6010E94D40329853A8556
:1022D0004B855C85C701B6010E94A20C811561F097
:1022E000D701C60186509F4FAF4FBF4F89879A874E
:1022F000AB87BC870E943F1629893A894B895C8944
:10230000C701B6010E94A20C8115B9F07090290195
:102310008091800181110E944304272D30E0A8EEB6
:10232000B3E00E9484199B01AC012C0D3D1D4E1D94
:102330005F1D298B3A8B4B8B5C8BA895260137014F
:1023400082CEA501940128573C4E4F4F5F4F298301
:102350003A834B835C838091780184608093780119
:1023600048CE98EE891A93E0990AA108B108DB01DA
:10237000CA017DCE80917A018F3F31F4809178013E
:10238000816080937801ECCE8F5F80937A018330F7
:1023900008F4E6CEF3CF31E03E8FE3CE8860F8CE8E
:1023A000826019CF87E691E00E94A7128D8F8093FB
:1023B0007E01811519F080ED97E02ECF88E893E13A
:1023C0002BCF84603DCF80E078CF0F931F93CF93C6
:1023D000DF93CDB7DEB728970FB6F894DEBF0FBEF8
:1023E000CDBF8C0127E0AE014F5F5F4F60E088E614
:1023F0000E949B0E81110CC080E028960FB6F894C5
:10240000DEBF0FBECDBFDF91CF911F910F91089519
:1024100021E0AE01485F5F4F6FE088E60E949B0EAF
:10242000811551F3888587FDE7CFB801CE0101966C
:102430000E948F0BE2CFEF92FF920F931F93CF93E7
:10244000DF93CDB7DEB72A970FB6F894DEBF0FBE85
:10245000CDBF7C018E010F5F1F4F88E0F801119204
:102460008A95E9F7C7010E94670B81110EC080E0D1
:102470002A960FB6F894DEBF0FBECDBFDF91CF9185
:102480001F910F91FF90EF900895BE016E5F7F4FF7
:10249000C7010E94340C48E0B80188E60E94400E53
:1024A000811529F321E0AE01465F5F4F6FE088E6BA
:1024B0000E949B0E8115D9F28FE089838A858F77E0
:1024C0008A8342E0B80188E60E94400E811579F2C5
:1024D00021E0AE01475F5F4F6EE088E60E949B0EF1
:1024E000811529F28EE0898389858F778A8342E07E
:1024F000B80188E60E94400EBBCFCF93DF930F92C6
:10250000CDB7DEB781E0898341E0BE016F5F7F4FC9
:1025100083E20E94400E811105C080E00F90DF91A0
:10252000CF91089587E0898341E0BE016F5F7F4FBF
:1025300083E20E94400E811581F380E1898341E0AE
:10254000BE016F5F7F4F83E20E94400EE7CFEF92A4
:10255000FF921F93CF93DF9300D0CDB7DEB77C01FE
:1025600042E0BE016F5F7F4F83E20E946A0E182F28
:102570008115A1F029813A81322723273227A5E04E
:10258000B0E00E94841926E030E040E050E00E9474
:102590005C19F7012083318342835383812F0F908D
:1025A0000F90DF91CF911F91FF90EF900895BF9210
:1025B000CF92DF92EF92FF920F931F93CF93DF930F
:1025C000CDB7DEB7AA970FB6F894DEBF0FBECDBF6A
:1025D000E82EB92E80E0C82E80E0D82EF12C00E045
:1025E00048E150E0B601CE0101960E94931CAE0175
:1025F000495D5F4FBE01675E7F4FCE0101960E942D
:10260000CF0A182F8115D1F0011132C08EE0FE01E2
:102610007996AE2DBB2D01900D928A95E1F78FA191
:1026200098A5A9A5BAA58093820190938301A09350
:102630008401B0938501F0926000012F81E08F0D3D
:1026400098E1C90ED11CFF24F394823049F6802F03
:10265000AA960FB6F894DEBF0FBECDBFDF91CF9123
:102660001F910F91FF90EF90DF90CF90BF90089552
:102670002091820130918301409184015091850124
:102680006FA178A589A59AA50E948C0A8111BECF59
:10269000D4CFDF92EF92FF920F931F93CF93DF93EC
:1026A000CDB7DEB7C254D1090FB6F894DEBF0FBE66
:1026B000CDBF8C010E941E08811110C080E0CE5B4E
:1026C000DF4F0FB6F894DEBF0FBECDBFDF91CF91C5
:1026D0001F910F91FF90EF90DF900895D0906000D0
:1026E00081E0D8268091820190918301A09184019C
:1026F000B09185019C01AD012F5F3F4F4F4F5F4F60
:10270000B801CE0149960E94990A88E1D89E8001BD
:1027100011240050104060E0C8010E94A31CEE2468
:10272000E394F12CFE017996EE0DFF1D6081C80146
:102730008E0D9F1D0E94A31C8FEFE81AF80A88E1F6
:10274000E816F10479F7698DC8010E94A31C48E1DD
:1027500050E0B801CE0101960E94931C48E150E080
:10276000BE01675E7F4FCE0101960E94B119892B91
:1027700009F0A4CFAE01415C5F4FBE016F5C7F4F9B
:10278000CE0101960E94CF0A811509F497CF2396B6
:102790000CAD1DAD2EAD3FAD239740918201509100
:1027A000830160918401709185014F5F5F4F6F4F8E
:1027B0007F4F401751076207730709F07FCFD09210
:1027C0006000409382015093830160938401709371
:1027D000850175CF8BB19CB18C71811531F081E091
:1027E0008093460280934702089580914B028F5F49
:1027F0008F7320914A02281791F3E0914B02F0E089
:10280000EA5FFD4F908380934B0208951F920F92D1
:102810000FB60F9211242F933F934F935F936F93B3
:102820007F938F939F93AF93BF93EF93FF930E94F8
:10283000EA13FF91EF91BF91AF919F918F917F919B
:102840006F915F914F913F912F910F900FBE0F901D
:102850001F9018958F938FB78F939F93EF93FF934C
:102860009091490280914802981308C05598FF91B1
:10287000EF919F918F918FBF8F911895E0914802B2
:10288000F0E0EA57FE4F80818CB9809148028F5F5B
:102890008F7780934802EBCF10BC83E389B91BB8D4
:1028A00086E880BD88E98AB908955F990C94EA1397
:1028B0000895DC0190914B0280914A02981779F0BB
:1028C000E0914A02F0E0EA5FFD4F80818C938091B5
:1028D0004A028F5F8F7380934A0281E0089580E0FF
:1028E0000895CF92DF92EF92FF92CF93DF93D82F8C
:1028F000C0914902CF5FCF770E94D9026B5F7F4FB3
:102900008F4F9F4F6B017C01809148028C1771F0B3
:10291000E0914902F0E0EA57FE4FD0838FB7F89478
:10292000C0934902559A8FBF81E00CC00E94D90222
:10293000A70196010E94A20C811531F381E08093DA
:10294000470280E0DF91CF91FF90EF90DF90CF9032
:102950000895CF93DF93EC01FE018491811529F056
:102960000E94711421968111F7CFDF91CF910895C4
:102970004F925F926F927F929F92AF92BF92CF924F
:10298000DF92EF92FF920F931F93CF93DF93CDB718
:10299000DEB72A970FB6F894DEBF0FBECDBF962ED6
:1029A000A72EB82E092F10E08AE0482E512C612C5A
:1029B000712C692D7A2D8B2D902FA30192010E94ED
:1029C0005C19FE013196E10FF11D1F5F605D6083B0
:1029D000C92CDA2CEB2CF02E922EA32EB42E052F20
:1029E0008AE0C816D104E104F10418F7111116C0E9
:1029F0002A960FB6F894DEBF0FBECDBFDF91CF9100
:102A00001F910F91FF90EF90DF90CF90BF90AF900C
:102A10009F907F906F905F904F9008951150FE01AE
:102A20003196E10FF11D80810E947114DFCFCF93A9
:102A30006AE070E00E943419C82F80E090E00E94A4
:102A4000B8148EE20E94711480E38C0FCF910C9425
:102A500071148091470208958FB7F894109247023D
:102A60008FBF08958FB7F894909146021092460256
:102A70008FBF81E0911101C080E00895E0915A027A
:102A8000E150E83050F5F0E0E351F34E0C947E193C
:102A900080914C0290914D02089580914E02909148
:102AA0004F020895809150029091510208958091B3
:102AB00052029091530208958091540290915502D0
:102AC000089580915602909157020895809158027E
:102AD00090E0089580915902FBCF80E090E0089546
:102AE000EF92FF921F93CF93DF93CDB7DEB72E9770
:102AF0000FB6F894DEBF0FBECDBF182F8EE0ECE40A
:102B0000F2E09E012F5F3F4F7901D90101900D92B4
:102B10008A95E1F70E943E159C01E0915A024AE035
:102B200050E0E53010F041E050E01403C001159F83
:102B3000900D1124820F931F97FD17C0E150E830CC
:102B4000A0F4F0E0EB50F34E0C947E199A83898345
:102B5000C7010E941E08811541F08EE0F701ACE428
:102B6000B2E001900D928A95E1F72E960FB6F89497
:102B7000DEBF0FBECDBFDF91CF911F91FF90EF90D1
:102B800008959C838B83E4CF9E838D83E1CF9887C8
:102B90008F83DECF9A878987DBCF9C878B87D8CFBF
:102BA0008D33910514F78D87D3CF82309105ECF6E4
:102BB0008E87CECF10925A020895CF93C82F83FFED
:102BC0000AC00E94760F80915A02811541F110923D
:102BD0005A02CF91089580915A02811501F1C0FFE8
:102BE00003C081E00E947015C1FF03C08FEF0E94F7
:102BF0007015C2FFEECF80915A02893061F48EE0E9
:102C0000ECE4F2E0ADE1B1E001900D928A95E1F7DC
:102C10000E947F0FDCCF8F5F80935A02DACFC0FF14
:102C20000AC080917B0190E0019669E070E00E940B
:102C3000481980937B01C1FF0AC080917B0190E01D
:102C4000089669E070E00E94481980937B01C2FFFA
:102C5000C0CF80917B01883039F48091810191E06F
:102C6000892780938101B5CF8EE0EDE1F1E0ACE4FE
:102C7000B2E001900D928A95E1F781E0CDCF8F927D
:102C80009F92AF92BF92CF92DF92EF92FF920F93FB
:102C90001F93CF93DF93CDB7DEB769970FB6F89444
:102CA000DEBF0FBECDBFE0915A02E11509F468C046
:102CB000E930E1F464EA70E080E00E94540F64EBD4
:102CC00070E081E069960FB6F894DEBF0FBECDBF0D
:102CD000DF91CF911F910F91FF90EF90DF90CF90F8
:102CE000BF90AF909F908F900C94540FE15065E887
:102CF00074E0E73038F4F0E0EE0FFF1FE553FF4FCC
:102D0000608171818E010E5E1F4FC8010E949C1967
:102D10000E943E159F938F931F930F938FE794E02C
:102D20009F938F931F9281E18F93015111091F93FC
:102D30000F930E94D219B80180E00E94540F6EE6F2
:102D400074E0C8010E949C19B80181E00E94540FF0
:102D50000FB6F894DEBF0FBECDBF69960FB6F894DC
:102D6000DEBF0FBECDBFDF91CF911F910F91FF90BE
:102D7000EF90DF90CF90BF90AF909F908F9008958D
:102D8000F0907B018E010F5F1F4F98E0F91608F05D
:102D900038C2EF2DF0E0E350F34E0C947E19809191
:102DA0007C01811509F446C080916D0190916E01FE
:102DB0002AE030E0B9010E943419462FE72FF82F9E
:102DC000F92E80916B0190916C01B9010E94341928
:102DD000FF92FF93EF934F939F938F937F936F9304
:102DE0008DE594E09F938F931F9281E18F931F93C2
:102DF0000F930E94D2190FB6F894DEBF0FBECDBF5D
:102E0000B80180E00E94540F809178011F928F9347
:102E1000809162011F928F93809161011F928F9325
:102E20008AE394E09F938F931F9281E18F931F9386
:102E30000F9352C16FE474E0C8010E949C19E0CF67
:102E400092E0F91227C0E0913B01F0913C018091A2
:102E50003D0190913E0140912B0150912C016091D8
:102E60002D0170912E01452B462B472BE1F46BE28F
:102E700074E0C8010E949C19B80180E00E94540FC0
:102E80006CE174E0C8010E949C19B80181E00E94C5
:102E9000540F63CFE0913701F091380180913901EF
:102EA00090913A01D8CF2AE030E0B9010E9434195C
:102EB000462FE72ED82EC92ECF01B9010E94341912
:102EC00022E0F21251C028E4CF92DF92EF924F93AA
:102ED0009F938F937F936F931F922F938DE094E036
:102EE0009F938F931F9281E18F931F930F930E9463
:102EF000D219B80180E00E94540F0FB6F894DEBFDB
:102F00000FBECDBF92E0F91231C0609133017091D4
:102F100034018091350190913601F0902B01E090C1
:102F20002C01D0902D01C0902E012F2D3E2D4D2D26
:102F30005C2D0E945C19C9016AE070E00E9434199E
:102F4000CF92DF92EF92FF929F938F937F936F9335
:102F50008FEF93E09F938F931F9281E18F931F9345
:102F60000F930E94D219BAC024E5AECF60912F0111
:102F7000709130018091310190913201CECF8091DA
:102F800060011F928F938DEE93E09F938F931F921A
:102F900081E18F931F930F930E94D219B80180E0B3
:102FA0000E94540F0FB6F894DEBF0FBECDBF8091C4
:102FB0007C0161EE73E0811509F464CF60E08BE27F
:102FC00091E00E94C709F82E61E08BE291E00E9437
:102FD000C7099BE2181624F09DE2811101C09DE310
:102FE0008BE21F1424F08DE2F11001C08DE31F92DB
:102FF0009F931F928F9381ED93E09F938F931F92E6
:1030000081E18F931F930F930E94D21967C0C090E4
:103010006301D0906401E0906501F09066012CE3BB
:10302000822E912CA12CB12CC701B601A5019401CF
:103030000E945C19CA01B901A50194010E945C19A2
:103040009F938F937F936F93C701B60120E13EE07A
:1030500040E050E00E945C19CA01B90128E130E06B
:1030600040E050E00E945C199F938F937F936F9391
:10307000C701B60120E831E541E050E00E945C194B
:103080005F934F933F932F938DEB93E09F938F9399
:103090001F9231E1F32EFF921F930F930E94D219DA
:1030A000B80180E00E94540F80915B021F928F93C1
:1030B000809166018F93809165018F938091640167
:1030C0008F93809163018F938DEA93E09F938F9309
:1030D0001F92FF921F930F930E94D2190FB6F8947C
:1030E000DEBF0FBECDBFD1CE6DE973E0C8010E9437
:1030F0009C19B80180E00E94540F80917F018115D6
:10310000C9F0F0906F01E09070012F2D3E2DA8E8DE
:10311000B3E10E9484192FEF33E040E050E00E94B9
:103120005C195F934F933F932F93EF92FF9280E947
:1031300093E078CE66E873E0A5CE80917D0181159D
:10314000A9F1809173011F928F93809172011F9258
:103150008F93809171011F928F9385E793E09F93E6
:103160008F931F9291E1F92EFF921F930F930E946C
:10317000D219B80180E00E94540F809177011F920C
:103180008F93809176011F928F93809175011F928A
:103190008F93809174011F928F9382E693E09F93A7
:1031A0008F931F92FF921F930F93DBCE67E573E01F
:1031B000C8010E949C19B80180E00E94540F65E488
:1031C00073E060CE68E373E0C8010E949C19B80107
:1031D00080E00E94540F80917E01811579F08091EA
:1031E0006A018F93809169018F93809168018F9319
:1031F000809167018F9380E393E0FFCE64E273E0F8
:1032000041CE0E9430031F928F93809181011F92C3
:103210008F9385E193E09F938F931F9281E1F82E26
:10322000FF921F930F930E94D219B80180E00E9471
:10323000540F809178011F928F9386E093E09F93C3
:103240008F931F92FF921F930F930E94D21946CF24
:10325000992778E0880F991F961708F0961B881F0A
:103260007A95C9F780950895AA1BBB1B51E107C049
:10327000AA1FBB1FA617B70710F0A61BB70B881F06
:10328000991F5A95A9F780959095BC01CD01089595
:1032900097FB072E16F4009407D077FD09D00E9403
:1032A000341907FC05D03EF4909581959F4F089501
:1032B000709561957F4F0895A1E21A2EAA1BBB1B42
:1032C000FD010DC0AA1FBB1FEE1FFF1FA217B307F2
:1032D000E407F50720F0A21BB30BE40BF50B661F08
:1032E000771F881F991F1A9469F7609570958095CC
:1032F00090959B01AC01BD01CF010895EE0FFF1F1A
:103300000590F491E02D0994A29FB001B39FC001F4
:10331000A39F700D811D1124911DB29F700D811D01
:103320001124911D0895FB01DC018D9105908019F8
:103330000110D9F3990B0895FB01DC0105900D9262
:103340000020E1F70895FB01DC014150504030F0CE
:103350008D910590801919F40020B9F7881B990BFD
:103360000895FB01DC0104C08D910190801921F4C6
:1033700041505040C8F7881B990B0895FC0181917A
:10338000861721F08823D9F7992708953197CF011F
:103390000895FB01DC018D91019080190110D9F392
:1033A000990B0895AEE0B0E0E8EDF9E10C94C21C91
:1033B0000D891E898EE08C831A8309838F89988DED
:1033C000813020E8920710F080E090E801979E831A
:1033D0008D83AE01455E5F4F698D7A8DCE0101967A
:1033E0000E94041A4D815E8157FD0AC02F813885E5
:1033F000421753070CF49A01020F131FF8011082B1
:103400002E96E4E00C94DE1CABE0B0E0EAE0FAE1DA
:103410000C94B71C6C017B018A01FC011782168297
:10342000838181FFD9C19AE0592EF6012381F701EA
:1034300023FD859123FF81917F01811509F41FC12F
:10344000853239F423FD959123FF91917F019532C7
:1034500029F4B60190E00E94051CE7CF30E0912CE2
:10346000612C712CF0E27F1640F59B32D9F058F4B4
:103470009032D1F09332F1F09E3299F576FCFFC094
:10348000689476F806C09D3291F09033C1F4689448
:1034900070F8F70123FD959123FF91917F01911120
:1034A000E1CF29C0689471F8689472F8F2CF6894FB
:1034B00073F8EFCF689474F8ECCF77FC1CC080ED04
:1034C000890F8A30C8F676FE05C0959C800D1124C0
:1034D000982EDFCF659C800D1124682E689475F8B6
:1034E000D8CF9C3619F4689477F8D3CF9C3409F47C
:1034F0004BC0983671F2892F8F7D8554833008F444
:1035000045C0933609F466C0933709F469C0933512
:1035100009F475C0943619F0993609F09FC0F80186
:1035200077FE95C061917191819191918F01272DC5
:103530002F76822E97FF09C09095809570956195A2
:103540007F4F8F4F9F4F689487F82AE030E0AE019D
:103550004F5F5F4F5A010E94351C8A19A82E86FEC4
:10356000C4C0882D8E7FA91408F0BEC084FE11C18E
:1035700082FC05C1F82DFE7E8F2EB92C882D867811
:10358000811509F4BFC000C131E083CF3115F9F0D6
:10359000085F1F4F8FE3898388248394912CAE01A9
:1035A0004F5F5F4F5A01E89477F873FC03C08614AD
:1035B0009104B0F181149104D1F5611409F435CF6F
:1035C000B60180E290E00E94051C6A94F6CF0C5F81
:1035D0001F4FE0CFF801808189830E5F1F4FDCCF42
:1035E000F801A190B1908F01692D70E076FC02C0C6
:1035F0006FEF7FEFC5010E94FA1B4C01D4CFF80199
:10360000A190B1908F01692D70E076FC02C06FEF40
:103610007FEFC5010E94EF1B4C01689477F8C5CF7E
:10362000B60180E290E00E94051C6A94C0CFF501CB
:1036300077FC859177FE81915F01B60190E00E9451
:10364000051C61106A94F1E08F1A9108B3CF619163
:103650007191072E000C880B990B68CF872CE8948A
:1036600084F82AE030E0953739F1572D597F852EBF
:10367000903799F058F49835A9F09F36D9F0F601B3
:10368000868197812B96EFE00C94D31C9837B9F77D
:1036900074FC05C020E130E00FC0689484F86894A1
:1036A00082F8F8CF74FE03C0872D8660882E20E153
:1036B00032E002C028E030E0F80187FE10C06191DE
:1036C0007191819191918F01FE0131965F01AF015E
:1036D0000E94351C8A19A82EE89487F840CF619182
:1036E000719180E090E0EFCF882EBA2C84FE46CF17
:1036F000FE01EA0DF11D8081803309F043C0282DC1
:10370000297E822E83FC0EC080FE4FC09A2CB614F8
:1037100018F4960C9B18B62C862D8B196B1408F494
:1037200080E0B80EB61408F042C06B1884FE41C0A9
:10373000B60180E390E00E94051C82FE09C088E586
:1037400090E081FC02C088E790E0B6010E94051C71
:10375000A914D8F1AA94B12C4FEFA41AB40ACE013F
:1037600001964C01A80EB91EF50182915F01B601C8
:1037700090E00E94051C8A149B04B1F71ECFB92C5F
:10378000882EB6CF82FC02C0B394BCCFB394B3945E
:10379000B9CFB92C882EF2CEB60180E290E00E941B
:1037A000051C73947614C0F3B7CF7B2CFBCF612C30
:1037B000BDCF882D8678811559F280E281FC8BE29D
:1037C00087FC8DE2B60190E0C1CFB60180E390E0C6
:1037D0000E94051C9A94BCCF8FEF9FEF53CFFC0142
:1037E0000590615070400110D8F7809590958E0F2C
:1037F0009F1F0895FC016150704001900110D8F79F
:10380000809590958E0F9F1F08950F931F93CF93D0
:10381000DF93182F092FEB018B8181FD09C01FEF6A
:103820000FEF812F902FDF91CF911F910F9108956E
:1038300082FF14C02E813F818C819D81281739071A
:103840003CF4E881F981CF01019699838883108344
:103850008E819F8101969F838E83E3CFE885F985D2
:10386000812F0995892BA1F3DACFFA01AA272830F5
:1038700051F1203181F1E8946F936E7F6E5F7F4F3D
:103880008F4F9F4FAF4FB1E03ED0B4E03CD0670FB9
:10389000781F891F9A1FA11D680F791F8A1F911D0C
:1038A000A11D6A0F711D811D911DA11D20D009F45C
:1038B00068943F912AE0269F11243019305D31939E
:1038C000DEF6CF010895462F4770405D4193B3E087
:1038D0000FD0C9F7F6CF462F4F70405D4A3318F02E
:1038E000495D31FD4052419302D0A9F7EACFB4E0DF
:1038F000A6959795879577956795BA95C9F7009797
:103900006105710508959B01AC010A2E0694579537
:10391000479537952795BA95C9F7620F731F841F8E
:10392000951FA01D0895DC01CB01FC01E199FECF9C
:1039300006C0FFBBEEBBE09A31960DB20D9241502E
:103940005040B8F70895262FE199FECF9FBB8EBB5C
:10395000E09A01970DB2021631F02DBB0FB6F89424
:10396000E29AE19A0FBE08952F923F924F925F9292
:103970006F927F928F929F92AF92BF92CF92DF927F
:10398000EF92FF920F931F93CF93DF93CDB7DEB7E4
:10399000CA1BDB0B0FB6F894DEBF0FBECDBF099478
:1039A0002A88398848885F846E847D848C849B84CF
:1039B000AA84B984C884DF80EE80FD800C811B81DD
:1039C000AA81B981CE0FD11D0FB6F894DEBF0FBE0C
:1039D000CDBFED010895F894FFCF48154D15521550
:1039E00057155C15611566156A15A615C115C41520
:1039F000C715CA15CD15D015D515CF162017201708
:0A3A0000BF17071874189D18E2188C
:103A0A0001000306090C0FB4005E012C0120030A11
:103A1A00001E000201544C4F5700544849474800C1
:103A2A00484C4F570048484947480054485953544E
:103A3A000048485953540043535653454300534F83
:103A4A00554E4400534554207361766520262065FF
:103A5A007869740041434B2063616E63656C001F93
:103A6A001C1F1E1F1E1F1F1E1F1E1FAF04A904A4FA
:0A3A7A00049E04980492048B0400DB
:00000001FF
