:100000000C9400010C9429010C9429010C942901F1
:100010000C9429010C9429010C94D8010C94290109
:100020000C942B010C9429010C9429010C942901A6
:100030000C9429010C9429010C9429010C94290198
:100040000C9429010C9429010C9429010C94290188
:100050000C942901534554204C454420453A253001
:10006000325800444941473A2575204B45593A25B5
:1000700058004C696768742064697361626C6564D8
:1000800000256C75206C7578004C69676874204297
:100090004831373530005254432064697361626CD3
:1000A00065640052544320445333323331002530C9
:1000B00032753A253032753A25303275205725751C
:1000C000003230253032752D253032752D253032F5
:1000D0007500414443206572726F720025752025BA
:1000E0006C756D56204035560056523120414443C0
:1000F00030202F204156434300256C757320524514
:100100005345543A2530325800555020256C7564BB
:10011000202530326C753A2530326C7500543A2502
:100120006320483A256320282B7570290054726596
:100130006E64207374616C65005472656E64207720
:10014000696E646F772025752F38004156472575F5
:100150002E2575204E256C750025632025752E25CE
:10016000752D25752E2575005761697420666F728F
:100170002044485431310053746174733A206E6FD7
:10018000206461746100413A253032582041434B6C
:100190003A255820453A25303258004448543131E8
:1001A000206E6F2064617461005425752E2575439F
:1001B000204825752E257525250055502F444E20A5
:1001C0005345543E2041434B20580025733D25752F
:1001D00000534F554E44004353565345430048483F
:1001E000595354005448595354004848494748000B
:1001F000484C4F5700544849474800544C4F57000B
:1002000011241FBECFE5D4E0DEBFCDBF84B78093FD
:10021000210114BE0FB6F894A89581B5886181BDFF
:1002200011BC0FBE10E0A0E6B0E0EAEBF1E202C0C4
:1002300005900D92A839B107D9F721E0A8E9B0E0FF
:1002400001C01D92A132B207E1F70E94A6060C94EC
:10025000C3100C9400001F921FB61F9211242F93FD
:100260008F939F93AF93BF938091A5009091A60029
:10027000A091A700B091A8008F5B9F4FAF4FBF4FD9
:100280008093A5009093A600A093A700B093A80028
:100290008091A3009091A400885E9D4F9093A4004C
:1002A0008093A3008091A3009091A400883E934086
:1002B000E8F08091A3009091A400885E9340909311
:1002C000A4008093A3008091A5009091A600A09126
:1002D000A700B091A8000196A11DB11D8093A500B3
:1002E0009093A600A093A700B093A800BF91AF91F0
:1002F0009F918F912F911F901FBE1F901895CF92A5
:10030000DF92EF92FF924FB7F894C090A500D09083
:10031000A600E090A700F090A8002091A3003091E3
:10032000A4008CB59DB508B602FE09C08CB59DB57C
:1003300051E4C50ED11CE11CF11C285E3D4F4FBF9E
:10034000A0E0B0E0BC01CD01620F731F811D911DC3
:1003500028EE33E040E050E00E945F0DCA01B90191
:100360006C0D7D1D8E1D9F1DFF90EF90DF90CF9037
:100370000895F89484B7806884BF84BF87B3807F72
:1003800087BB88B38F6088BB1FBC82E08EBD1DBC5D
:100390001CBC20E137E23BBD2ABD94E198BF99BF68
:1003A00085BD14BC7894089586B380958F700895A8
:1003B0001F920F920FB60F9211242F933F934F93DA
:1003C0005F936F937F938F939F93AF93BF93CF93DD
:1003D000DF93EF93FF938AB59BB5805F984D9BBDEC
:1003E0008ABD0E94D40140919D00EEE9F0E060E0FA
:1003F00070E0A1E0B0E09D01062E01C0220F0A943A
:10040000EAF79191582F5223511541F0933018F487
:100410009F5FEF019A93933091F407C0911559F1C2
:100420009150EF019A93933021F5942F92239111DB
:1004300006C0422B9091A200922B9093A2006F5F76
:100440007F4F64307105B9F640939D00FF91EF91A5
:10045000DF91CF91BF91AF919F918F917F916F91DC
:100460005F914F913F912F910F900FBE0F901F9072
:1004700018959111E4CF20954223E1CF9FB7F894CE
:100480008091A2001092A2009FBF08950895CF927C
:10049000DF92EF92FF92CF93DF93EC0180E487B974
:1004A00086E886B9369A0E947F016B5F7F4F8F4F37
:1004B0009F4F6B017C0136990CC084B195B1998333
:1004C000888381E0DF91CF91FF90EF90DF90CF9014
:1004D00008950E947F01A70196010E946A05811577
:1004E00051F380E0EFCFCF92DF92EF92FF926B015A
:1004F0007C0141110EC09FB7F89481B3807E81BB0F
:1005000082B3807E82BB9FBFFF90EF90DF90CF9041
:10051000089581B38F6181BB2091990030919A0039
:1005200040919B0050919C00C701B6010E946A0552
:10053000811551F38CE2C80E81E0D81EE11CF11C3C
:10054000C0929900D0929A00E0929B00F0929C0099
:100550008091980090E001966AE070E00E944B0D57
:10056000809398004FB7F89422B330919800377079
:1005700081E090E001C0880F3A95EAF780958F718D
:10058000207E822B82BB4FBFBFCFDC018EE0E1E635
:10059000F0E001900D928A95E1F708950F931F9373
:1005A000CF93DF93FC014081518157FD36C02281FA
:1005B0003381253F61E0360784F5421753076CF518
:1005C00086819781893E63E0960738F5A481B581DD
:1005D000A817B90710F5C085D185BE016150710912
:1005E00064367105D0F4628573858B010150110961
:1005F000083C110590F4241B350BC217D30768F48F
:100600008A1B9B0B6817790740F4848581508C33D3
:1006100020F481E09585923008F080E08170DF91D0
:10062000CF911F910F91089526E3FC0111922A9515
:10063000E9F70895FC019B01CA01653F714008F08C
:1006400067C0893E63E0960708F062C0408151812F
:1006500062817381411551056105710509F059C029
:100660003787268735872487938B828B918B808B66
:10067000A089B1898A179B0710F4918B808BA2897E
:10068000B389A817B90710F4938B828B4034A2E486
:100690005A07AFE06A07710500F54F5F5F4F6F4F74
:1006A0007F4F408351836283738344815581668188
:1006B0007781420F531F611D711D448355836683EB
:1006C00077834085518562857385480F591F611D69
:1006D000711D4087518762877387A4A94A2F50E014
:1006E000BF016A0F711D6A0F711DDB0155963C93A6
:1006F0002E93549795969C938E939497CA01019646
:100700008770992784AB85A9883010F48F5F85ABFB
:100710000895A485B5852A173B0710F435872487EB
:10072000A685B785A217B30708F0A2CF378726871B
:100730009FCFCF93DC01D5968C91D5978830E0F18F
:10074000D496CC91D49770E020E030E040E050E0C7
:100750008C2F870F8770E82FF0E0611579F0729683
:10076000EE0FFF1FEA0FFB1F80819181E1E0E70F91
:10077000743030F4480F591F7E2FEACF3A96F0CFED
:10078000280F391F7E2FE83019F780E590E06111BE
:1007900002C084E190E0241B350B2817390774F45C
:1007A00044275527481B590B81E0421753070CF487
:1007B00080E08195CF91089580E0FCCF81E0FACF71
:1007C000EF92FF920F931F93CF93DC01FB01BA01CD
:1007D000A901E084F18480819181CC91C0FF08C09F
:1007E0008E0D9F1D21E06817790734F020E004C0CA
:1007F00021E086179707D4F302811381C1FF08C057
:100800000E191F0991E00617170734F090E004C095
:1008100091E060177107D4F3990F922B628573856D
:1008200024813581C2FF08C0260F371F81E042179F
:10083000530734F080E004C081E024173507D4F377
:10084000880F880F892B26813781C3FF08C0261B9C
:10085000370B91E02417350734F090E004C091E0A5
:1008600042175307D4F391959870892B8C93119666
:100870009C911197892311968C93CF911F910F9181
:10088000FF90EF900895FC018081818308959C0181
:100890008FEF9FEF615008F40895F901219192279D
:1008A00028E0AC01880F991F57FF04C031E283276D
:1008B00030E193272A95A9F79F01ECCF621B730BB8
:1008C000840B950B21E016161706180619060CF076
:1008D00020E0822F0895CF93DF93EC01FB01019676
:1008E00067E1DC011D926A95E9F765EA688361E0DA
:1008F00069832A833B834C835D83208131813F83DD
:100900002E832281338139872887248135813B8753
:100910002A87268137813D872C87208531853F872F
:100920002E8722853385398B288B24852A8B258534
:100930002B8B65E10E9447049F8B8E8BDF91CF91BB
:1009400008952F923F924F925F926F927F928F9273
:100950009F92AF92BF92CF92DF92EF92FF920F934E
:100960001F93CF93DF93CDB7DEB762970FB6F8949E
:10097000DEBF0FBECDBF8C017B014F87588BFC01C2
:100980008081853AD1F080E062960FB6F894DEBFA0
:100990000FBECDBFDF91CF911F910F91FF90EF90D0
:1009A000DF90CF90BF90AF909F908F907F906F908F
:1009B0005F904F903F902F9008958181813019F77B
:1009C000C688D78865E1C80101960E9447048C1546
:1009D0009D05C9F6F80126803780408451846284E1
:1009E000738484849584A684B784C088D188F2896E
:1009F000F98BF801F389FA8B29823A824B825C8267
:100A00006D827E828F829886BA86A986DC86CB86A6
:100A100089898D87FE87CE0101960E94CE028115BD
:100A200009F4B1CFF801438150E060E070E0762F27
:100A3000652F542F44279281492B9481692B9581EE
:100A4000792BF7012082318242825382648275823F
:100A500086829782B186A086D386C286998994873A
:100A60009A899587EF85F8894083518362837383E0
:100A70008BCFCF93DF93FC01DB01EA0140818181C1
:100A800062812381942F980F960F920F34819313D4
:100A90001FC08A30E8F42A30D8F45AE030E0569F7C
:100AA000200D311D1124253F91E0390788F490E095
:100AB000549F800D911D1124893E43E0940740F41A
:100AC0002D933C939983888381E0DF91CF910895A2
:100AD00080E0FBCFDC01CB01821B930BA40BB50B99
:100AE000B038880B8195089524B59927C9999395B5
:100AF000981302C081E0089594B5921B9436A8F330
:100B000080E00895D198D99A0895D998D19A0895F6
:100B10009F92AF92BF92CF92DF92EF92FF920F938C
:100B20001F93CF93DF9300D000D00F92CDB7DEB7E5
:100B3000D82E092FB62EC72ECE0101967C0185E056
:100B4000F70111928A95E9F7AFB6F894D198D99A3E
:100B5000FAE1FA95F1F700C080E00E947405811176
:100B600013C080E0AFBE0F900F900F900F900F90CA
:100B7000DF91CF911F910F91FF90EF90DF90CF9079
:100B8000BF90AF909F90089581E00E9474058115F9
:100B900041F380E00E947405811519F310E081E0B3
:100BA0000E9474058115E9F294B480E00E947405F6
:100BB0008115B9F2E12FE695E695E695EE0DFF2D4C
:100BC000F11D2081220F208384B589198E3210F007
:100BD000216020831F5F183211F74B2D5C2D6D2D86
:100BE000702FC7010E943905BDCF089595B39F703E
:100BF000807F982B95BB82E08A95F1F700C0979A89
:100C000082E08A95F1F700C0979882E08A95F1F723
:100C100000C00895CF93C82F611581F0969A9598DA
:100C20008C2F0E94F6058C2F8295807F0E94F605FE
:100C300085E88A95F1F70000CF9108959698EFCF57
:100C400084B3806F84BB81B3806E81BB82B38F71AC
:100C500082BB2FEF89EF90E0215080409040E1F778
:100C600000C0000080E30E94F6058FE097E2019744
:100C7000F1F700C0000080E30E94F6058BE291E0EE
:100C80000197F1F700C0000080E30E94F6058BE2B7
:100C900091E00197F1F700C0000080E20E94F605A4
:100CA0008BE291E00197F1F700C0000060E088E27C
:100CB0000E940A0660E08CE00E940A0660E086E07E
:100CC0000E940A0660E081E00E940A068FE99FE028
:100CD0000197F1F700C0000008950F931F93CF9381
:100CE000DF93EB018115B1F080EC60E00E940A0611
:100CF00010E100E0011111C08881811569F0219691
:100D000061E00E940A061A95A9F7DF91CF911F9121
:100D10000F91089580E8E9CF01E080E2F1CF8DEEF8
:100D200090E00E944304809104018093050108959E
:100D300089EA90E00E94AD0890910401811521F0AC
:100D40009F7D9093040108959062FBCFCDB7DEB7ED
:100D500065970FB6F894DEBF0FBECDBF0E94B901F4
:100D60000E944E090E9420060E9482050E94F505FD
:100D700089EA90E00E94C50289EA90E00E943B085F
:100D8000811105C0809104018062809304018091EB
:100D9000210183FF05C080910401806480930401D8
:100DA00087EB90E00E94140310920C0110920D0149
:100DB0000E947F014B015C01A50194012053384F33
:100DC0004F4F5F4F298B3A8B4B8B5C8B88E19EE0BA
:100DD0000FB6F894A89581BD0FBE91BD89869A86FD
:100DE000AB86BC868D829E82AF82B88689829A82CB
:100DF000AB82BC821D861E861F86188A1D8A412CE6
:100E0000512C32010E947F016B017C014C0C5D1C56
:100E10006E1C7F1C481859086A087B088091EF00F7
:100E20009091F000A091F100B091F200AC01BD01F1
:100E30004F5F5F4F6F4F7F4F28EE421623E0520601
:100E40006104710408F0F6C08093EF009093F00005
:100E5000A093F100B093F200C701B6010E943E02D8
:100E60000E94EC093D89311121C029893A894B89B9
:100E70005C89C701B6010E946A058D8B811509F452
:100E80004DC00E948505D701C6014496A11DB11D24
:100E90008D879E87AF87B88BA70196012053384F67
:100EA0004F4F5F4F298B3A8B4B8B5C8B2D853E854B
:100EB0004F855889C701B6010E946A05811509F45A
:100EC000D3C069EF70E087EF90E00E9488058093BF
:100ED0000801811509F4B7C0109206018091040140
:100EE0008E7F809304014091F9005091FA00609147
:100EF000F7007091F80087EB90E00E941A032091B0
:100F0000F9003091FA004091F7005091F80069EA39
:100F100070E08DEE90E00E94E0031D8A2D813E81FD
:100F20004F815885C701B6010E946A058115C9F035
:100F30008BEF90E00E944702982F80930B018091E5
:100F40000401911509F493C0877FA70196012C50E5
:100F50003E4F4F4F5F4F2D833E834F835887809383
:100F6000040129853A854B855C85C701B6010E943D
:100F70006A05811551F0D701C60188519C4FAF4FCA
:100F8000BF4F89879A87AB87BC8740910401209126
:100F900005012423209305018091B600811509F4F1
:100FA00068C08091EE0090E0809590956091ED0092
:100FB00070E08623972330E02095309550E024237D
:100FC00035232F743327822B932B009781F0C70191
:100FD000B60128EE33E040E050E00E945F0D21E0D2
:100FE000683C71058105910508F020E0822F817031
:100FF0000E94460240910D01C701B6010E94730292
:1010000029813A814B815C81C701B6010E946A0542
:10101000811561F0A701960126503F4F4F4F5F4F5A
:1010200029833A834B835C830E944E0AA89546012C
:101030005701E8CE38EE431A33E0530A61087108CD
:10104000DB01CA01F3CE809106018F3F31F480911C
:10105000040181608093040160CF8F5F809306015B
:10106000833008F45ACFF3CF31E03D8B57CF8860FF
:101070006CCF80E0BCCFBF92CF92DF92EF92FF9215
:101080000F931F93CF93DF93CDB7DEB7AA970FB619
:10109000F894DEBF0FBECDBFE82EB92E80E0C82E7B
:1010A00080E0D82EF12C00E048E150E0B601CE01FE
:1010B00001960E946B10AE01495D5F4FBE01675EF5
:1010C0007F4FCE0101960E94A104182F8115D1F007
:1010D000011132C08EE0FE017996AE2DBB2D01903C
:1010E0000D928A95E1F78FA198A5A9A5BAA580933D
:1010F0000E0190930F01A0931001B0931101F09293
:101100006000012F81E08F0D98E1C90ED11CFF24F2
:10111000F394823049F6802FAA960FB6F894DEBF7A
:101120000FBECDBFDF91CF911F910F91FF90EF9038
:10113000DF90CF90BF90089520910E0130910F0164
:1011400040911001509111016FA178A589A59AA530
:101150000E945E048111BECFD4CFDF92EF92FF9246
:101160000F931F93CF93DF93CDB7DEB7C254D1094E
:101170000FB6F894DEBF0FBECDBF8C010E94CE0229
:10118000811110C080E0CE5BDF4F0FB6F894DEBF58
:101190000FBECDBFDF91CF911F910F91FF90EF90C8
:1011A000DF900895D090600081E0D82680910E01F4
:1011B00090910F01A0911001B09111019C01AD011E
:1011C0002F5F3F4F4F4F5F4FB801CE0149960E94AE
:1011D0006B0488E1D89E800111240050104060E02B
:1011E000C8010E947B10EE24E394F12CFE01799655
:1011F000EE0DFF1D6081C8018E0D9F1D0E947B10AA
:101200008FEFE81AF80A88E1E816F10479F7698D9A
:10121000C8010E947B1048E150E0B801CE01019660
:101220000E946B1048E150E0BE01675E7F4FCE0127
:1012300001960E949D0D892B09F0A4CFAE01415C5F
:101240005F4FBE016F5C7F4FCE0101960E94A104EB
:10125000811509F497CF23960CAD1DAD2EAD3FAD92
:10126000239740910E0150910F01609110017091F0
:1012700011014F5F5F4F6F4F7F4F4017510762075C
:10128000730709F07FCFD092600040930E01509316
:101290000F01609310017093110175CF1AB8089572
:1012A000E0912001E150E83050F5F0E0EB53FF4EC3
:1012B0000C94810D809112019091130108958091F9
:1012C00014019091150108958091160190911701D4
:1012D00008958091180190911901089580911A0143
:1012E00090911B01089580911C0190911D0108951A
:1012F00080911E0190E0089580911F01FBCF80E056
:1013000090E00895EF92FF921F93CF93DF93CDB7B4
:10131000DEB72E970FB6F894DEBF0FBECDBF182FE5
:101320008EE0E2E1F1E09E012F5F3F4F7901D901AC
:1013300001900D928A95E1F70E9450099C01E0917D
:1013400020014AE050E0E53010F041E050E01403A5
:10135000C001159F900D1124820F931F97FD17C098
:10136000E150E830A0F4F0E0E353FF4E0C94810D1F
:101370009A838983C7010E94CE02811541F08EE0D5
:10138000F701A2E1B1E001900D928A95E1F72E9666
:101390000FB6F894DEBF0FBECDBFDF91CF911F9186
:1013A000FF90EF9008959C838B83E4CF9E838D8381
:1013B000E1CF98878F83DECF9A878987DBCF9C87A1
:1013C0008B87D8CF8D33910514F78D87D3CF82309B
:1013D0009105ECF68E87CECFCF93C82F83FF0AC03E
:1013E0000E948F0680912001811541F11092200109
:1013F000CF91089580912001811501F1C0FF03C0B4
:1014000081E00E948209C1FF03C08FEF0E94820920
:10141000C2FFEECF80912001893061F48EE0E2E1DD
:10142000F1E0A9EAB0E001900D928A95E1F70E94FF
:101430009806DCCF8F5F80932001DACFC0FF0AC00F
:101440008091070190E0019669E070E00E944B0DE9
:1014500080930701C1FF0AC08091070190E00896C0
:1014600069E070E00E944B0D80930701C2FFC0CF7E
:1014700080910701883039F480910D0191E089272E
:1014800080930D01B5CF8EE0E9EAF0E0A2E1B1E092
:1014900001900D928A95E1F781E0CDCF8F929F92D6
:1014A000AF92BF92CF92DF92EF92FF920F931F9372
:1014B000CF93DF93CDB7DEB769970FB6F894DEBF51
:1014C0000FBECDBFE0912001E11509F468C0E930FD
:1014D000E1F46FE670E080E00E946D066FE770E077
:1014E00081E069960FB6F894DEBF0FBECDBFDF91E5
:1014F000CF911F910F91FF90EF90DF90CF90BF9011
:10150000AF909F908F900C946D06E15061ED71E06B
:10151000E73038F4F0E0EE0FFF1FE657FF4F608131
:1015200071818E010E5E1F4FC8010E94960D0E94B0
:1015300050099F938F931F930F938BEC91E09F9390
:101540008F931F9281E18F93015111091F930F9384
:101550000E94AA0DB80180E00E946D066AEB71E05E
:10156000C8010E94960DB80181E00E946D060FB679
:10157000F894DEBF0FBECDBF69960FB6F894DEBFFC
:101580000FBECDBFDF91CF911F910F91FF90EF90D4
:10159000DF90CF90BF90AF909F908F900895F09084
:1015A00007018E010F5F1F4F98E0F91608F038C24F
:1015B000EF2DF0E0EB52FF4E0C94810D809108016D
:1015C000811509F446C08091F9009091FA002AE053
:1015D00030E0B9010E94370D462FE72FF82FF92E82
:1015E0008091F7009091F800B9010E94370DFF92A9
:1015F000FF93EF934F939F938F937F936F9389EA1A
:1016000091E09F938F931F9281E18F931F930F938C
:101610000E94AA0D0FB6F894DEBF0FBECDBFB80171
:1016200080E00E946D06809104011F928F9380914B
:10163000EE001F928F938091ED001F928F9386E8AA
:1016400091E09F938F931F9281E18F931F930F934C
:1016500052C16BE971E0C8010E94960DE0CF92E0A3
:10166000F91227C0E091C700F091C8008091C9002D
:101670009091CA004091B7005091B8006091B900B4
:101680007091BA00452B462B472BE1F467E771E0D8
:10169000C8010E94960DB80180E00E946D0668E6C0
:1016A00071E0C8010E94960DB80181E00E946D06AC
:1016B00063CFE091C300F091C4008091C500909188
:1016C000C600D8CF2AE030E0B9010E94370D462F7E
:1016D000E72ED82EC92ECF01B9010E94370D22E086
:1016E000F21251C028E4CF92DF92EF924F939F9372
:1016F0008F937F936F931F922F9389E591E09F9330
:101700008F931F9281E18F931F930F930E94AA0DD5
:10171000B80180E00E946D060FB6F894DEBF0FBEE0
:10172000CDBF92E0F91231C06091BF007091C0004E
:101730008091C1009091C200F090B700E090B80095
:10174000D090B900C090BA002F2D3E2D4D2D5C2DAC
:101750000E945F0DC9016AE070E00E94370DCF92D0
:10176000DF92EF92FF929F938F937F936F938BE41F
:1017700091E09F938F931F9281E18F931F930F931B
:101780000E94AA0DBAC024E5AECF6091BB00709153
:10179000BC008091BD009091BE00CECF8091EC0046
:1017A0001F928F9389E391E09F938F931F9281E122
:1017B0008F931F930F930E94AA0DB80180E00E949F
:1017C0006D060FB6F894DEBF0FBECDBF8091080145
:1017D0006DE271E0811509F464CF60E087EB90E081
:1017E0000E949903F82E61E087EB90E00E94990334
:1017F0009BE2181624F09DE2811101C09DE38BE26B
:101800001F1424F08DE2F11001C08DE31F929F930D
:101810001F928F938DE191E09F938F931F9281E1AF
:101820008F931F930F930E94AA0D67C0C090EF0083
:10183000D090F000E090F100F090F2002CE3822EC6
:10184000912CA12CB12CC701B601A50194010E94D5
:101850005F0DCA01B901A50194010E945F0D9F931C
:101860008F937F936F93C701B60120E13EE040E084
:1018700050E00E945F0DCA01B90128E130E040E06C
:1018800050E00E945F0D9F938F937F936F93C701EA
:10189000B60120E831E541E050E00E945F0D5F9322
:1018A0004F933F932F9389E091E09F938F931F92E3
:1018B00031E1F32EFF921F930F930E94AA0DB801FE
:1018C00080E00E946D06809121011F928F9380918C
:1018D000F2008F938091F1008F938091F0008F93AD
:1018E0008091EF008F9389EF90E09F938F931F92E9
:1018F000FF921F930F930E94AA0D0FB6F894DEBFBC
:101900000FBECDBFD1CE69EE70E0C8010E94960D2A
:10191000B80180E00E946D0680910B018115C9F02D
:10192000F090FB00E090FC002F2D3E2DA8E8B3E1E5
:101930000E94870D2FEF33E040E050E00E945F0DE2
:101940005F934F933F932F93EF92FF928CED90E034
:1019500078CE62ED70E0A5CE809109018115A9F1E4
:101960008091FF001F928F938091FE001F928F93B2
:101970008091FD001F928F9381EC90E09F938F9355
:101980001F9291E1F92EFF921F930F930E94AA0DCF
:10199000B80180E00E946D06809103011F928F9331
:1019A000809102011F928F93809101011F928F936A
:1019B000809100011F928F938EEA90E09F938F9306
:1019C0001F92FF921F930F93DBCE63EA70E0C80172
:1019D0000E94960DB80180E00E946D0666E970E0F5
:1019E00060CE69E870E0C8010E94960DB80180E001
:1019F0000E946D0680910A01811579F08091F600B0
:101A00008F938091F5008F938091F4008F93809154
:101A1000F3008F9381E890E0FFCE62E770E041CE63
:101A20000E94D4011F928F9380910D011F928F937A
:101A300083E690E09F938F931F9281E1F82EFF92AF
:101A40001F930F930E94AA0DB80180E00E946D06BB
:101A5000809104011F928F9384E590E09F938F9370
:101A60001F92FF921F930F930E94AA0D46CFAA1BAD
:101A7000BB1B51E107C0AA1FBB1FA617B70710F079
:101A8000A61BB70B881F991F5A95A9F780959095AB
:101A9000BC01CD01089597FB072E16F4009407D0E2
:101AA00077FD09D00E94370D07FC05D03EF49095D4
:101AB00081959F4F0895709561957F4F0895A1E29C
:101AC0001A2EAA1BBB1BFD010DC0AA1FBB1FEE1FB8
:101AD000FF1FA217B307E407F50720F0A21BB30B03
:101AE000E40BF50B661F771F881F991F1A9469F77F
:101AF00060957095809590959B01AC01BD01CF01DB
:101B00000895EE0FFF1F0590F491E02D0994A29F18
:101B1000B001B39FC001A39F700D811D1124911DC1
:101B2000B29F700D811D1124911D0895FB01DC01F0
:101B300005900D920020E1F70895FB01DC0104C03F
:101B40008D910190801921F441505040C8F7881BB5
:101B5000990B0895AEE0B0E0E0EBFDE00C949A1034
:101B60000D891E898EE08C831A8309838F89988D55
:101B7000813020E8920710F080E090E801979E8382
:101B80008D83AE01455E5F4F698D7A8DCE010196E2
:101B90000E94DC0D4D815E8157FD0AC02F81388582
:101BA000421753070CF49A01020F131FF801108219
:101BB0002E96E4E00C94B610ABE0B0E0E2EEFDE06F
:101BC0000C948F106C017B018A01FC011782168234
:101BD000838181FFD9C19AE0592EF6012381F70153
:101BE00023FD859123FF81917F01811509F41FC198
:101BF000853239F423FD959123FF91917F01953230
:101C000029F4B60190E00E94DD0FE7CF30E0912C7F
:101C1000612C712CF0E27F1640F59B32D9F058F41C
:101C20009032D1F09332F1F09E3299F576FCFFC0FC
:101C3000689476F806C09D3291F09033C1F46894B0
:101C400070F8F70123FD959123FF91917F01911188
:101C5000E1CF29C0689471F8689472F8F2CF689463
:101C600073F8EFCF689474F8ECCF77FC1CC080ED6C
:101C7000890F8A30C8F676FE05C0959C800D112428
:101C8000982EDFCF659C800D1124682E689475F81E
:101C9000D8CF9C3619F4689477F8D3CF9C3409F4E4
:101CA0004BC0983671F2892F8F7D8554833008F4AC
:101CB00045C0933609F466C0933709F469C093357B
:101CC00009F475C0943619F0993609F09FC0F801EF
:101CD00077FE95C061917191819191918F01272D2E
:101CE0002F76822E97FF09C090958095709561950B
:101CF0007F4F8F4F9F4F689487F82AE030E0AE0106
:101D00004F5F5F4F5A010E940D108A19A82E86FE60
:101D1000C4C0882D8E7FA91408F0BEC084FE11C1F6
:101D200082FC05C1F82DFE7E8F2EB92C882D867879
:101D3000811509F4BFC000C131E083CF3115F9F03E
:101D4000085F1F4F8FE3898388248394912CAE0111
:101D50004F5F5F4F5A01E89477F873FC03C0861415
:101D60009104B0F181149104D1F5611409F435CFD7
:101D7000B60180E290E00E94DD0F6A94F6CF0C5F1E
:101D80001F4FE0CFF801808189830E5F1F4FDCCFAA
:101D9000F801A190B1908F01692D70E076FC02C02E
:101DA0006FEF7FEFC5010E94D20F4C01D4CFF80135
:101DB000A190B1908F01692D70E076FC02C06FEFA9
:101DC0007FEFC5010E94C70F4C01689477F8C5CF1B
:101DD000B60180E290E00E94DD0F6A94C0CFF50169
:101DE00077FC859177FE81915F01B60190E00E94BA
:101DF000DD0F61106A94F1E08F1A9108B3CF619101
:101E00007191072E000C880B990B68CF872CE894F2
:101E100084F82AE030E0953739F1572D597F852E27
:101E2000903799F058F49835A9F09F36D9F0F6011B
:101E3000868197812B96EFE00C94AB109837B9F719
:101E400074FC05C020E130E00FC0689484F8689409
:101E500082F8F8CF74FE03C0872D8660882E20E1BB
:101E600032E002C028E030E0F80187FE10C0619146
:101E70007191819191918F01FE0131965F01AF01C6
:101E80000E940D108A19A82EE89487F840CF61911E
:101E9000719180E090E0EFCF882EBA2C84FE46CF7F
:101EA000FE01EA0DF11D8081803309F043C0282D29
:101EB000297E822E83FC0EC080FE4FC09A2CB61461
:101EC00018F4960C9B18B62C862D8B196B1408F4FD
:101ED00080E0B80EB61408F042C06B1884FE41C012
:101EE000B60180E390E00E94DD0F82FE09C088E524
:101EF00090E081FC02C088E790E0B6010E94DD0F0F
:101F0000A914D8F1AA94B12C4FEFA41AB40ACE01A7
:101F100001964C01A80EB91EF50182915F01B60130
:101F200090E00E94DD0F8A149B04B1F71ECFB92CFC
:101F3000882EB6CF82FC02C0B394BCCFB394B394C6
:101F4000B9CFB92C882EF2CEB60180E290E00E9483
:101F5000DD0F73947614C0F3B7CF7B2CFBCF612CCD
:101F6000BDCF882D8678811559F280E281FC8BE205
:101F700087FC8DE2B60190E0C1CFB60180E390E02E
:101F80000E94DD0F9A94BCCF8FEF9FEF53CFFC01DF
:101F90000590615070400110D8F7809590958E0F94
:101FA0009F1F0895FC016150704001900110D8F707
:101FB000809590958E0F9F1F08950F931F93CF9339
:101FC000DF93182F092FEB018B8181FD09C01FEFD3
:101FD0000FEF812F902FDF91CF911F910F910895D7
:101FE00082FF14C02E813F818C819D812817390783
:101FF0003CF4E881F981CF010196998388831083AD
:102000008E819F8101969F838E83E3CFE885F9853A
:10201000812F0995892BA1F3DACFFA01AA2728305D
:1020200051F1203181F1E8946F936E7F6E5F7F4FA5
:102030008F4F9F4FAF4FB1E03ED0B4E03CD0670F21
:10204000781F891F9A1FA11D680F791F8A1F911D74
:10205000A11D6A0F711D811D911DA11D20D009F4C4
:1020600068943F912AE0269F11243019305D319306
:10207000DEF6CF010895462F4770405D4193B3E0EF
:102080000FD0C9F7F6CF462F4F70405D4A3318F096
:10209000495D31FD4052419302D0A9F7EACFB4E047
:1020A000A6959795879577956795BA95C9F70097FF
:1020B0006105710508959B01AC010A2E06945795A0
:1020C000479537952795BA95C9F7620F731F841FF7
:1020D000951FA01D0895DC01CB01FC01E199FECF05
:1020E00006C0FFBBEEBBE09A31960DB20D92415097
:1020F0005040B8F70895262FE199FECF9FBB8EBBC5
:10210000E09A01970DB2021631F02DBB0FB6F8948C
:10211000E29AE19A0FBE08952F923F924F925F92FA
:102120006F927F928F929F92AF92BF92CF92DF92E7
:10213000EF92FF920F931F93CF93DF93CDB7DEB74C
:10214000CA1BDB0B0FB6F894DEBF0FBECDBF0994E0
:102150002A88398848885F846E847D848C849B8437
:10216000AA84B984C884DF80EE80FD800C811B8145
:10217000AA81B981CE0FD11D0FB6F894DEBF0FBE74
:10218000CDBFED010895F894FFCF5A095F096409A6
:1021900069096E09730978097C09B809D309D60958
:1021A000D909DC09DF09E209E709DE0A2F0B2F0B49
:0A21B000CE0B160C830CAC0CF10CE6
:1021BA0001B4005E012C0120030A001E0002015333
:1021CA00455420736176652026206578697400413C
:1021DA00434B2063616E63656C00FB01F501F001FE
:0821EA00EA01E401DE01D70166
:00000001FF
