:100000000C9457020C9480020C9480020C94800291
:100010000C9480020C9480020C942F030C948002A8
:100020000C9482020C9480020C9480020C94950F24
:100030000C94B90F0C9480020C9480020C948002F2
:100040000C9480020C9480020C9480020C94800228
:100050000C9480020D0A000D0A232048206D696E61
:100060002C6D61782C6176673D00232054206D69EA
:100070006E2C6D61782C6176673D0023206E6F20B9
:1000800076616C69642073616D706C65730D0A0034
:100090000D0A002320636F756E743D000D0A002069
:1000A000534F554E443D00204353565345433D0066
:1000B0002048485953543D000D0A232054485953B1
:1000C000543D002048484947483D0020484C4F5780
:1000D0003D002054484947483D002320544C4F5789
:1000E0003D0044494147204F46460044494147208E
:1000F0004F4E000D0A00204C4544533D0020524510
:100100005345543D0023204B45593D004449414748
:10011000005041474520005345542000435356208A
:100120004F464600435356204F4E00434C454152E4
:100130004552520052455345545354415453004480
:10014000454641554C5453004C4F41440053415691
:10015000450041434B00535441545300434F4E46D6
:1001600049470053544154555300232052544320CF
:1001700059592D4D4D2D44442048483A4D4D3A5340
:100180005320573D312E2E372028323030302E2E3E
:1001900032303939290D0A0023205041474520309B
:1001A0002E2E383B2044494147204F4E7C4F464637
:1001B0003B20434C4541524552520D0A00232043F7
:1001C0005356204F4E7C4F46463B205345542054B7
:1001D0004C4F577C54484947487C484C4F577C48C3
:1001E000484947487C54485953547C4848595354CB
:1001F0007C4353565345437C534F554E44206E0D1C
:100200000A00232053544154555320434F4E46492E
:10021000472053544154532041434B2053415645AA
:10022000204C4F41442044454641554C54532052A4
:100230004553455453544154530D0A0048454C50BE
:1002400000232045525220636F6D6D616E642F76DE
:10025000616C75652F6D6F64756C650D0A002320E8
:100260004F4B0D0A002320455252206C696E6520C9
:100270006469736361726465640D0A000D0A00327B
:100280003000757074696D655F732C74656D705F97
:10029000632C68756D69646974795F7063742C741C
:1002A0005F7472656E642C685F7472656E642C6135
:1002B0006C61726D2C61636B2C6572726F72732C42
:1002C0006164635F7261772C6C75782C7274630D56
:1002D0000A00232041546D6567613136206D6F6ED1
:1002E00069746F72204320384D487A3B2048454C52
:1002F0005020666F7220636F6D6D616E64730D0ABE
:1003000000534554204C454420453A25303258008E
:10031000444941473A2575204B45593A2558004CE8
:10032000696768742064697361626C656400256C38
:1003300075206C7578004C696768742042483137C5
:100340003530005254432064697361626C65640007
:100350005254432044533332333100253032753AFE
:10036000253032753A2530327520572575003230E8
:10037000253032752D253032752D253032750041EE
:100380004443206572726F7200257520256C756D6F
:100390005620403556005652312041444330202FDC
:1003A000204156434300256C7573205245534554F4
:1003B0003A2530325800555020256C756420253080
:1003C000326C753A2530326C7500543A25632048FA
:1003D0003A256320282B757029005472656E6420BD
:1003E0007374616C65005472656E642077696E6425
:1003F0006F772025752F380041564725752E2575B6
:10040000204E256C750025632025752E25752D251C
:10041000752E2575005761697420666F72204448F7
:100420005431310053746174733A206E6F206461EB
:10043000746100413A253032582041434B3A2558E7
:1004400020453A25303258004448543131206E6FEF
:100450002064617461005425752E2575432048255C
:10046000752E257525250055502F444E2053455493
:100470003E2041434B20580025733D257500534FC6
:10048000554E44004353565345430048485953542E
:1004900000544859535400484849474800484C4F75
:1004A0005700544849474800544C4F570000112406
:1004B0001FBECFE5D4E0DEBFCDBF84B78093490235
:1004C00014BE0FB6F894A89581B5886181BD11BCA2
:1004D0000FBE10E0A0E6B0E0E0E3F1E302C005905B
:1004E0000D92A83CB107D9F722E0A8ECB0E001C01A
:1004F0001D92A934B207E1F70E94960C0C947E1865
:100500000C9400001F921FB61F9211242F938F93FB
:100510009F93AF93BF938091D5009091D600A09107
:10052000D700B091D8008F5B9F4FAF4FBF4F8093E4
:10053000D5009093D600A093D700B093D8008091B7
:10054000D3009091D400885E9D4F9093D400809307
:10055000D3008091D3009091D400883E9340E8F07E
:100560008091D3009091D400885E93409093D40002
:100570008093D3008091D5009091D600A091D700B0
:10058000B091D8000196A11DB11D8093D500909324
:10059000D600A093D700B093D800BF91AF919F91A0
:1005A0008F912F911F901FBE1F901895CF92DF92B1
:1005B000EF92FF924FB7F894C090D500D090D6003C
:1005C000E090D700F090D8002091D3003091D40073
:1005D0008CB59DB508B602FE09C08CB59DB551E439
:1005E000C50ED11CE11CF11C285E3D4F4FBFA0E0A1
:1005F000B0E0BC01CD01620F731F811D911D28EE7B
:1006000033E040E050E00E94EF14CA01B9016C0DE4
:100610007D1D8E1D9F1DFF90EF90DF90CF90089560
:10062000F89484B7806884BF84BF87B3807F87BB1A
:1006300088B38F6088BB1FBC82E08EBD1DBC1CBC14
:1006400020E137E23BBD2ABD94E198BF99BF85BD4B
:1006500014BC7894089586B380958F7008951F9286
:100660000F920FB60F9211242F933F934F935F93E6
:100670006F937F938F939F93AF93BF93CF93DF93AA
:10068000EF93FF938AB59BB5805F984D9BBD8ABD64
:100690000E942B034091CD00EEECF0E060E070E0B2
:1006A000A1E0B0E09D01062E01C0220F0A94EAF7F6
:1006B0009191582F5223511541F0933018F49F5FB8
:1006C000EF019A93933091F407C0911559F191502D
:1006D000EF019A93933021F5942F9223911106C044
:1006E000422B9091D200922B9093D2006F5F7F4F5C
:1006F00064307105B9F64093CD00FF91EF91DF9121
:10070000CF91BF91AF919F918F917F916F915F91A9
:100710004F913F912F910F900FBE0F901F90189502
:100720009111E4CF20954223E1CF9FB7F8948091B7
:10073000D2001092D2009FBF08950895CF92DF9209
:10074000EF92FF92CF93DF93EC0180E487B986E8C4
:1007500086B9369A0E94D6026B5F7F4F8F4F9F4FAC
:100760006B017C0136990CC084B195B19983888363
:1007700081E0DF91CF91FF90EF90DF90CF900895CF
:100780000E94D602A70196010E94DE0A811551F34C
:1007900080E0EFCFCF92DF92EF92FF926B017C016E
:1007A00041110EC09FB7F89481B3837E81BB82B3A1
:1007B000837E82BB9FBFFF90EF90DF90CF90089524
:1007C00081B38C6181BB2091C9003091CA004091F6
:1007D000CB005091CC00C701B6010E94DE0A811502
:1007E00051F38CE2C80E81E0D81EE11CF11CC092CE
:1007F000C900D092CA00E092CB00F092CC00809168
:10080000C80090E001966AE070E00E94DB148093DB
:10081000C8004FB7F89422B33091C800377081E018
:1008200090E001C0880F3A95EAF780958C71237E9D
:10083000822B82BB4FBFBFCFCF93C82F87FF03C090
:100840008DE20E940410C7FDC1956C2F70E080E01E
:1008500090E0CF910C944B108CE20C940410CF9349
:100860006AE00E94BB14C92F805D0E94041080E3DF
:100870008C0FCF910C94041082E892E00C943C1001
:1008800060915101709152018091530190915401F6
:100890000E944B100E942C0480916A01811531F056
:1008A0008091590190915A010E94AA100E942C0433
:1008B00080916A01811531F080915B0190915C011A
:1008C0000E94AA100E942C0480916A01811559F09F
:1008D00080914E01883039F460E089E191E00E9416
:1008E0000D090E941C040E942C0480916A0181154C
:1008F00059F080914E01883039F461E089E191E04E
:100900000E940D090E941C040E942C0460914F015A
:1009100070E080E090E00E944B100E942C046091F7
:10092000500170E080E090E00E944B100E942C0487
:100930006091660170E080E090E00E944B100E94A0
:100940002C0480916D01811541F060915D017091E1
:100950005E0180E090E00E944B100E942C04809188
:100960006C01811551F06091550170915601809193
:100970005701909158010E944B100E942C048091C5
:100980006B01811559F18FE792E00E943C10809134
:100990005F010E942F048DE20E940410809160018B
:1009A0000E942F048DE20E940410809161010E9438
:1009B0002F0484E50E940410809162010E942F049C
:1009C0008AE30E940410809163010E942F048AE34D
:1009D0000E940410809164010E942F048CE792E031
:1009E0000C943C101F93CF93DF9300D00F92CDB7A0
:1009F000DEB70E94C510811519F081E080930A01CD
:100A000011E0CE0103960E94EC0F811107C00F90F8
:100A10000F900F90DF91CF911F9108950E94C51004
:100A2000811110930A018B818D3019F08A3009F001
:100A30001DC280910A01811549F085E692E00E946D
:100A40003C101092090110920A01DBCFE0910901DC
:100A5000E115B9F3F0E0E752FF4F10826CE372E06A
:100A600089ED90E00E942615892B89F482E092E0BE
:100A70000E943C108DEB91E00E943C1088E991E0CF
:100A80000E943C108AE691E00E943C100AC063E696
:100A900071E089ED90E00E942615892B29F40E94CF
:100AA00040048EE592E0CBCF6CE571E089ED90E0FB
:100AB0000E942615892B09F065C08AED90E00E94FE
:100AC0003C1060910B0170910C01072E000C880BFB
:100AD000990B0E944B1082ED90E00E943C106091B7
:100AE0000D0170910E01072E000C880B990B0E94CE
:100AF0004B108BEC90E00E943C1060910F017091C4
:100B0000100180E090E00E944B1083EC90E00E9486
:100B10003C10609111017091120180E090E00E9400
:100B20004B1088EB90E00E943C1060911301709193
:100B3000140180E090E00E944B1080EB90E00E9456
:100B40003C10609115017091160180E090E00E94C8
:100B50004B1087EA90E00E943C106091170170E012
:100B600080E090E00E944B108FE990E00E943C10E2
:100B70006091180170E080E090E00E944B108CE9D9
:100B800090E082CF66E571E089ED90E00E94261545
:100B9000892B09F076C083E990E00E943C106091B7
:100BA000190170911A0180911B0190911C010E9402
:100BB0004B1080E990E00E943C10809119019091C7
:100BC0001A01A0911B01B0911C01892B8A2B8B2B40
:100BD00019F48BE790E058CF8AE690E00E943C1031
:100BE00080912501909126010E94AA100E942C0458
:100BF00080912701909128010E94AA100E942C0444
:100C000060911D0170911E0180911F019091200142
:100C10002091190130911A0140911B0150911C0142
:100C20000E94EF14C9010E94AA1087E590E00E947B
:100C30003C108091290190912A010E94AA100E94E3
:100C40002C0480912B0190912C010E94AA100E94EB
:100C50002C046091210170912201809123019091D7
:100C600024012091190130911A0140911B015091EA
:100C70001C010E94EF14C9010E94AA1084E590E0B3
:100C800003CF62E571E089ED90E00E942615892B83
:100C900019F40E94690C05CF6DE471E089ED90E0D4
:100CA0000E942615892B31F40E94720C811509F4DB
:100CB00077C0F7CE68E471E089ED90E00E942615D8
:100CC000892B19F40E94800CF1CF6FE371E089ED5C
:100CD00090E00E942615892B39F48BE091E00E9468
:100CE0005B070E946D11DDCE64E371E089ED90E059
:100CF0000E942615892B29F489E191E00E94880839
:100D0000D0CE6BE271E089ED90E00E942615892B30
:100D100041F40E94BF10809166018F7A8093660132
:100D2000C0CE64E271E089ED90E00E942615892B27
:100D300031F481E080936E010E943C04B2CE6CE1FC
:100D400071E089ED90E00E942615892B19F410922C
:100D50006E01A7CE44E050E067E171E089ED90E0DC
:100D60000E943615892BF9F460E270E08DED90E079
:100D70000E9451150097A1F0FC011192CF01BE0114
:100D80006F5F7F4F0E94E80A811551F049815A81B7
:100D90006DED70E08BE091E00E94AA078111A1CF78
:100DA00081E492E04CCE45E050E061E171E089EDF4
:100DB00090E00E943615892B89F4BE016F5F7F4F4A
:100DC0008EED90E00E94E80A811551F389819A81A5
:100DD0008930910528F78093690183CF6CE071E039
:100DE00089ED90E00E942615892B29F585E091E098
:100DF0000E943C100E942B03682F70E080E090E07E
:100E00000E944B108DEF90E00E943C1060914902CF
:100E100070E080E090E00E944B1086EF90E00E942E
:100E20003C1060916F0170E080E090E00E944B10F8
:100E300083EF90E029CE6BEE70E089ED90E00E94A8
:100E40002615892B39F481E080936F0188E0809327
:100E5000690127CE62EE70E089ED90E00E942615D0
:100E6000892B09F09DCF10926F011BCE883011F0B5
:100E70008F3769F480910901811509F4C2CD9091F1
:100E80000A019111BECD815080930901BACD90EE37
:100E9000980F9F3568F4E0910901EF3248F491E032
:100EA0009E0F90930901F0E0E752FF4F8083A9CD98
:100EB00010930A01A6CDDC018EE0E1E6F0E001909E
:100EC0000D928A95E1F708950F931F93CF93DF93C7
:100ED000FC014081518157FD36C022813381253F7D
:100EE00061E0360784F5421753076CF586819781D8
:100EF000893E63E0960738F5A481B581A817B90744
:100F000010F5C085D185BE01615071096436710547
:100F1000D0F4628573858B0101501109083C1105DD
:100F200090F4241B350BC217D30768F48A1B9B0B64
:100F30006817790740F4848581508C3320F481E070
:100F40009585923008F080E08170DF91CF911F91FC
:100F50000F9108952F923F924F925F926F927F92DE
:100F60008F929F92AF92BF92CF92DF92EF92FF92B9
:100F70000F931F93CF93DF93CDB7DEB762970FB672
:100F8000F894DEBF0FBECDBF8C016F87788B7A01DE
:100F9000FC01428053806480758086809780A084A5
:100FA000B184F285F98BFC01F385FA8BFC01C484D2
:100FB000D5846FE670E08F8598890E945C15892B37
:100FC00009F4A2C0F8012080318064E770E08F85C9
:100FD00098890E945C15892B09F498C06AE770E033
:100FE0008F8598890E945C15892BA9F43701F7FC3D
:100FF0003CC061E970E08F8598890E945C15892B5F
:1010000009F05AC081E0E81AF1089CE3E916F104FE
:1010100008F452C02AC06FE770E08F8598890E945B
:101020005C15892B11F44701E2CF65E870E08F85EC
:1010300098890E945C15892B11F45701D8CF6BE871
:1010400070E08F8598890E945C15892B19F4E98AD4
:10105000FA8ACDCF61E970E08F8598890E945C158E
:10106000892BE9F4CE2CF7FECDCF80E062960FB647
:10107000F894DEBF0FBECDBFDF91CF911F910F91CE
:10108000FF90EF90DF90CF90BF90AF909F908F90A8
:101090007F906F905F904F903F902F90089568E9F8
:1010A00070E08F8598890E945C15892BF1F6DE2C03
:1010B000F2E0EF16F104C8F629823A824B825C8294
:1010C0006D827E828F829886A986BA86E989EB87AF
:1010D000FA89FC87CD86DE86CE0101960E946407E0
:1010E000811519F2F8012082318242825382648292
:1010F000758286829782A086B186998992879A891D
:101100009387C486D586B2CF170171CF27016FCFE1
:1011100026E3FC0111922A95E9F70895FC019B0151
:10112000CA01653F714008F067C0893E63E09607D9
:1011300008F062C04081518162817381411551057F
:101140006105710509F059C03787268735872487DF
:10115000938B828B918B808BA089B1898A179B0797
:1011600010F4918B808BA289B389A817B90710F46A
:10117000938B828B4034A2E45A07AFE06A07710573
:1011800000F54F5F5F4F6F4F7F4F40835183628306
:1011900073834481558166817781420F531F611D9E
:1011A000711D4483558366837783408551856285AD
:1011B0007385480F591F611D711D408751876287D4
:1011C0007387A4A94A2F50E0BF016A0F711D6A0FEF
:1011D000711DDB0155963C932E93549795969C93E5
:1011E0008E939497CA0101968770992784AB85A93D
:1011F000883010F48F5F85AB0895A485B5852A17D4
:101200003B0710F435872487A685B785A217B30757
:1012100008F0A2CF378726879FCFCF93DC01D596E2
:101220008C91D5978830E0F1D496CC91D49770E02A
:1012300020E030E040E050E08C2F870F8770E82FEF
:10124000F0E0611579F07296EE0FFF1FEA0FFB1FB9
:1012500080819181E1E0E70F743030F4480F591F2D
:101260007E2FEACF3A96F0CF280F391F7E2FE83035
:1012700019F780E590E0611102C084E190E0241B41
:10128000350B2817390774F444275527481B590B89
:1012900081E0421753070CF480E08195CF910895C7
:1012A00080E0FCCF81E0FACFEF92FF920F931F9383
:1012B000CF93DC01FB01BA01A901E084F1848081B4
:1012C0009181CC91C0FF08C08E0D9F1D21E0681751
:1012D000790734F020E004C021E086179707D4F3A3
:1012E00002811381C1FF08C00E191F0991E0061782
:1012F000170734F090E004C091E060177107D4F351
:10130000990F922B6285738524813581C2FF08C0B5
:10131000260F371F81E04217530734F080E004C0E6
:1013200081E024173507D4F3880F880F892B268195
:101330003781C3FF08C0261B370B91E02417350700
:1013400034F090E004C091E042175307D4F3919534
:101350009870892B8C9311969C91119789231196E3
:101360008C93CF911F910F91FF90EF900895FC0106
:101370008081818308959C018FEF9FEF615008F475
:101380000895F9012191922728E0AC01880F991F57
:1013900057FF04C031E2832730E193272A95A9F74C
:1013A0009F01ECCF621B730B840B950B21E016168B
:1013B0001706180619060CF020E0822F0895CF9327
:1013C000DF93EC01FB01019667E1DC011D926A9558
:1013D000E9F765EA688361E069832A833B834C838C
:1013E0005D83208131813F832E8322813381398740
:1013F0002887248135813B872A87268137813D874D
:101400002C87208531853F872E8722853385398B30
:10141000288B24852A8B25852B8B65E10E94BB09AF
:101420009F8B8E8BDF91CF9108952F923F924F9299
:101430005F926F927F928F929F92AF92BF92CF9264
:10144000DF92EF92FF920F931F93CF93DF93CDB76D
:10145000DEB762970FB6F894DEBF0FBECDBF8C012A
:101460007B014F87588BFC018081853AD1F080E069
:1014700062960FB6F894DEBF0FBECDBFDF91CF915D
:101480001F910F91FF90EF90DF90CF90BF90AF90A2
:101490009F908F907F906F905F904F903F902F9094
:1014A00008958181813019F7C688D78865E1C80120
:1014B00001960E94BB098C159D05C9F6F80126808E
:1014C0003780408451846284738484849584A684A4
:1014D000B784C088D188F289F98BF801F389FA8B37
:1014E00029823A824B825C826D827E828F829886CC
:1014F000BA86A986DC86CB8689898D87FE87CE0150
:1015000001960E946407811509F4B1CFF801438167
:1015100050E060E070E0762F652F542F44279281D1
:10152000492B9481692B9581792BF7012082318297
:10153000428253826482758286829782B186A086B7
:10154000D386C286998994879A899587EF85F88989
:1015500040835183628373838BCFCF93DF93FC01EE
:10156000DB01EA014081818162812381942F980F00
:10157000960F920F348193131FC08A30E8F42A30FB
:10158000D8F45AE030E0569F200D311D1124253F3C
:1015900091E0390788F490E0549F800D911D11244B
:1015A000893E43E0940740F42D933C9399838883CC
:1015B00081E0DF91CF91089580E0FBCFDC01CB018A
:1015C000821B930BA40BB50BB038880B8195089543
:1015D0008F929F92AF92BF92CF92DF92EF92FF9243
:1015E0001F93CF93DF93EC01FB01888110E08D32D4
:1015F00011F4219611E08881811509F442C0812CF3
:10160000912C5401C12ED12CE12CF12C4FEFC40EA2
:101610004FE7D41EE11CF11C4991411116C0662709
:10162000772768197909111101C0B40171836083AA
:1016300081E0DF91CF911F91FF90EF90DF90CF90ED
:10164000BF90AF909F908F90089520ED240F2A3087
:10165000C0F49401AAE0B0E00E941715242F440FB3
:10166000330B205331094901092C000CAA08BB088F
:10167000860E971EA81EB91EC814D904EA04FB04DE
:1016800058F680E0D6CFCF93DF93C82FD4B5882704
:10169000C99983958C1304C081E0DF91CF9108959F
:1016A0000E94E80F84B58D1B843688F380E0F5CF67
:1016B000D198D99A0895D998D19A08959F92AF92C6
:1016C000BF92CF92DF92EF92FF920F931F93CF932F
:1016D000DF9300D000D00F92CDB7DEB7D82E092F00
:1016E000B62EC72ECE0101967C0185E0F70111923E
:1016F0008A95E9F7AFB6F894D198D99AFAE1FA95B4
:10170000F1F700C080E00E94430B811116C010E089
:101710000E94E80FAFBE812F0F900F900F900F9097
:101720000F90DF91CF911F910F91FF90EF90DF907D
:10173000CF90BF90AF909F90089581E00E94430B9F
:10174000811529F380E00E94430B811501F310E01D
:1017500081E00E94430B8115D1F294B480E00E9495
:10176000430B8115A1F2E12FE695E695E695EE0D86
:10177000FF2DF11D2081220F208384B589198E321F
:1017800010F0216020831F5F183211F74B2D5C2D64
:101790006D2D702FC7010E94AD0A182FB9CF089583
:1017A00095B39F70807F982B95BB82E08A95F1F767
:1017B00000C0979A82E08A95F1F700C0979882E07E
:1017C0008A95F1F700C00895CF93C82F611581F075
:1017D000969A95988C2F0E94D00B8C2F8295807FA3
:1017E0000E94D00B85E88A95F1F70000CF9108950B
:1017F0009698EFCF84B3806F84BB81B3806E81BB3A
:1018000082B38F7182BB2FEF89EF90E0215080402F
:101810009040E1F700C0000080E30E94D00B8FE011
:1018200097E20197F1F700C0000080E30E94D00B1F
:101830008BE291E00197F1F700C0000080E30E9485
:10184000D00B8BE291E00197F1F700C0000080E23D
:101850000E94D00B8BE291E00197F1F700C00000ED
:1018600060E088E20E94E40B60E08CE00E94E40B00
:1018700060E086E00E94E40B60E081E00E94E40BFF
:101880008FE99FE00197F1F700C0000008950F93E2
:101890001F93CF93DF93EB018115B1F080EC60E0F3
:1018A0000E94E40B10E100E0011111C08881811554
:1018B00069F0219661E00E94E40B1A95A9F7DF9187
:1018C000CF911F910F91089580E8E9CF01E080E268
:1018D000F1CF8FE491E00E94B70980916601809377
:1018E000670108958BE091E00E94D80E9091660107
:1018F000811521F09F7D9093660108959062FBCF42
:10190000CF938BE091E00E94660EC82F9091660104
:10191000811541F09F7D909366010E946D118C2F7F
:10192000CF910895906290936601F9CFCDB7DEB75D
:1019300069970FB6F894DEBF0FBECDBF0E941003AB
:101940000E94DB0F0E94FA0B0E94580B0E94CF0BE3
:101950008BE091E00E945B078BE091E00E94660EB5
:10196000811105C08091660180628093660180913B
:10197000490283FF05C080916601806480936601FF
:1019800089E191E00E94880881E080936E011092C5
:101990006F010E94D6024B015C01A5019401205306
:1019A000384F4F4F5F4F29833A834B835C8388E1E5
:1019B0009EE00FB6F894A89581BD0FBE91BD82ED53
:1019C00092E00E943C100E943C0489819A81AB8184
:1019D000BC81898B9A8BAB8BBC8B8D869E86AF86A8
:1019E000B88A89869A86AB86BC868D829E82AF82B3
:1019F000B8861D8A1E8A1F8A188E198E412C512C7A
:101A000032010E94D6026B017C014C0C5D1C6E1CE5
:101A10007F1C481859086A087B08809151019091F1
:101A20005201A0915301B0915401AC01BD014F5F2F
:101A30005F4F6F4F7F4F28EE421623E0520661043E
:101A4000710408F022C18093510190935201A09338
:101A50005301B09354010E94F204C701B6010E94E1
:101A600095030E947011398D311121C029813A816D
:101A70004B815C81C701B6010E94DE0A898F811506
:101A800009F44DC00E945B0BD701C6014496A11D0D
:101A9000B11D8D8B9E8BAF8BB88FA7019601205304
:101AA000384F4F4F5F4F29833A834B835C832D8997
:101AB0003E894F89588DC701B6010E94DE0A811503
:101AC00009F4FDC06BE571E089E591E00E945E0BD1
:101AD00080936A01811509F4E1C010926801809138
:101AE00066018E7F8093660140915B0150915C019D
:101AF0006091590170915A0189E191E00E948E082C
:101B000020915B0130915C014091590150915A0143
:101B10006BE071E08FE491E00E945409198E2985F1
:101B20003A854B855C85C701B6010E94DE0A8115A6
:101B3000C9F08DE591E00E949E03982F80936D017E
:101B400080916601911509F4BDC0877FA7019601B8
:101B50002C503E4F4F4F5F4F29873A874B875C870A
:101B6000809366012D853E854F855889C701B60152
:101B70000E94DE0A811551F0D701C60188519C4FA1
:101B8000AF4FBF4F8D879E87AF87B88B0E94BC1029
:101B9000811529F0809166018061809366014091F2
:101BA0006601209167012423209367018091180129
:101BB000811509F489C08091500190E0809590953D
:101BC00060914F0170E08623972330E02095309597
:101BD00050E0242335232F743327822B932B009737
:101BE00081F0C701B60128EE33E040E050E00E94EA
:101BF000EF1421E0683C71058105910508F020E0B3
:101C0000822F81700E949D0340916F01C701B60130
:101C10000E94CA032D813E814F815885C701B601BC
:101C20000E94DE0A811561F0A701960126503F4F00
:101C30004F4F5F4F2D833E834F8358870E94D211B1
:101C400029893A894B895C89C701B6010E94DE0A5D
:101C50008115B9F0B090170180916E0181110E9439
:101C600040042B2D30E0A8EEB3E00E9417159B0135
:101C7000AC012C0D3D1D4E1D5F1D298B3A8B4B8BEE
:101C80005C8BA89546015701BCCE98EE491A93E0AB
:101C9000590A61087108DB01CA01C7CE8091680149
:101CA0008F3F31F48091660181608093660136CF69
:101CB0008F5F80936801833008F430CFF3CF31E039
:101CC000398F2DCF886042CF80E09BCFBF92CF92DB
:101CD000DF92EF92FF920F931F93CF93DF93CDB7D5
:101CE000DEB7AA970FB6F894DEBF0FBECDBFE82EC1
:101CF000B92E80E0C82E80E0D82EF12C00E048E11B
:101D000050E0B601CE0101960E942618AE01495D51
:101D10005F4FBE01675E7F4FCE0101960E94150A9C
:101D2000182F8115D1F0011132C08EE0FE01799695
:101D3000AE2DBB2D01900D928A95E1F78FA198A54C
:101D4000A9A5BAA58093700190937101A093720127
:101D5000B0937301F0926000012F81E08F0D98E144
:101D6000C90ED11CFF24F394823049F6802FAA9625
:101D70000FB6F894DEBF0FBECDBFDF91CF911F919C
:101D80000F91FF90EF90DF90CF90BF90089520913A
:101D900070013091710140917201509173016FA1F6
:101DA00078A589A59AA50E94D2098111BECFD4CF6A
:101DB000DF92EF92FF920F931F93CF93DF93CDB7F4
:101DC000DEB7C254D1090FB6F894DEBF0FBECDBF47
:101DD0008C010E946407811110C080E0CE5BDF4F50
:101DE0000FB6F894DEBF0FBECDBFDF91CF911F912C
:101DF0000F91FF90EF90DF900895D090600081E008
:101E0000D8268091700190917101A0917201B091DA
:101E100073019C01AD012F5F3F4F4F4F5F4FB801E2
:101E2000CE0149960E94DF0988E1D89E80011124E5
:101E30000050104060E0C8010E943618EE24E39480
:101E4000F12CFE017996EE0DFF1D6081C8018E0D0B
:101E50009F1D0E9436188FEFE81AF80A88E1E816ED
:101E6000F10479F7698DC8010E94361848E150E005
:101E7000B801CE0101960E94261848E150E0BE014B
:101E8000675E7F4FCE0101960E944415892B09F0B1
:101E9000A4CFAE01415C5F4FBE016F5C7F4FCE01AE
:101EA00001960E94150A811509F497CF23960CAD6F
:101EB0001DAD2EAD3FAD2397409170015091710142
:101EC00060917201709173014F5F5F4F6F4F7F4F51
:101ED000401751076207730709F07FCFD092600067
:101EE000409370015093710160937201709373017C
:101EF00075CF8BB19CB18C71811531F081E08093ED
:101F00003402809335020895809139028F5F8F7378
:101F100020913802281791F3E0913902F0E0EC505B
:101F2000FE4F90838093390208951F920F920FB64F
:101F30000F9211242F933F934F935F936F937F934F
:101F40008F939F93AF93BF93EF93FF930E94790F6B
:101F5000FF91EF91BF91AF919F918F917F916F9181
:101F60005F914F913F912F910F900FBE0F901F9057
:101F700018958F938FB78F939F93EF93FF939091C3
:101F8000370280913602981308C05598FF91EF915F
:101F90009F918F918FBF8F911895E0913602F0E05D
:101FA000EC58FE4F80818CB9809136028F5F8F771D
:101FB00080933602EBCF889882B3836082BB10BCDB
:101FC00083E389B91BB886E880BD88E98AB908959A
:101FD0005F990C94790F0895DC01909139028091FA
:101FE0003802981779F0E0913802F0E0EC50FE4F9B
:101FF00080818C93809138028F5F8F738093380239
:1020000081E0089580E00895CF92DF92EF92FF92F1
:10201000CF93DF93D82FC0913702CF5FCF770E9445
:10202000D6026B5F7F4F8F4F9F4F6B017C0180917A
:1020300036028C1771F0E0913702F0E0EC58FE4F59
:10204000D0838FB7F894C0933702559A8FBF81E041
:102050000CC00E94D602A70196010E94DE0A8115DB
:1020600031F381E08093350280E0DF91CF91FF90E2
:10207000EF90DF90CF900895CF93DF93EC01FE01B6
:102080008491811529F00E94041021968111F7CFC7
:10209000DF91CF9108954F925F926F927F929F92BE
:1020A000AF92BF92CF92DF92EF92FF920F931F9366
:1020B000CF93DF93CDB7DEB72A970FB6F894DEBF84
:1020C0000FBECDBF962EA72EB82E092F10E08AE0A6
:1020D000482E512C612C712C692D7A2D8B2D902F2F
:1020E000A30192010E94EF14FE013196E10FF11D50
:1020F0001F5F605D6083C92CDA2CEB2CF02E922ED2
:10210000A32EB42E052F8AE0C816D104E104F104F1
:1021100018F7111116C02A960FB6F894DEBF0FBE3D
:10212000CDBFDF91CF911F910F91FF90EF90DF9086
:10213000CF90BF90AF909F907F906F905F904F90A7
:1021400008951150FE013196E10FF11D80810E942A
:102150000410DFCFCF936AE070E00E94C714C82F4D
:1021600080E090E00E944B108EE20E94041080E319
:102170008C0FCF910C9404108091350208958FB785
:10218000F894109235028FBF08958FB7F89490910C
:102190003402109234028FBF81E0911101C080E0BF
:1021A0000895E0914802E150E83050F5F0E0E05841
:1021B000F74E0C94111580913A0290913B020895CC
:1021C00080913C0290913D02089580913E02909151
:1021D0003F020895809140029091410208958091BC
:1021E00042029091430208958091440290914502E9
:1021F00008958091460290E0089580914702FBCFB8
:1022000080E090E00895EF92FF921F93CF93DF93C9
:10221000CDB7DEB72E970FB6F894DEBF0FBECDBF99
:10222000182F8EE0EAE3F2E09E012F5F3F4F790125
:10223000D90101900D928A95E1F70E94D1109C017D
:10224000E09148024AE050E0E53010F041E050E013
:102250001403C001159F900D1124820F931F97FD49
:1022600017C0E150E830A0F4F0E0E857F74E0C94C6
:1022700011159A838983C7010E946407811541F073
:102280008EE0F701AAE3B2E001900D928A95E1F7A2
:102290002E960FB6F894DEBF0FBECDBFDF91CF9163
:1022A0001F91FF90EF9008959C838B83E4CF9E83D2
:1022B0008D83E1CF98878F83DECF9A878987DBCFA5
:1022C0009C878B87D8CF8D33910514F78D87D3CF1B
:1022D00082309105ECF68E87CECF10924802089599
:1022E000CF93C82F83FF0AC00E94690C80914802D7
:1022F000811541F110924802CF91089580914802D2
:10230000811501F1C0FF03C081E00E940311C1FFEC
:1023100003C08FEF0E940311C2FFEECF80914802ED
:10232000893061F48EE0EAE3F2E0ABE0B1E00190E5
:102330000D928A95E1F70E94720CDCCF8F5F80933B
:102340004802DACFC0FF0AC08091690190E001968F
:1023500069E070E00E94DB1480936901C1FF0AC04C
:102360008091690190E0089669E070E00E94DB14BA
:1023700080936901C2FFC0CF80916901883039F430
:1023800080916F0191E0892780936F01B5CF8EE036
:10239000EBE0F1E0AAE3B2E001900D928A95E1F75B
:1023A00081E0CDCF8F929F92AF92BF92CF92DF927A
:1023B000EF92FF920F931F93CF93DF93CDB7DEB7CA
:1023C00069970FB6F894DEBF0FBECDBFE09148020B
:1023D000E11509F468C0E930E1F46EE970E080E0ED
:1023E0000E94470C6EEA70E081E069960FB6F8949F
:1023F000DEBF0FBECDBFDF91CF911F910F91FF9038
:10240000EF90DF90CF90BF90AF909F908F900C9403
:10241000470CE1506EE774E0E73038F4F0E0EE0F7F
:10242000FF1FE754FF4F608171818E010E5E1F4FC9
:10243000C8010E942F150E94D1109F938F931F9364
:102440000F9388E794E09F938F931F9281E18F937E
:10245000015111091F930F930E946515B80180E087
:102460000E94470C67E674E0C8010E942F15B8016E
:1024700081E00E94470C0FB6F894DEBF0FBECDBFBF
:1024800069960FB6F894DEBF0FBECDBFDF91CF9136
:102490001F910F91FF90EF90DF90CF90BF90AF9082
:1024A0009F908F900895F09069018E010F5F1F4FEC
:1024B00098E0F91608F038C2EF2DF0E0E057F74E3B
:1024C0000C94111580916A01811509F446C0809120
:1024D0005B0190915C012AE030E0B9010E94C714D1
:1024E000462FE72FF82FF92E8091590190915A012C
:1024F000B9010E94C714FF92FF93EF934F939F93EC
:102500008F937F936F9386E594E09F938F931F92B1
:1025100081E18F931F930F930E9465150FB6F89476
:10252000DEBF0FBECDBFB80180E00E94470C809196
:1025300066011F928F93809150011F928F9380911B
:102540004F011F928F9383E394E09F938F931F9289
:1025500081E18F931F930F9352C168E474E0C80127
:102560000E942F15E0CF92E0F91227C0E0912901D7
:10257000F0912A0180912B0190912C014091190139
:1025800050911A0160911B0170911C01452B462B43
:10259000472BE1F464E274E0C8010E942F15B801F2
:1025A00080E00E94470C65E174E0C8010E942F158D
:1025B000B80181E00E94470C63CFE0912501F091C2
:1025C00026018091270190912801D8CF2AE030E0A0
:1025D000B9010E94C714462FE72ED82EC92ECF016D
:1025E000B9010E94C71422E0F21251C028E4CF9230
:1025F000DF92EF924F939F938F937F936F931F92EE
:102600002F9386E094E09F938F931F9281E18F93A5
:102610001F930F930E946515B80180E00E94470C3C
:102620000FB6F894DEBF0FBECDBF92E0F91231C0F5
:1026300060912101709122018091230190912401E8
:10264000F0901901E0901A01D0901B01C0901C017C
:102650002F2D3E2D4D2D5C2D0E94EF14C9016AE0F7
:1026600070E00E94C714CF92DF92EF92FF929F9387
:102670008F937F936F9388EF93E09F938F931F9235
:1026800081E18F931F930F930E946515BAC024E5D3
:10269000AECF60911D0170911E0180911F0190913C
:1026A0002001CECF80914E011F928F9386EE93E052
:1026B0009F938F931F9281E18F931F930F930E949B
:1026C0006515B80180E00E94470C0FB6F894DEBF94
:1026D0000FBECDBF80916A016AED73E0811509F4E8
:1026E00064CF60E089E191E00E940D09F82E61E07D
:1026F00089E191E00E940D099BE2181624F09DE209
:10270000811101C09DE38BE21F1424F08DE2F110D2
:1027100001C08DE31F929F931F928F938AEC93E0E9
:102720009F938F931F9281E18F931F930F930E942A
:10273000651567C0C0905101D0905201E0905301DF
:10274000F09054012CE3822E912CA12CB12CC701C6
:10275000B601A50194010E94EF14CA01B901A501B7
:1027600094010E94EF149F938F937F936F93C701FF
:10277000B60120E13EE040E050E00E94EF14CA01C3
:10278000B90128E130E040E050E00E94EF149F934F
:102790008F937F936F93C701B60120E831E541E045
:1027A00050E00E94EF145F934F933F932F9386EB7B
:1027B00093E09F938F931F9231E1F32EFF921F932B
:1027C0000F930E946515B80180E00E94470C80912C
:1027D00049021F928F93809154018F9380915301EE
:1027E0008F93809152018F93809151018F9386EA4C
:1027F00093E09F938F931F92FF921F930F930E94DA
:1028000065150FB6F894DEBF0FBECDBFD1CE66E919
:1028100073E0C8010E942F15B80180E00E94470CA8
:1028200080916D018115C9F0F0905D01E0905E012D
:102830002F2D3E2DA8E8B3E10E9417152FEF33E0AE
:1028400040E050E00E94EF145F934F933F932F932B
:10285000EF92FF9289E893E078CE6FE773E0A5CE20
:1028600080916B018115A9F1809161011F928F9375
:10287000809160011F928F9380915F011F928F93CF
:102880008EE693E09F938F931F9291E1F92EFF9232
:102890001F930F930E946515B80180E00E94470CBA
:1028A000809165011F928F93809164011F928F9395
:1028B000809163011F928F93809162011F928F9389
:1028C0008BE593E09F938F931F92FF921F930F933B
:1028D000DBCE60E573E0C8010E942F15B80180E0EF
:1028E0000E94470C63E473E060CE66E373E0C801C6
:1028F0000E942F15B80180E00E94470C80916C0166
:10290000811579F0809158018F93809157018F93B1
:10291000809156018F93809155018F938EE293E0C1
:10292000FFCE6FE173E041CE0E942B031F928F9385
:1029300080916F011F928F9380E193E09F938F931B
:102940001F9281E1F82EFF921F930F930E9465154D
:10295000B80180E00E94470C809166011F928F931E
:1029600081E093E09F938F931F92FF921F930F93A9
:102970000E94651546CF992778E0880F991F961712
:1029800008F0961B881F7A95C9F780950895AA1BB1
:10299000BB1B51E107C0AA1FBB1FA617B70710F04A
:1029A000A61BB70B881F991F5A95A9F7809590957C
:1029B000BC01CD01089597FB072E16F4009407D0B3
:1029C00077FD09D00E94C71407FC05D03EF490950E
:1029D00081959F4F0895709561957F4F0895A1E26D
:1029E0001A2EAA1BBB1BFD010DC0AA1FBB1FEE1F89
:1029F000FF1FA217B307E407F50720F0A21BB30BD4
:102A0000E40BF50B661F771F881F991F1A9469F74F
:102A100060957095809590959B01AC01BD01CF01AB
:102A20000895EE0FFF1F0590F491E02D0994A29FE9
:102A3000B001B39FC001A39F700D811D1124911D92
:102A4000B29F700D811D1124911D0895FB01DC01C1
:102A50008D91059080190110D9F3990B0895FB0110
:102A6000DC0105900D920020E1F70895FB01DC01E7
:102A70004150504030F08D910590801919F400209C
:102A8000B9F7881B990B0895FB01DC0104C08D91F7
:102A90000190801921F441505040C8F7881B990BD0
:102AA0000895FC018191861721F08823D9F7992791
:102AB00008953197CF010895FB01DC018D910190BC
:102AC00080190110D9F3990B0895AEE0B0E0EBE660
:102AD000F5E10C9455180D891E898EE08C831A83BC
:102AE00009838F89988D813020E8920710F080E06B
:102AF00090E801979E838D83AE01455E5F4F698D9F
:102B00007A8DCE0101960E9497154D815E8157FD09
:102B10000AC02F813885421753070CF49A01020F1F
:102B2000131FF80110822E96E4E00C947118ABE0AC
:102B3000B0E0EDE9F5E10C944A186C017B018A01E3
:102B4000FC0117821682838181FFD9C19AE0592E38
:102B5000F6012381F70123FD859123FF81917F01F8
:102B6000811509F41FC1853239F423FD959123FFA6
:102B700091917F01953229F4B60190E00E94981757
:102B8000E7CF30E0912C612C712CF0E27F1640F5FC
:102B90009B32D9F058F49032D1F09332F1F09E325A
:102BA00099F576FCFFC0689476F806C09D3291F0E6
:102BB0009033C1F4689470F8F70123FD959123FFD9
:102BC00091917F019111E1CF29C0689471F86894C7
:102BD00072F8F2CF689473F8EFCF689474F8ECCF82
:102BE00077FC1CC080ED890F8A30C8F676FE05C0E0
:102BF000959C800D1124982EDFCF659C800D1124AB
:102C0000682E689475F8D8CF9C3619F4689477F8D4
:102C1000D3CF9C3409F44BC0983671F2892F8F7D45
:102C20008554833008F445C0933609F466C0933761
:102C300009F469C0933509F475C0943619F09936D2
:102C400009F09FC0F80177FE95C061917191819163
:102C500091918F01272D2F76822E97FF09C0909595
:102C60008095709561957F4F8F4F9F4F689487F83F
:102C70002AE030E0AE014F5F5F4F5A010E94C81753
:102C80008A19A82E86FEC4C0882D8E7FA91408F04C
:102C9000BEC084FE11C182FC05C1F82DFE7E8F2EC0
:102CA000B92C882D8678811509F4BFC000C131E0A8
:102CB00083CF3115F9F0085F1F4F8FE38983882494
:102CC0008394912CAE014F5F5F4F5A01E89477F8DF
:102CD00073FC03C086149104B0F181149104D1F502
:102CE000611409F435CFB60180E290E00E94981794
:102CF0006A94F6CF0C5F1F4FE0CFF8018081898383
:102D00000E5F1F4FDCCFF801A190B1908F01692DAC
:102D100070E076FC02C06FEF7FEFC5010E948D1757
:102D20004C01D4CFF801A190B1908F01692D70E0D2
:102D300076FC02C06FEF7FEFC5010E9482174C0145
:102D4000689477F8C5CFB60180E290E00E949817AA
:102D50006A94C0CFF50177FC859177FE81915F0180
:102D6000B60190E00E94981761106A94F1E08F1A02
:102D70009108B3CF61917191072E000C880B990BCC
:102D800068CF872CE89484F82AE030E0953739F151
:102D9000572D597F852E903799F058F49835A9F022
:102DA0009F36D9F0F601868197812B96EFE00C943F
:102DB00066189837B9F774FC05C020E130E00FC001
:102DC000689484F8689482F8F8CF74FE03C0872D65
:102DD0008660882E20E132E002C028E030E0F80171
:102DE00087FE10C061917191819191918F01FE01D7
:102DF00031965F01AF010E94C8178A19A82EE89486
:102E000087F840CF6191719180E090E0EFCF882EFC
:102E1000BA2C84FE46CFFE01EA0DF11D808180337D
:102E200009F043C0282D297E822E83FC0EC080FE2F
:102E30004FC09A2CB61418F4960C9B18B62C862DFD
:102E40008B196B1408F480E0B80EB61408F042C079
:102E50006B1884FE41C0B60180E390E00E94981791
:102E600082FE09C088E590E081FC02C088E790E01E
:102E7000B6010E949817A914D8F1AA94B12C4FEF6B
:102E8000A41AB40ACE0101964C01A80EB91EF50190
:102E900082915F01B60190E00E9498178A149B040A
:102EA000B1F71ECFB92C882EB6CF82FC02C0B394E6
:102EB000BCCFB394B394B9CFB92C882EF2CEB6015F
:102EC00080E290E00E94981773947614C0F3B7CF15
:102ED0007B2CFBCF612CBDCF882D8678811559F2D4
:102EE00080E281FC8BE287FC8DE2B60190E0C1CFED
:102EF000B60180E390E00E9498179A94BCCF8FEFC0
:102F00009FEF53CFFC010590615070400110D8F73E
:102F1000809590958E0F9F1F0895FC016150704021
:102F200001900110D8F7809590958E0F9F1F0895FE
:102F30000F931F93CF93DF93182F092FEB018B81F2
:102F400081FD09C01FEF0FEF812F902FDF91CF91EF
:102F50001F910F91089582FF14C02E813F818C81B3
:102F60009D81281739073CF4E881F981CF0101964A
:102F70009983888310838E819F8101969F838E839E
:102F8000E3CFE885F985812F0995892BA1F3DACF65
:102F9000FA01AA27283051F1203181F1E8946F938A
:102FA0006E7F6E5F7F4F8F4F9F4FAF4FB1E03ED030
:102FB000B4E03CD0670F781F891F9A1FA11D680FCE
:102FC000791F8A1F911DA11D6A0F711D811D911D01
:102FD000A11D20D009F468943F912AE0269F112476
:102FE0003019305D3193DEF6CF010895462F4770DA
:102FF000405D4193B3E00FD0C9F7F6CF462F4F7035
:10300000405D4A3318F0495D31FD4052419302D092
:10301000A9F7EACFB4E0A695979587957795679538
:10302000BA95C9F700976105710508959B01AC0138
:103030000A2E06945795479537952795BA95C9F75F
:10304000620F731F841F951FA01D0895DC01CB0123
:10305000FC01E199FECF06C0FFBBEEBBE09A3196C2
:103060000DB20D9241505040B8F70895262FE199C6
:10307000FECF9FBB8EBBE09A01970DB2021631F0D6
:103080002DBB0FB6F894E29AE19A0FBE08952F92E5
:103090003F924F925F926F927F928F929F92AF92E8
:1030A000BF92CF92DF92EF92FF920F931F93CF9335
:1030B000DF93CDB7DEB7CA1BDB0B0FB6F894DEBFCC
:1030C0000FBECDBF09942A88398848885F846E84F2
:1030D0007D848C849B84AA84B984C884DF80EE803C
:1030E000FD800C811B81AA81B981CE0FD11D0FB645
:1030F000F894DEBF0FBECDBFED010895F894FFCF69
:10310000DB10E010E510EA10EF10F410F910FD10DC
:103110003911541157115A115D1160116311681161
:103120006212B312B31252139A13071430147514A7
:1031300001B4005E012C0120030A001E00020154AC
:103140004C4F5700544849474800484C4F57004897
:103150004849474800544859535400484859535423
:103160000043535653454300534F554E4400534577
:103170005420736176652026206578697400414388
:103180004B2063616E63656C00A804A2049D0497E4
:083190000491048B0484040087
:00000001FF
